{
  "_format": "hh-sol-artifact-1",
  "contractName": "Governance",
  "sourceName": "contracts/Gov.sol",
  "abi": [
    {
      "inputs": [
        {
          "internalType": "address",
          "name": "_governanceToken",
          "type": "address"
        },
        {
          "internalType": "address",
          "name": "_insurancePool",
          "type": "address"
        },
        {
          "internalType": "uint256",
          "name": "_votingDuration",
          "type": "uint256"
        },
        {
          "internalType": "address",
          "name": "_initialOwner",
          "type": "address"
        }
      ],
      "stateMutability": "nonpayable",
      "type": "constructor"
    },
    {
      "inputs": [
        {
          "internalType": "address",
          "name": "owner",
          "type": "address"
        }
      ],
      "name": "OwnableInvalidOwner",
      "type": "error"
    },
    {
      "inputs": [
        {
          "internalType": "address",
          "name": "account",
          "type": "address"
        }
      ],
      "name": "OwnableUnauthorizedAccount",
      "type": "error"
    },
    {
      "inputs": [],
      "name": "ReentrancyGuardReentrantCall",
      "type": "error"
    },
    {
      "anonymous": false,
      "inputs": [
        {
          "indexed": true,
          "internalType": "address",
          "name": "previousOwner",
          "type": "address"
        },
        {
          "indexed": true,
          "internalType": "address",
          "name": "newOwner",
          "type": "address"
        }
      ],
      "name": "OwnershipTransferred",
      "type": "event"
    },
    {
      "anonymous": false,
      "inputs": [
        {
          "indexed": true,
          "internalType": "uint256",
          "name": "proposalId",
          "type": "uint256"
        },
        {
          "indexed": true,
          "internalType": "address",
          "name": "creator",
          "type": "address"
        },
        {
          "indexed": false,
          "internalType": "string",
          "name": "description",
          "type": "string"
        },
        {
          "indexed": false,
          "internalType": "enum CoverLib.RiskType",
          "name": "riskType",
          "type": "uint8"
        },
        {
          "indexed": false,
          "internalType": "uint256",
          "name": "claimAmount",
          "type": "uint256"
        },
        {
          "indexed": false,
          "internalType": "enum Governance.ProposalStaus",
          "name": "status",
          "type": "uint8"
        }
      ],
      "name": "ProposalCreated",
      "type": "event"
    },
    {
      "anonymous": false,
      "inputs": [
        {
          "indexed": true,
          "internalType": "uint256",
          "name": "proposalId",
          "type": "uint256"
        },
        {
          "indexed": false,
          "internalType": "bool",
          "name": "approved",
          "type": "bool"
        }
      ],
      "name": "ProposalExecuted",
      "type": "event"
    },
    {
      "anonymous": false,
      "inputs": [
        {
          "indexed": true,
          "internalType": "address",
          "name": "voter",
          "type": "address"
        },
        {
          "indexed": true,
          "internalType": "uint256",
          "name": "proposalId",
          "type": "uint256"
        },
        {
          "indexed": false,
          "internalType": "bool",
          "name": "vote",
          "type": "bool"
        },
        {
          "indexed": false,
          "internalType": "uint256",
          "name": "weight",
          "type": "uint256"
        }
      ],
      "name": "VoteCast",
      "type": "event"
    },
    {
      "inputs": [],
      "name": "ICoverContract",
      "outputs": [
        {
          "internalType": "contract ICover",
          "name": "",
          "type": "address"
        }
      ],
      "stateMutability": "view",
      "type": "function"
    },
    {
      "inputs": [],
      "name": "coverContract",
      "outputs": [
        {
          "internalType": "address",
          "name": "",
          "type": "address"
        }
      ],
      "stateMutability": "view",
      "type": "function"
    },
    {
      "inputs": [
        {
          "components": [
            {
              "internalType": "address",
              "name": "user",
              "type": "address"
            },
            {
              "internalType": "enum CoverLib.RiskType",
              "name": "riskType",
              "type": "uint8"
            },
            {
              "internalType": "uint256",
              "name": "coverId",
              "type": "uint256"
            },
            {
              "internalType": "string",
              "name": "description",
              "type": "string"
            },
            {
              "internalType": "uint256",
              "name": "poolId",
              "type": "uint256"
            },
            {
              "internalType": "uint256",
              "name": "claimAmount",
              "type": "uint256"
            }
          ],
          "internalType": "struct Governance.ProposalParams",
          "name": "params",
          "type": "tuple"
        }
      ],
      "name": "createProposal",
      "outputs": [],
      "stateMutability": "nonpayable",
      "type": "function"
    },
    {
      "inputs": [
        {
          "internalType": "uint256",
          "name": "_proposalId",
          "type": "uint256"
        }
      ],
      "name": "executeProposal",
      "outputs": [],
      "stateMutability": "nonpayable",
      "type": "function"
    },
    {
      "inputs": [],
      "name": "getAllProposals",
      "outputs": [
        {
          "components": [
            {
              "internalType": "uint256",
              "name": "id",
              "type": "uint256"
            },
            {
              "internalType": "uint256",
              "name": "votesFor",
              "type": "uint256"
            },
            {
              "internalType": "uint256",
              "name": "votesAgainst",
              "type": "uint256"
            },
            {
              "internalType": "uint256",
              "name": "createdAt",
              "type": "uint256"
            },
            {
              "internalType": "uint256",
              "name": "deadline",
              "type": "uint256"
            },
            {
              "internalType": "enum Governance.ProposalStaus",
              "name": "status",
              "type": "uint8"
            },
            {
              "internalType": "bool",
              "name": "executed",
              "type": "bool"
            },
            {
              "components": [
                {
                  "internalType": "address",
                  "name": "user",
                  "type": "address"
                },
                {
                  "internalType": "enum CoverLib.RiskType",
                  "name": "riskType",
                  "type": "uint8"
                },
                {
                  "internalType": "uint256",
                  "name": "coverId",
                  "type": "uint256"
                },
                {
                  "internalType": "string",
                  "name": "description",
                  "type": "string"
                },
                {
                  "internalType": "uint256",
                  "name": "poolId",
                  "type": "uint256"
                },
                {
                  "internalType": "uint256",
                  "name": "claimAmount",
                  "type": "uint256"
                }
              ],
              "internalType": "struct Governance.ProposalParams",
              "name": "proposalParam",
              "type": "tuple"
            }
          ],
          "internalType": "struct Governance.Proposal[]",
          "name": "",
          "type": "tuple[]"
        }
      ],
      "stateMutability": "view",
      "type": "function"
    },
    {
      "inputs": [],
      "name": "getProposalCount",
      "outputs": [
        {
          "internalType": "uint256",
          "name": "",
          "type": "uint256"
        }
      ],
      "stateMutability": "view",
      "type": "function"
    },
    {
      "inputs": [
        {
          "internalType": "uint256",
          "name": "_proposalId",
          "type": "uint256"
        }
      ],
      "name": "getProposalDetails",
      "outputs": [
        {
          "components": [
            {
              "internalType": "uint256",
              "name": "id",
              "type": "uint256"
            },
            {
              "internalType": "uint256",
              "name": "votesFor",
              "type": "uint256"
            },
            {
              "internalType": "uint256",
              "name": "votesAgainst",
              "type": "uint256"
            },
            {
              "internalType": "uint256",
              "name": "createdAt",
              "type": "uint256"
            },
            {
              "internalType": "uint256",
              "name": "deadline",
              "type": "uint256"
            },
            {
              "internalType": "enum Governance.ProposalStaus",
              "name": "status",
              "type": "uint8"
            },
            {
              "internalType": "bool",
              "name": "executed",
              "type": "bool"
            },
            {
              "components": [
                {
                  "internalType": "address",
                  "name": "user",
                  "type": "address"
                },
                {
                  "internalType": "enum CoverLib.RiskType",
                  "name": "riskType",
                  "type": "uint8"
                },
                {
                  "internalType": "uint256",
                  "name": "coverId",
                  "type": "uint256"
                },
                {
                  "internalType": "string",
                  "name": "description",
                  "type": "string"
                },
                {
                  "internalType": "uint256",
                  "name": "poolId",
                  "type": "uint256"
                },
                {
                  "internalType": "uint256",
                  "name": "claimAmount",
                  "type": "uint256"
                }
              ],
              "internalType": "struct Governance.ProposalParams",
              "name": "proposalParam",
              "type": "tuple"
            }
          ],
          "internalType": "struct Governance.Proposal",
          "name": "",
          "type": "tuple"
        }
      ],
      "stateMutability": "view",
      "type": "function"
    },
    {
      "inputs": [],
      "name": "governanceToken",
      "outputs": [
        {
          "internalType": "contract IERC20",
          "name": "",
          "type": "address"
        }
      ],
      "stateMutability": "view",
      "type": "function"
    },
    {
      "inputs": [],
      "name": "lpContract",
      "outputs": [
        {
          "internalType": "contract ILP",
          "name": "",
          "type": "address"
        }
      ],
      "stateMutability": "view",
      "type": "function"
    },
    {
      "inputs": [],
      "name": "owner",
      "outputs": [
        {
          "internalType": "address",
          "name": "",
          "type": "address"
        }
      ],
      "stateMutability": "view",
      "type": "function"
    },
    {
      "inputs": [],
      "name": "poolContract",
      "outputs": [
        {
          "internalType": "address",
          "name": "",
          "type": "address"
        }
      ],
      "stateMutability": "view",
      "type": "function"
    },
    {
      "inputs": [],
      "name": "proposalCounter",
      "outputs": [
        {
          "internalType": "uint256",
          "name": "",
          "type": "uint256"
        }
      ],
      "stateMutability": "view",
      "type": "function"
    },
    {
      "inputs": [
        {
          "internalType": "uint256",
          "name": "",
          "type": "uint256"
        }
      ],
      "name": "proposalIds",
      "outputs": [
        {
          "internalType": "uint256",
          "name": "",
          "type": "uint256"
        }
      ],
      "stateMutability": "view",
      "type": "function"
    },
    {
      "inputs": [
        {
          "internalType": "uint256",
          "name": "",
          "type": "uint256"
        }
      ],
      "name": "proposals",
      "outputs": [
        {
          "internalType": "uint256",
          "name": "id",
          "type": "uint256"
        },
        {
          "internalType": "uint256",
          "name": "votesFor",
          "type": "uint256"
        },
        {
          "internalType": "uint256",
          "name": "votesAgainst",
          "type": "uint256"
        },
        {
          "internalType": "uint256",
          "name": "createdAt",
          "type": "uint256"
        },
        {
          "internalType": "uint256",
          "name": "deadline",
          "type": "uint256"
        },
        {
          "internalType": "enum Governance.ProposalStaus",
          "name": "status",
          "type": "uint8"
        },
        {
          "internalType": "bool",
          "name": "executed",
          "type": "bool"
        },
        {
          "components": [
            {
              "internalType": "address",
              "name": "user",
              "type": "address"
            },
            {
              "internalType": "enum CoverLib.RiskType",
              "name": "riskType",
              "type": "uint8"
            },
            {
              "internalType": "uint256",
              "name": "coverId",
              "type": "uint256"
            },
            {
              "internalType": "string",
              "name": "description",
              "type": "string"
            },
            {
              "internalType": "uint256",
              "name": "poolId",
              "type": "uint256"
            },
            {
              "internalType": "uint256",
              "name": "claimAmount",
              "type": "uint256"
            }
          ],
          "internalType": "struct Governance.ProposalParams",
          "name": "proposalParam",
          "type": "tuple"
        }
      ],
      "stateMutability": "view",
      "type": "function"
    },
    {
      "inputs": [],
      "name": "renounceOwnership",
      "outputs": [],
      "stateMutability": "nonpayable",
      "type": "function"
    },
    {
      "inputs": [
        {
          "internalType": "address",
          "name": "_coverContract",
          "type": "address"
        }
      ],
      "name": "setCoverContract",
      "outputs": [],
      "stateMutability": "nonpayable",
      "type": "function"
    },
    {
      "inputs": [
        {
          "internalType": "uint256",
          "name": "_newDuration",
          "type": "uint256"
        }
      ],
      "name": "setVotingDuration",
      "outputs": [],
      "stateMutability": "nonpayable",
      "type": "function"
    },
    {
      "inputs": [
        {
          "internalType": "address",
          "name": "newOwner",
          "type": "address"
        }
      ],
      "name": "transferOwnership",
      "outputs": [],
      "stateMutability": "nonpayable",
      "type": "function"
    },
    {
      "inputs": [
        {
          "internalType": "uint256",
          "name": "proposalId",
          "type": "uint256"
        }
      ],
      "name": "updateProposalStatusToClaimed",
      "outputs": [],
      "stateMutability": "nonpayable",
      "type": "function"
    },
    {
      "inputs": [
        {
          "internalType": "uint256",
          "name": "_proposalId",
          "type": "uint256"
        },
        {
          "internalType": "bool",
          "name": "_vote",
          "type": "bool"
        }
      ],
      "name": "vote",
      "outputs": [],
      "stateMutability": "nonpayable",
      "type": "function"
    },
    {
      "inputs": [
        {
          "internalType": "uint256",
          "name": "",
          "type": "uint256"
        },
        {
          "internalType": "address",
          "name": "",
          "type": "address"
        }
      ],
      "name": "voters",
      "outputs": [
        {
          "internalType": "bool",
          "name": "voted",
          "type": "bool"
        },
        {
          "internalType": "bool",
          "name": "vote",
          "type": "bool"
        },
        {
          "internalType": "uint256",
          "name": "weight",
          "type": "uint256"
        }
      ],
      "stateMutability": "view",
      "type": "function"
    },
    {
      "inputs": [],
      "name": "votingDuration",
      "outputs": [
        {
          "internalType": "uint256",
          "name": "",
          "type": "uint256"
        }
      ],
      "stateMutability": "view",
      "type": "function"
    }
  ],
  "bytecode": "0x60806040523480156200001157600080fd5b50604051620037b4380380620037b4833981810160405281019062000037919062000314565b806001600081905550600073ffffffffffffffffffffffffffffffffffffffff168173ffffffffffffffffffffffffffffffffffffffff1603620000b55760006040517f1e4fbdf7000000000000000000000000000000000000000000000000000000008152600401620000ac919062000397565b60405180910390fd5b620000c681620001a960201b60201c565b5083600760006101000a81548173ffffffffffffffffffffffffffffffffffffffff021916908373ffffffffffffffffffffffffffffffffffffffff16021790555082600860006101000a81548173ffffffffffffffffffffffffffffffffffffffff021916908373ffffffffffffffffffffffffffffffffffffffff16021790555082600b60006101000a81548173ffffffffffffffffffffffffffffffffffffffff021916908373ffffffffffffffffffffffffffffffffffffffff160217905550603c82620001999190620003e3565b600381905550505050506200042e565b6000600160009054906101000a900473ffffffffffffffffffffffffffffffffffffffff16905081600160006101000a81548173ffffffffffffffffffffffffffffffffffffffff021916908373ffffffffffffffffffffffffffffffffffffffff1602179055508173ffffffffffffffffffffffffffffffffffffffff168173ffffffffffffffffffffffffffffffffffffffff167f8be0079c531659141344cd1fd0a4f28419497f9722a3daafe3b4186f6b6457e060405160405180910390a35050565b600080fd5b600073ffffffffffffffffffffffffffffffffffffffff82169050919050565b6000620002a18262000274565b9050919050565b620002b38162000294565b8114620002bf57600080fd5b50565b600081519050620002d381620002a8565b92915050565b6000819050919050565b620002ee81620002d9565b8114620002fa57600080fd5b50565b6000815190506200030e81620002e3565b92915050565b600080600080608085870312156200033157620003306200026f565b5b60006200034187828801620002c2565b94505060206200035487828801620002c2565b93505060406200036787828801620002fd565b92505060606200037a87828801620002c2565b91505092959194509250565b620003918162000294565b82525050565b6000602082019050620003ae600083018462000386565b92915050565b7f4e487b7100000000000000000000000000000000000000000000000000000000600052601160045260246000fd5b6000620003f082620002d9565b9150620003fd83620002d9565b92508282026200040d81620002d9565b91508282048414831517620004275762000426620003b4565b5b5092915050565b613376806200043e6000396000f3fe608060405234801561001057600080fd5b50600436106101425760003560e01c80638da5cb5b116100b8578063cceb68f51161007c578063cceb68f51461035c578063ee5424ab1461037a578063f1b4bf9d14610396578063f2fde38b146103b2578063f6e80558146103ce578063f96dae0a146103ec57610142565b80638da5cb5b146102a25780639b644a23146102c05780639e319063146102f0578063c08cc02d14610322578063c9d27afe1461034057610142565b80633b4d01a71161010a5780633b4d01a7146101f4578063593a41c9146102245780635bcfadb514610240578063715018a61461025c57806388d52ef7146102665780638acee3cf1461028457610142565b8063013cf08b146101475780630c0512e91461017e5780630d61b5191461019c578063132002fc146101b8578063248a75b7146101d6575b600080fd5b610161600480360381019061015c9190611d13565b61040a565b604051610175989796959493929190611f92565b60405180910390f35b6101866105b7565b6040516101939190612017565b60405180910390f35b6101b660048036038101906101b19190611d13565b6105bd565b005b6101c06108e8565b6040516101cd9190612017565b60405180910390f35b6101de6108ee565b6040516101eb9190612041565b60405180910390f35b61020e60048036038101906102099190611d13565b610914565b60405161021b91906121b3565b60405180910390f35b61023e60048036038101906102399190612421565b610b1f565b005b61025a60048036038101906102559190611d13565b610e98565b005b610264610eed565b005b61026e610f01565b60405161027b9190612041565b60405180910390f35b61028c610f27565b60405161029991906124c9565b60405180910390f35b6102aa610f4d565b6040516102b79190612041565b60405180910390f35b6102da60048036038101906102d59190611d13565b610f77565b6040516102e79190612017565b60405180910390f35b61030a600480360381019061030591906124e4565b610f9b565b60405161031993929190612524565b60405180910390f35b61032a610fec565b6040516103379190612017565b60405180910390f35b61035a60048036038101906103559190612587565b610ff6565b005b6103646113fb565b6040516103719190612739565b60405180910390f35b610394600480360381019061038f919061275b565b6116b7565b005b6103b060048036038101906103ab9190611d13565b611844565b005b6103cc60048036038101906103c7919061275b565b611995565b005b6103d6611a1b565b6040516103e391906127a9565b60405180910390f35b6103f4611a41565b60405161040191906127e5565b60405180910390f35b60046020528060005260406000206000915090508060000154908060010154908060020154908060030154908060040154908060050160009054906101000a900460ff16908060050160019054906101000a900460ff1690806006016040518060c00160405290816000820160009054906101000a900473ffffffffffffffffffffffffffffffffffffffff1673ffffffffffffffffffffffffffffffffffffffff1673ffffffffffffffffffffffffffffffffffffffff1681526020016000820160149054906101000a900460ff1660038111156104ec576104eb611d4f565b5b60038111156104fe576104fd611d4f565b5b81526020016001820154815260200160028201805461051c9061282f565b80601f01602080910402602001604051908101604052809291908181526020018280546105489061282f565b80156105955780601f1061056a57610100808354040283529160200191610595565b820191906000526020600020905b81548152906001019060200180831161057857829003601f168201915b5050505050815260200160038201548152602001600482015481525050905088565b60025481565b6105c5611a67565b6105cd611aee565b6000600460008381526020019081526020016000209050600160048111156105f8576105f7611d4f565b5b8160050160009054906101000a900460ff16600481111561061c5761061b611d4f565b5b1461065c576040517f08c379a0000000000000000000000000000000000000000000000000000000008152600401610653906128bd565b60405180910390fd5b806004015442116106a2576040517f08c379a000000000000000000000000000000000000000000000000000000000815260040161069990612929565b60405180910390fd5b8060050160019054906101000a900460ff16156106f4576040517f08c379a00000000000000000000000000000000000000000000000000000000081526004016106eb90612995565b60405180910390fd5b60018160050160016101000a81548160ff0219169083151502179055508060020154816001015411156108645760026004600084815260200190815260200160002060050160006101000a81548160ff0219169083600481111561075b5761075a611d4f565b5b0217905550600960009054906101000a900473ffffffffffffffffffffffffffffffffffffffff1673ffffffffffffffffffffffffffffffffffffffff16637ceb4a698260060160000160009054906101000a900473ffffffffffffffffffffffffffffffffffffffff16836006016001015484600601600401546040518463ffffffff1660e01b81526004016107f4939291906129b5565b600060405180830381600087803b15801561080e57600080fd5b505af1158015610822573d6000803e3d6000fd5b50505050817f948f4a9cd986f1118c3fbd459f7a22b23c0693e1ca3ef06a6a8be5aa7d39cc03600160405161085791906129ec565b60405180910390a26108dc565b600480600084815260200190815260200160002060050160006101000a81548160ff0219169083600481111561089d5761089c611d4f565b5b0217905550817f948f4a9cd986f1118c3fbd459f7a22b23c0693e1ca3ef06a6a8be5aa7d39cc0360006040516108d391906129ec565b60405180910390a25b506108e5611b34565b50565b60035481565b600a60009054906101000a900473ffffffffffffffffffffffffffffffffffffffff1681565b61091c611c0c565b600460008381526020019081526020016000206040518061010001604052908160008201548152602001600182015481526020016002820154815260200160038201548152602001600482015481526020016005820160009054906101000a900460ff16600481111561099257610991611d4f565b5b60048111156109a4576109a3611d4f565b5b81526020016005820160019054906101000a900460ff16151515158152602001600682016040518060c00160405290816000820160009054906101000a900473ffffffffffffffffffffffffffffffffffffffff1673ffffffffffffffffffffffffffffffffffffffff1673ffffffffffffffffffffffffffffffffffffffff1681526020016000820160149054906101000a900460ff166003811115610a4e57610a4d611d4f565b5b6003811115610a6057610a5f611d4f565b5b815260200160018201548152602001600282018054610a7e9061282f565b80601f0160208091040260200160405190810160405280929190818152602001828054610aaa9061282f565b8015610af75780601f10610acc57610100808354040283529160200191610af7565b820191906000526020600020905b815481529060010190602001808311610ada57829003601f168201915b5050505050815260200160038201548152602001600482015481525050815250509050919050565b600860009054906101000a900473ffffffffffffffffffffffffffffffffffffffff1673ffffffffffffffffffffffffffffffffffffffff166325f11e8d82608001516040518263ffffffff1660e01b8152600401610b7e9190612017565b602060405180830381865afa158015610b9b573d6000803e3d6000fd5b505050506040513d601f19601f82011682018060405250810190610bbf9190612a1c565b610bfe576040517f08c379a0000000000000000000000000000000000000000000000000000000008152600401610bf590612a95565b60405180910390fd5b60008160a0015111610c45576040517f08c379a0000000000000000000000000000000000000000000000000000000008152600401610c3c90612b27565b60405180910390fd5b60026000815480929190610c5890612b76565b9190505550604051806101000160405280600254815260200160008152602001600081526020014281526020016000815260200160006004811115610ca057610c9f611d4f565b5b815260200160001515815260200182815250600460006002548152602001908152602001600020600082015181600001556020820151816001015560408201518160020155606082015181600301556080820151816004015560a08201518160050160006101000a81548160ff02191690836004811115610d2457610d23611d4f565b5b021790555060c08201518160050160016101000a81548160ff02191690831515021790555060e08201518160060160008201518160000160006101000a81548173ffffffffffffffffffffffffffffffffffffffff021916908373ffffffffffffffffffffffffffffffffffffffff16021790555060208201518160000160146101000a81548160ff02191690836003811115610dc457610dc3611d4f565b5b0217905550604082015181600101556060820151816002019081610de89190612d60565b506080820151816003015560a08201518160040155505090505060066002549080600181540180825580915050600190039060005260206000200160009091909190915055806000015173ffffffffffffffffffffffffffffffffffffffff166002547f46b0c19f3bb130a0d6b56daca2a88a6b26094fb630786130084dc69e99692295836060015184602001518560a001516000604051610e8d9493929190612e7a565b60405180910390a350565b610ea0611a67565b60008111610ee3576040517f08c379a0000000000000000000000000000000000000000000000000000000008152600401610eda90612f38565b60405180910390fd5b8060038190555050565b610ef5611a67565b610eff6000611b3e565b565b600b60009054906101000a900473ffffffffffffffffffffffffffffffffffffffff1681565b600860009054906101000a900473ffffffffffffffffffffffffffffffffffffffff1681565b6000600160009054906101000a900473ffffffffffffffffffffffffffffffffffffffff16905090565b60068181548110610f8757600080fd5b906000526020600020016000915090505481565b6005602052816000526040600020602052806000526040600020600091509150508060000160009054906101000a900460ff16908060000160019054906101000a900460ff16908060010154905083565b6000600254905090565b6005600083815260200190815260200160002060003373ffffffffffffffffffffffffffffffffffffffff1673ffffffffffffffffffffffffffffffffffffffff16815260200190815260200160002060000160009054906101000a900460ff1615611097576040517f08c379a000000000000000000000000000000000000000000000000000000000815260040161108e90612fa4565b60405180910390fd5b600060046000848152602001908152602001600020905060008160030154036110f5576040517f08c379a00000000000000000000000000000000000000000000000000000000081526004016110ec90613010565b60405180910390fd5b6000600481111561110957611108611d4f565b5b8160050160009054906101000a900460ff16600481111561112d5761112c611d4f565b5b0361117a5760018160050160006101000a81548160ff0219169083600481111561115a57611159611d4f565b5b02179055506003544261116d9190613030565b81600401819055506111c2565b80600401544211156111c1576040517f08c379a00000000000000000000000000000000000000000000000000000000081526004016111b8906130b0565b60405180910390fd5b5b6000600760009054906101000a900473ffffffffffffffffffffffffffffffffffffffff1673ffffffffffffffffffffffffffffffffffffffff166370a08231336040518263ffffffff1660e01b815260040161121f9190612041565b602060405180830381865afa15801561123c573d6000803e3d6000fd5b505050506040513d601f19601f8201168201806040525081019061126091906130e5565b9050600081116112a5576040517f08c379a000000000000000000000000000000000000000000000000000000000815260040161129c9061315e565b60405180910390fd5b60405180606001604052806001151581526020018415158152602001828152506005600086815260200190815260200160002060003373ffffffffffffffffffffffffffffffffffffffff1673ffffffffffffffffffffffffffffffffffffffff16815260200190815260200160002060008201518160000160006101000a81548160ff02191690831515021790555060208201518160000160016101000a81548160ff021916908315150217905550604082015181600101559050508215611388578082600101600082825461137c9190613030565b925050819055506113a4565b8082600201600082825461139c9190613030565b925050819055505b833373ffffffffffffffffffffffffffffffffffffffff167f877856338e13f63d0c36822ff0ef736b80934cd90574a3a5bc9262c39d217c4685846040516113ed92919061317e565b60405180910390a350505050565b6060600060068054905067ffffffffffffffff81111561141e5761141d6121da565b5b60405190808252806020026020018201604052801561145757816020015b611444611c0c565b81526020019060019003908161143c5790505b50905060005b6006805490508110156116af576004600060068381548110611482576114816131a7565b5b906000526020600020015481526020019081526020016000206040518061010001604052908160008201548152602001600182015481526020016002820154815260200160038201548152602001600482015481526020016005820160009054906101000a900460ff1660048111156114fe576114fd611d4f565b5b60048111156115105761150f611d4f565b5b81526020016005820160019054906101000a900460ff16151515158152602001600682016040518060c00160405290816000820160009054906101000a900473ffffffffffffffffffffffffffffffffffffffff1673ffffffffffffffffffffffffffffffffffffffff1673ffffffffffffffffffffffffffffffffffffffff1681526020016000820160149054906101000a900460ff1660038111156115ba576115b9611d4f565b5b60038111156115cc576115cb611d4f565b5b8152602001600182015481526020016002820180546115ea9061282f565b80601f01602080910402602001604051908101604052809291908181526020018280546116169061282f565b80156116635780601f1061163857610100808354040283529160200191611663565b820191906000526020600020905b81548152906001019060200180831161164657829003601f168201915b505050505081526020016003820154815260200160048201548152505081525050828281518110611697576116966131a7565b5b6020026020010181905250808060010191505061145d565b508091505090565b6116bf611a67565b600073ffffffffffffffffffffffffffffffffffffffff16600a60009054906101000a900473ffffffffffffffffffffffffffffffffffffffff1673ffffffffffffffffffffffffffffffffffffffff1614611750576040517f08c379a000000000000000000000000000000000000000000000000000000000815260040161174790613222565b60405180910390fd5b600073ffffffffffffffffffffffffffffffffffffffff168173ffffffffffffffffffffffffffffffffffffffff16036117bf576040517f08c379a00000000000000000000000000000000000000000000000000000000081526004016117b6906132b4565b60405180910390fd5b80600960006101000a81548173ffffffffffffffffffffffffffffffffffffffff021916908373ffffffffffffffffffffffffffffffffffffffff16021790555080600a60006101000a81548173ffffffffffffffffffffffffffffffffffffffff021916908373ffffffffffffffffffffffffffffffffffffffff16021790555050565b61184c611aee565b6004600082815260200190815260200160002060060160000160009054906101000a900473ffffffffffffffffffffffffffffffffffffffff1673ffffffffffffffffffffffffffffffffffffffff163373ffffffffffffffffffffffffffffffffffffffff16148061190c5750600b60009054906101000a900473ffffffffffffffffffffffffffffffffffffffff1673ffffffffffffffffffffffffffffffffffffffff163373ffffffffffffffffffffffffffffffffffffffff16145b61194b576040517f08c379a000000000000000000000000000000000000000000000000000000000815260040161194290613320565b60405180910390fd5b60036004600083815260200190815260200160002060050160006101000a81548160ff0219169083600481111561198557611984611d4f565b5b0217905550611992611b34565b50565b61199d611a67565b600073ffffffffffffffffffffffffffffffffffffffff168173ffffffffffffffffffffffffffffffffffffffff1603611a0f5760006040517f1e4fbdf7000000000000000000000000000000000000000000000000000000008152600401611a069190612041565b60405180910390fd5b611a1881611b3e565b50565b600960009054906101000a900473ffffffffffffffffffffffffffffffffffffffff1681565b600760009054906101000a900473ffffffffffffffffffffffffffffffffffffffff1681565b611a6f611c04565b73ffffffffffffffffffffffffffffffffffffffff16611a8d610f4d565b73ffffffffffffffffffffffffffffffffffffffff1614611aec57611ab0611c04565b6040517f118cdaa7000000000000000000000000000000000000000000000000000000008152600401611ae39190612041565b60405180910390fd5b565b600260005403611b2a576040517f3ee5aeb500000000000000000000000000000000000000000000000000000000815260040160405180910390fd5b6002600081905550565b6001600081905550565b6000600160009054906101000a900473ffffffffffffffffffffffffffffffffffffffff16905081600160006101000a81548173ffffffffffffffffffffffffffffffffffffffff021916908373ffffffffffffffffffffffffffffffffffffffff1602179055508173ffffffffffffffffffffffffffffffffffffffff168173ffffffffffffffffffffffffffffffffffffffff167f8be0079c531659141344cd1fd0a4f28419497f9722a3daafe3b4186f6b6457e060405160405180910390a35050565b600033905090565b604051806101000160405280600081526020016000815260200160008152602001600081526020016000815260200160006004811115611c4f57611c4e611d4f565b5b8152602001600015158152602001611c65611c6b565b81525090565b6040518060c00160405280600073ffffffffffffffffffffffffffffffffffffffff16815260200160006003811115611ca757611ca6611d4f565b5b8152602001600081526020016060815260200160008152602001600081525090565b6000604051905090565b600080fd5b600080fd5b6000819050919050565b611cf081611cdd565b8114611cfb57600080fd5b50565b600081359050611d0d81611ce7565b92915050565b600060208284031215611d2957611d28611cd3565b5b6000611d3784828501611cfe565b91505092915050565b611d4981611cdd565b82525050565b7f4e487b7100000000000000000000000000000000000000000000000000000000600052602160045260246000fd5b60058110611d8f57611d8e611d4f565b5b50565b6000819050611da082611d7e565b919050565b6000611db082611d92565b9050919050565b611dc081611da5565b82525050565b60008115159050919050565b611ddb81611dc6565b82525050565b600073ffffffffffffffffffffffffffffffffffffffff82169050919050565b6000611e0c82611de1565b9050919050565b611e1c81611e01565b82525050565b60048110611e3357611e32611d4f565b5b50565b6000819050611e4482611e22565b919050565b6000611e5482611e36565b9050919050565b611e6481611e49565b82525050565b611e7381611cdd565b82525050565b600081519050919050565b600082825260208201905092915050565b60005b83811015611eb3578082015181840152602081019050611e98565b60008484015250505050565b6000601f19601f8301169050919050565b6000611edb82611e79565b611ee58185611e84565b9350611ef5818560208601611e95565b611efe81611ebf565b840191505092915050565b600060c083016000830151611f216000860182611e13565b506020830151611f346020860182611e5b565b506040830151611f476040860182611e6a565b5060608301518482036060860152611f5f8282611ed0565b9150506080830151611f746080860182611e6a565b5060a0830151611f8760a0860182611e6a565b508091505092915050565b600061010082019050611fa8600083018b611d40565b611fb5602083018a611d40565b611fc26040830189611d40565b611fcf6060830188611d40565b611fdc6080830187611d40565b611fe960a0830186611db7565b611ff660c0830185611dd2565b81810360e08301526120088184611f09565b90509998505050505050505050565b600060208201905061202c6000830184611d40565b92915050565b61203b81611e01565b82525050565b60006020820190506120566000830184612032565b92915050565b61206581611da5565b82525050565b61207481611dc6565b82525050565b600060c0830160008301516120926000860182611e13565b5060208301516120a56020860182611e5b565b5060408301516120b86040860182611e6a565b50606083015184820360608601526120d08282611ed0565b91505060808301516120e56080860182611e6a565b5060a08301516120f860a0860182611e6a565b508091505092915050565b60006101008301600083015161211c6000860182611e6a565b50602083015161212f6020860182611e6a565b5060408301516121426040860182611e6a565b5060608301516121556060860182611e6a565b5060808301516121686080860182611e6a565b5060a083015161217b60a086018261205c565b5060c083015161218e60c086018261206b565b5060e083015184820360e08601526121a6828261207a565b9150508091505092915050565b600060208201905081810360008301526121cd8184612103565b905092915050565b600080fd5b7f4e487b7100000000000000000000000000000000000000000000000000000000600052604160045260246000fd5b61221282611ebf565b810181811067ffffffffffffffff82111715612231576122306121da565b5b80604052505050565b6000612244611cc9565b90506122508282612209565b919050565b600080fd5b61226381611e01565b811461226e57600080fd5b50565b6000813590506122808161225a565b92915050565b6004811061229357600080fd5b50565b6000813590506122a581612286565b92915050565b600080fd5b600080fd5b600067ffffffffffffffff8211156122d0576122cf6121da565b5b6122d982611ebf565b9050602081019050919050565b82818337600083830152505050565b6000612308612303846122b5565b61223a565b905082815260208101848484011115612324576123236122b0565b5b61232f8482856122e6565b509392505050565b600082601f83011261234c5761234b6122ab565b5b813561235c8482602086016122f5565b91505092915050565b600060c0828403121561237b5761237a6121d5565b5b61238560c061223a565b9050600061239584828501612271565b60008301525060206123a984828501612296565b60208301525060406123bd84828501611cfe565b604083015250606082013567ffffffffffffffff8111156123e1576123e0612255565b5b6123ed84828501612337565b606083015250608061240184828501611cfe565b60808301525060a061241584828501611cfe565b60a08301525092915050565b60006020828403121561243757612436611cd3565b5b600082013567ffffffffffffffff81111561245557612454611cd8565b5b61246184828501612365565b91505092915050565b6000819050919050565b600061248f61248a61248584611de1565b61246a565b611de1565b9050919050565b60006124a182612474565b9050919050565b60006124b382612496565b9050919050565b6124c3816124a8565b82525050565b60006020820190506124de60008301846124ba565b92915050565b600080604083850312156124fb576124fa611cd3565b5b600061250985828601611cfe565b925050602061251a85828601612271565b9150509250929050565b60006060820190506125396000830186611dd2565b6125466020830185611dd2565b6125536040830184611d40565b949350505050565b61256481611dc6565b811461256f57600080fd5b50565b6000813590506125818161255b565b92915050565b6000806040838503121561259e5761259d611cd3565b5b60006125ac85828601611cfe565b92505060206125bd85828601612572565b9150509250929050565b600081519050919050565b600082825260208201905092915050565b6000819050602082019050919050565b60006101008301600083015161260c6000860182611e6a565b50602083015161261f6020860182611e6a565b5060408301516126326040860182611e6a565b5060608301516126456060860182611e6a565b5060808301516126586080860182611e6a565b5060a083015161266b60a086018261205c565b5060c083015161267e60c086018261206b565b5060e083015184820360e0860152612696828261207a565b9150508091505092915050565b60006126af83836125f3565b905092915050565b6000602082019050919050565b60006126cf826125c7565b6126d981856125d2565b9350836020820285016126eb856125e3565b8060005b85811015612727578484038952815161270885826126a3565b9450612713836126b7565b925060208a019950506001810190506126ef565b50829750879550505050505092915050565b6000602082019050818103600083015261275381846126c4565b905092915050565b60006020828403121561277157612770611cd3565b5b600061277f84828501612271565b91505092915050565b600061279382612496565b9050919050565b6127a381612788565b82525050565b60006020820190506127be600083018461279a565b92915050565b60006127cf82612496565b9050919050565b6127df816127c4565b82525050565b60006020820190506127fa60008301846127d6565b92915050565b7f4e487b7100000000000000000000000000000000000000000000000000000000600052602260045260246000fd5b6000600282049050600182168061284757607f821691505b60208210810361285a57612859612800565b5b50919050565b600082825260208201905092915050565b7f50726f706f73616c206e6f742070656e64696e67000000000000000000000000600082015250565b60006128a7601483612860565b91506128b282612871565b602082019050919050565b600060208201905081810360008301526128d68161289a565b9050919050565b7f566f74696e6720706572696f64206973207374696c6c20616374697665000000600082015250565b6000612913601d83612860565b915061291e826128dd565b602082019050919050565b6000602082019050818103600083015261294281612906565b9050919050565b7f50726f706f73616c20616c726561647920657865637574656400000000000000600082015250565b600061297f601983612860565b915061298a82612949565b602082019050919050565b600060208201905081810360008301526129ae81612972565b9050919050565b60006060820190506129ca6000830186612032565b6129d76020830185611d40565b6129e46040830184611d40565b949350505050565b6000602082019050612a016000830184611dd2565b92915050565b600081519050612a168161255b565b92915050565b600060208284031215612a3257612a31611cd3565b5b6000612a4084828501612a07565b91505092915050565b7f506f6f6c20646f6573206e6f7420657869737400000000000000000000000000600082015250565b6000612a7f601383612860565b9150612a8a82612a49565b602082019050919050565b60006020820190508181036000830152612aae81612a72565b9050919050565b7f436c61696d20616d6f756e74206d75737420626520677265617465722074686160008201527f6e20300000000000000000000000000000000000000000000000000000000000602082015250565b6000612b11602383612860565b9150612b1c82612ab5565b604082019050919050565b60006020820190508181036000830152612b4081612b04565b9050919050565b7f4e487b7100000000000000000000000000000000000000000000000000000000600052601160045260246000fd5b6000612b8182611cdd565b91507fffffffffffffffffffffffffffffffffffffffffffffffffffffffffffffffff8203612bb357612bb2612b47565b5b600182019050919050565b60008190508160005260206000209050919050565b60006020601f8301049050919050565b600082821b905092915050565b600060088302612c207fffffffffffffffffffffffffffffffffffffffffffffffffffffffffffffffff82612be3565b612c2a8683612be3565b95508019841693508086168417925050509392505050565b6000612c5d612c58612c5384611cdd565b61246a565b611cdd565b9050919050565b6000819050919050565b612c7783612c42565b612c8b612c8382612c64565b848454612bf0565b825550505050565b600090565b612ca0612c93565b612cab818484612c6e565b505050565b5b81811015612ccf57612cc4600082612c98565b600181019050612cb1565b5050565b601f821115612d1457612ce581612bbe565b612cee84612bd3565b81016020851015612cfd578190505b612d11612d0985612bd3565b830182612cb0565b50505b505050565b600082821c905092915050565b6000612d3760001984600802612d19565b1980831691505092915050565b6000612d508383612d26565b9150826002028217905092915050565b612d6982611e79565b67ffffffffffffffff811115612d8257612d816121da565b5b612d8c825461282f565b612d97828285612cd3565b600060209050601f831160018114612dca5760008415612db8578287015190505b612dc28582612d44565b865550612e2a565b601f198416612dd886612bbe565b60005b82811015612e0057848901518255600182019150602085019450602081019050612ddb565b86831015612e1d5784890151612e19601f891682612d26565b8355505b6001600288020188555050505b505050505050565b6000612e3d82611e79565b612e478185612860565b9350612e57818560208601611e95565b612e6081611ebf565b840191505092915050565b612e7481611e49565b82525050565b60006080820190508181036000830152612e948187612e32565b9050612ea36020830186612e6b565b612eb06040830185611d40565b612ebd6060830184611db7565b95945050505050565b7f566f74696e67206475726174696f6e206d75737420626520677265617465722060008201527f7468616e20300000000000000000000000000000000000000000000000000000602082015250565b6000612f22602683612860565b9150612f2d82612ec6565b604082019050919050565b60006020820190508181036000830152612f5181612f15565b9050919050565b7f416c726561647920766f74656400000000000000000000000000000000000000600082015250565b6000612f8e600d83612860565b9150612f9982612f58565b602082019050919050565b60006020820190508181036000830152612fbd81612f81565b9050919050565b7f50726f706f73616c20646f6573206e6f74206578697374000000000000000000600082015250565b6000612ffa601783612860565b915061300582612fc4565b602082019050919050565b6000602082019050818103600083015261302981612fed565b9050919050565b600061303b82611cdd565b915061304683611cdd565b925082820190508082111561305e5761305d612b47565b5b92915050565b7f566f74696e6720706572696f642068617320656e646564000000000000000000600082015250565b600061309a601783612860565b91506130a582613064565b602082019050919050565b600060208201905081810360008301526130c98161308d565b9050919050565b6000815190506130df81611ce7565b92915050565b6000602082840312156130fb576130fa611cd3565b5b6000613109848285016130d0565b91505092915050565b7f4e6f20766f74696e672077656967687400000000000000000000000000000000600082015250565b6000613148601083612860565b915061315382613112565b602082019050919050565b600060208201905081810360008301526131778161313b565b9050919050565b60006040820190506131936000830185611dd2565b6131a06020830184611d40565b9392505050565b7f4e487b7100000000000000000000000000000000000000000000000000000000600052603260045260246000fd5b7f476f7665726e616e636520616c72656164792073657400000000000000000000600082015250565b600061320c601683612860565b9150613217826131d6565b602082019050919050565b6000602082019050818103600083015261323b816131ff565b9050919050565b7f476f7665726e616e636520616464726573732063616e6e6f74206265207a657260008201527f6f00000000000000000000000000000000000000000000000000000000000000602082015250565b600061329e602183612860565b91506132a982613242565b604082019050919050565b600060208201905081810360008301526132cd81613291565b9050919050565b7f4e6f74207468652076616c69642070726f706f73657200000000000000000000600082015250565b600061330a601683612860565b9150613315826132d4565b602082019050919050565b60006020820190508181036000830152613339816132fd565b905091905056fea26469706673582212202df9601aa59b2d55acff731d161d800fb061a9c0ef4774e90de278641889c37164736f6c63430008180033",
  "linkReferences": {},
  "deployedLinkReferences": {}
}