{
  "_format": "hh-sol-artifact-1",
  "contractName": "Governance",
  "sourceName": "contracts/Gov.sol",
  "abi": [
    {
      "inputs": [
        {
          "internalType": "address",
          "name": "_governanceToken",
          "type": "address"
        },
        {
          "internalType": "address",
          "name": "_insurancePool",
          "type": "address"
        },
        {
          "internalType": "uint256",
          "name": "_votingDuration",
          "type": "uint256"
        },
        {
          "internalType": "address",
          "name": "_initialOwner",
          "type": "address"
        }
      ],
      "stateMutability": "nonpayable",
      "type": "constructor"
    },
    {
      "inputs": [
        {
          "internalType": "address",
          "name": "owner",
          "type": "address"
        }
      ],
      "name": "OwnableInvalidOwner",
      "type": "error"
    },
    {
      "inputs": [
        {
          "internalType": "address",
          "name": "account",
          "type": "address"
        }
      ],
      "name": "OwnableUnauthorizedAccount",
      "type": "error"
    },
    {
      "inputs": [],
      "name": "ReentrancyGuardReentrantCall",
      "type": "error"
    },
    {
      "anonymous": false,
      "inputs": [
        {
          "indexed": true,
          "internalType": "address",
          "name": "previousOwner",
          "type": "address"
        },
        {
          "indexed": true,
          "internalType": "address",
          "name": "newOwner",
          "type": "address"
        }
      ],
      "name": "OwnershipTransferred",
      "type": "event"
    },
    {
      "anonymous": false,
      "inputs": [
        {
          "indexed": true,
          "internalType": "uint256",
          "name": "proposalId",
          "type": "uint256"
        },
        {
          "indexed": true,
          "internalType": "address",
          "name": "creator",
          "type": "address"
        },
        {
          "indexed": false,
          "internalType": "string",
          "name": "description",
          "type": "string"
        },
        {
          "indexed": false,
          "internalType": "enum CoverLib.RiskType",
          "name": "riskType",
          "type": "uint8"
        },
        {
          "indexed": false,
          "internalType": "uint256",
          "name": "claimAmount",
          "type": "uint256"
        },
        {
          "indexed": false,
          "internalType": "enum Governance.ProposalStaus",
          "name": "status",
          "type": "uint8"
        }
      ],
      "name": "ProposalCreated",
      "type": "event"
    },
    {
      "anonymous": false,
      "inputs": [
        {
          "indexed": true,
          "internalType": "uint256",
          "name": "proposalId",
          "type": "uint256"
        },
        {
          "indexed": false,
          "internalType": "bool",
          "name": "approved",
          "type": "bool"
        }
      ],
      "name": "ProposalExecuted",
      "type": "event"
    },
    {
      "anonymous": false,
      "inputs": [
        {
          "indexed": true,
          "internalType": "address",
          "name": "voter",
          "type": "address"
        },
        {
          "indexed": true,
          "internalType": "uint256",
          "name": "proposalId",
          "type": "uint256"
        },
        {
          "indexed": false,
          "internalType": "bool",
          "name": "vote",
          "type": "bool"
        },
        {
          "indexed": false,
          "internalType": "uint256",
          "name": "weight",
          "type": "uint256"
        }
      ],
      "name": "VoteCast",
      "type": "event"
    },
    {
      "inputs": [],
      "name": "coverContract",
      "outputs": [
        {
          "internalType": "contract ICover",
          "name": "",
          "type": "address"
        }
      ],
      "stateMutability": "view",
      "type": "function"
    },
    {
      "inputs": [
        {
          "components": [
            {
              "internalType": "address",
              "name": "user",
              "type": "address"
            },
            {
              "internalType": "enum CoverLib.RiskType",
              "name": "riskType",
              "type": "uint8"
            },
            {
              "internalType": "uint256",
              "name": "coverId",
              "type": "uint256"
            },
            {
              "internalType": "string",
              "name": "description",
              "type": "string"
            },
            {
              "internalType": "uint256",
              "name": "poolId",
              "type": "uint256"
            },
            {
              "internalType": "uint256",
              "name": "claimAmount",
              "type": "uint256"
            }
          ],
          "internalType": "struct Governance.ProposalParams",
          "name": "params",
          "type": "tuple"
        }
      ],
      "name": "createProposal",
      "outputs": [],
      "stateMutability": "nonpayable",
      "type": "function"
    },
    {
      "inputs": [
        {
          "internalType": "uint256",
          "name": "_proposalId",
          "type": "uint256"
        }
      ],
      "name": "executeProposal",
      "outputs": [],
      "stateMutability": "nonpayable",
      "type": "function"
    },
    {
      "inputs": [],
      "name": "getAllProposals",
      "outputs": [
        {
          "components": [
            {
              "internalType": "uint256",
              "name": "id",
              "type": "uint256"
            },
            {
              "internalType": "uint256",
              "name": "votesFor",
              "type": "uint256"
            },
            {
              "internalType": "uint256",
              "name": "votesAgainst",
              "type": "uint256"
            },
            {
              "internalType": "uint256",
              "name": "createdAt",
              "type": "uint256"
            },
            {
              "internalType": "uint256",
              "name": "deadline",
              "type": "uint256"
            },
            {
              "internalType": "enum Governance.ProposalStaus",
              "name": "status",
              "type": "uint8"
            },
            {
              "internalType": "bool",
              "name": "executed",
              "type": "bool"
            },
            {
              "components": [
                {
                  "internalType": "address",
                  "name": "user",
                  "type": "address"
                },
                {
                  "internalType": "enum CoverLib.RiskType",
                  "name": "riskType",
                  "type": "uint8"
                },
                {
                  "internalType": "uint256",
                  "name": "coverId",
                  "type": "uint256"
                },
                {
                  "internalType": "string",
                  "name": "description",
                  "type": "string"
                },
                {
                  "internalType": "uint256",
                  "name": "poolId",
                  "type": "uint256"
                },
                {
                  "internalType": "uint256",
                  "name": "claimAmount",
                  "type": "uint256"
                }
              ],
              "internalType": "struct Governance.ProposalParams",
              "name": "proposalParam",
              "type": "tuple"
            }
          ],
          "internalType": "struct Governance.Proposal[]",
          "name": "",
          "type": "tuple[]"
        }
      ],
      "stateMutability": "view",
      "type": "function"
    },
    {
      "inputs": [
        {
          "internalType": "uint256",
          "name": "_proposalId",
          "type": "uint256"
        }
      ],
      "name": "getProposalDetails",
      "outputs": [
        {
          "components": [
            {
              "internalType": "uint256",
              "name": "id",
              "type": "uint256"
            },
            {
              "internalType": "uint256",
              "name": "votesFor",
              "type": "uint256"
            },
            {
              "internalType": "uint256",
              "name": "votesAgainst",
              "type": "uint256"
            },
            {
              "internalType": "uint256",
              "name": "createdAt",
              "type": "uint256"
            },
            {
              "internalType": "uint256",
              "name": "deadline",
              "type": "uint256"
            },
            {
              "internalType": "enum Governance.ProposalStaus",
              "name": "status",
              "type": "uint8"
            },
            {
              "internalType": "bool",
              "name": "executed",
              "type": "bool"
            },
            {
              "components": [
                {
                  "internalType": "address",
                  "name": "user",
                  "type": "address"
                },
                {
                  "internalType": "enum CoverLib.RiskType",
                  "name": "riskType",
                  "type": "uint8"
                },
                {
                  "internalType": "uint256",
                  "name": "coverId",
                  "type": "uint256"
                },
                {
                  "internalType": "string",
                  "name": "description",
                  "type": "string"
                },
                {
                  "internalType": "uint256",
                  "name": "poolId",
                  "type": "uint256"
                },
                {
                  "internalType": "uint256",
                  "name": "claimAmount",
                  "type": "uint256"
                }
              ],
              "internalType": "struct Governance.ProposalParams",
              "name": "proposalParam",
              "type": "tuple"
            }
          ],
          "internalType": "struct Governance.Proposal",
          "name": "",
          "type": "tuple"
        }
      ],
      "stateMutability": "view",
      "type": "function"
    },
    {
      "inputs": [],
      "name": "governanceToken",
      "outputs": [
        {
          "internalType": "contract IERC20",
          "name": "",
          "type": "address"
        }
      ],
      "stateMutability": "view",
      "type": "function"
    },
    {
      "inputs": [],
      "name": "lpContract",
      "outputs": [
        {
          "internalType": "contract ILP",
          "name": "",
          "type": "address"
        }
      ],
      "stateMutability": "view",
      "type": "function"
    },
    {
      "inputs": [],
      "name": "owner",
      "outputs": [
        {
          "internalType": "address",
          "name": "",
          "type": "address"
        }
      ],
      "stateMutability": "view",
      "type": "function"
    },
    {
      "inputs": [],
      "name": "proposalCounter",
      "outputs": [
        {
          "internalType": "uint256",
          "name": "",
          "type": "uint256"
        }
      ],
      "stateMutability": "view",
      "type": "function"
    },
    {
      "inputs": [
        {
          "internalType": "uint256",
          "name": "",
          "type": "uint256"
        }
      ],
      "name": "proposalIds",
      "outputs": [
        {
          "internalType": "uint256",
          "name": "",
          "type": "uint256"
        }
      ],
      "stateMutability": "view",
      "type": "function"
    },
    {
      "inputs": [
        {
          "internalType": "uint256",
          "name": "",
          "type": "uint256"
        }
      ],
      "name": "proposals",
      "outputs": [
        {
          "internalType": "uint256",
          "name": "id",
          "type": "uint256"
        },
        {
          "internalType": "uint256",
          "name": "votesFor",
          "type": "uint256"
        },
        {
          "internalType": "uint256",
          "name": "votesAgainst",
          "type": "uint256"
        },
        {
          "internalType": "uint256",
          "name": "createdAt",
          "type": "uint256"
        },
        {
          "internalType": "uint256",
          "name": "deadline",
          "type": "uint256"
        },
        {
          "internalType": "enum Governance.ProposalStaus",
          "name": "status",
          "type": "uint8"
        },
        {
          "internalType": "bool",
          "name": "executed",
          "type": "bool"
        },
        {
          "components": [
            {
              "internalType": "address",
              "name": "user",
              "type": "address"
            },
            {
              "internalType": "enum CoverLib.RiskType",
              "name": "riskType",
              "type": "uint8"
            },
            {
              "internalType": "uint256",
              "name": "coverId",
              "type": "uint256"
            },
            {
              "internalType": "string",
              "name": "description",
              "type": "string"
            },
            {
              "internalType": "uint256",
              "name": "poolId",
              "type": "uint256"
            },
            {
              "internalType": "uint256",
              "name": "claimAmount",
              "type": "uint256"
            }
          ],
          "internalType": "struct Governance.ProposalParams",
          "name": "proposalParam",
          "type": "tuple"
        }
      ],
      "stateMutability": "view",
      "type": "function"
    },
    {
      "inputs": [],
      "name": "renounceOwnership",
      "outputs": [],
      "stateMutability": "nonpayable",
      "type": "function"
    },
    {
      "inputs": [
        {
          "internalType": "address",
          "name": "_coverContract",
          "type": "address"
        }
      ],
      "name": "setCoverContract",
      "outputs": [],
      "stateMutability": "nonpayable",
      "type": "function"
    },
    {
      "inputs": [
        {
          "internalType": "uint256",
          "name": "_newDuration",
          "type": "uint256"
        }
      ],
      "name": "setVotingDuration",
      "outputs": [],
      "stateMutability": "nonpayable",
      "type": "function"
    },
    {
      "inputs": [
        {
          "internalType": "address",
          "name": "newOwner",
          "type": "address"
        }
      ],
      "name": "transferOwnership",
      "outputs": [],
      "stateMutability": "nonpayable",
      "type": "function"
    },
    {
      "inputs": [
        {
          "internalType": "uint256",
          "name": "_proposalId",
          "type": "uint256"
        },
        {
          "internalType": "bool",
          "name": "_vote",
          "type": "bool"
        }
      ],
      "name": "vote",
      "outputs": [],
      "stateMutability": "nonpayable",
      "type": "function"
    },
    {
      "inputs": [
        {
          "internalType": "uint256",
          "name": "",
          "type": "uint256"
        },
        {
          "internalType": "address",
          "name": "",
          "type": "address"
        }
      ],
      "name": "voters",
      "outputs": [
        {
          "internalType": "bool",
          "name": "voted",
          "type": "bool"
        },
        {
          "internalType": "bool",
          "name": "vote",
          "type": "bool"
        },
        {
          "internalType": "uint256",
          "name": "weight",
          "type": "uint256"
        }
      ],
      "stateMutability": "view",
      "type": "function"
    },
    {
      "inputs": [],
      "name": "votingDuration",
      "outputs": [
        {
          "internalType": "uint256",
          "name": "",
          "type": "uint256"
        }
      ],
      "stateMutability": "view",
      "type": "function"
    }
  ],
  "bytecode": "0x60806040523480156200001157600080fd5b50604051620034fd380380620034fd8339818101604052810190620000379190620002d5565b806001600081905550600073ffffffffffffffffffffffffffffffffffffffff168173ffffffffffffffffffffffffffffffffffffffff1603620000b55760006040517f1e4fbdf7000000000000000000000000000000000000000000000000000000008152600401620000ac919062000358565b60405180910390fd5b620000c6816200016a60201b60201c565b5083600760006101000a81548173ffffffffffffffffffffffffffffffffffffffff021916908373ffffffffffffffffffffffffffffffffffffffff16021790555082600860006101000a81548173ffffffffffffffffffffffffffffffffffffffff021916908373ffffffffffffffffffffffffffffffffffffffff16021790555062015180826200015a9190620003a4565b60038190555050505050620003ef565b6000600160009054906101000a900473ffffffffffffffffffffffffffffffffffffffff16905081600160006101000a81548173ffffffffffffffffffffffffffffffffffffffff021916908373ffffffffffffffffffffffffffffffffffffffff1602179055508173ffffffffffffffffffffffffffffffffffffffff168173ffffffffffffffffffffffffffffffffffffffff167f8be0079c531659141344cd1fd0a4f28419497f9722a3daafe3b4186f6b6457e060405160405180910390a35050565b600080fd5b600073ffffffffffffffffffffffffffffffffffffffff82169050919050565b6000620002628262000235565b9050919050565b620002748162000255565b81146200028057600080fd5b50565b600081519050620002948162000269565b92915050565b6000819050919050565b620002af816200029a565b8114620002bb57600080fd5b50565b600081519050620002cf81620002a4565b92915050565b60008060008060808587031215620002f257620002f162000230565b5b6000620003028782880162000283565b9450506020620003158782880162000283565b93505060406200032887828801620002be565b92505060606200033b8782880162000283565b91505092959194509250565b620003528162000255565b82525050565b60006020820190506200036f600083018462000347565b92915050565b7f4e487b7100000000000000000000000000000000000000000000000000000000600052601160045260246000fd5b6000620003b1826200029a565b9150620003be836200029a565b9250828202620003ce816200029a565b91508282048414831517620003e857620003e762000375565b5b5092915050565b6130fe80620003ff6000396000f3fe608060405234801561001057600080fd5b50600436106101165760003560e01c80638acee3cf116100a2578063c9d27afe11610071578063c9d27afe146102d8578063cceb68f5146102f4578063ee5424ab14610312578063f2fde38b1461032e578063f96dae0a1461034a57610116565b80638acee3cf1461023a5780638da5cb5b146102585780639b644a23146102765780639e319063146102a657610116565b8063248a75b7116100e9578063248a75b7146101aa5780633b4d01a7146101c8578063593a41c9146101f85780635bcfadb514610214578063715018a61461023057610116565b8063013cf08b1461011b5780630c0512e9146101525780630d61b51914610170578063132002fc1461018c575b600080fd5b61013560048036038101906101309190611b3c565b610368565b604051610149989796959493929190611dbb565b60405180910390f35b61015a610515565b6040516101679190611e40565b60405180910390f35b61018a60048036038101906101859190611b3c565b61051b565b005b61019461095f565b6040516101a19190611e40565b60405180910390f35b6101b2610965565b6040516101bf9190611eba565b60405180910390f35b6101e260048036038101906101dd9190611b3c565b61098b565b6040516101ef919061202c565b60405180910390f35b610212600480360381019061020d919061229a565b610b96565b005b61022e60048036038101906102299190611b3c565b610f1b565b005b610238610f70565b005b610242610f84565b60405161024f9190612304565b60405180910390f35b610260610faa565b60405161026d919061232e565b60405180910390f35b610290600480360381019061028b9190611b3c565b610fd4565b60405161029d9190611e40565b60405180910390f35b6102c060048036038101906102bb9190612349565b610ff8565b6040516102cf93929190612389565b60405180910390f35b6102f260048036038101906102ed91906123ec565b611049565b005b6102fc6113fe565b604051610309919061259e565b60405180910390f35b61032c600480360381019061032791906125c0565b6116ba565b005b610348600480360381019061034391906125c0565b6117e4565b005b61035261186a565b60405161035f919061260e565b60405180910390f35b60046020528060005260406000206000915090508060000154908060010154908060020154908060030154908060040154908060050160009054906101000a900460ff16908060050160019054906101000a900460ff1690806006016040518060c00160405290816000820160009054906101000a900473ffffffffffffffffffffffffffffffffffffffff1673ffffffffffffffffffffffffffffffffffffffff1673ffffffffffffffffffffffffffffffffffffffff1681526020016000820160149054906101000a900460ff16600381111561044a57610449611b78565b5b600381111561045c5761045b611b78565b5b81526020016001820154815260200160028201805461047a90612658565b80601f01602080910402602001604051908101604052809291908181526020018280546104a690612658565b80156104f35780601f106104c8576101008083540402835291602001916104f3565b820191906000526020600020905b8154815290600101906020018083116104d657829003601f168201915b5050505050815260200160038201548152602001600482015481525050905088565b60025481565b610523611890565b61052b611917565b600060046000838152602001908152602001600020905080600401544211610588576040517f08c379a000000000000000000000000000000000000000000000000000000000815260040161057f906126e6565b60405180910390fd5b8060050160019054906101000a900460ff16156105da576040517f08c379a00000000000000000000000000000000000000000000000000000000081526004016105d190612752565b60405180910390fd5b60018160050160016101000a81548160ff02191690831515021790555080600201548160010154111561089c57600860009054906101000a900473ffffffffffffffffffffffffffffffffffffffff1673ffffffffffffffffffffffffffffffffffffffff166347fea81e826006016003015483600601600401548460060160000160009054906101000a900473ffffffffffffffffffffffffffffffffffffffff166040518463ffffffff1660e01b815260040161069b93929190612772565b602060405180830381865afa1580156106b8573d6000803e3d6000fd5b505050506040513d601f19601f820116820180604052508101906106dc91906127be565b61071b576040517f08c379a000000000000000000000000000000000000000000000000000000000815260040161071290612837565b60405180910390fd5b6001600381111561072f5761072e611b78565b5b8160050160009054906101000a900460ff16600381111561075357610752611b78565b5b036107985760026004600084815260200190815260200160002060050160006101000a81548160ff0219169083600381111561079257610791611b78565b5b02179055505b600960009054906101000a900473ffffffffffffffffffffffffffffffffffffffff1673ffffffffffffffffffffffffffffffffffffffff16637ceb4a698260060160000160009054906101000a900473ffffffffffffffffffffffffffffffffffffffff16836006016001015484600601600401546040518463ffffffff1660e01b815260040161082c93929190612857565b600060405180830381600087803b15801561084657600080fd5b505af115801561085a573d6000803e3d6000fd5b50505050817f948f4a9cd986f1118c3fbd459f7a22b23c0693e1ca3ef06a6a8be5aa7d39cc03600160405161088f919061288e565b60405180910390a2610953565b600160038111156108b0576108af611b78565b5b8160050160009054906101000a900460ff1660038111156108d4576108d3611b78565b5b036109195760036004600084815260200190815260200160002060050160006101000a81548160ff0219169083600381111561091357610912611b78565b5b02179055505b817f948f4a9cd986f1118c3fbd459f7a22b23c0693e1ca3ef06a6a8be5aa7d39cc03600060405161094a919061288e565b60405180910390a25b5061095c61195d565b50565b60035481565b600960009054906101000a900473ffffffffffffffffffffffffffffffffffffffff1681565b610993611a35565b600460008381526020019081526020016000206040518061010001604052908160008201548152602001600182015481526020016002820154815260200160038201548152602001600482015481526020016005820160009054906101000a900460ff166003811115610a0957610a08611b78565b5b6003811115610a1b57610a1a611b78565b5b81526020016005820160019054906101000a900460ff16151515158152602001600682016040518060c00160405290816000820160009054906101000a900473ffffffffffffffffffffffffffffffffffffffff1673ffffffffffffffffffffffffffffffffffffffff1673ffffffffffffffffffffffffffffffffffffffff1681526020016000820160149054906101000a900460ff166003811115610ac557610ac4611b78565b5b6003811115610ad757610ad6611b78565b5b815260200160018201548152602001600282018054610af590612658565b80601f0160208091040260200160405190810160405280929190818152602001828054610b2190612658565b8015610b6e5780601f10610b4357610100808354040283529160200191610b6e565b820191906000526020600020905b815481529060010190602001808311610b5157829003601f168201915b5050505050815260200160038201548152602001600482015481525050815250509050919050565b600860009054906101000a900473ffffffffffffffffffffffffffffffffffffffff1673ffffffffffffffffffffffffffffffffffffffff166325f11e8d82608001516040518263ffffffff1660e01b8152600401610bf59190611e40565b602060405180830381865afa158015610c12573d6000803e3d6000fd5b505050506040513d601f19601f82011682018060405250810190610c3691906127be565b610c75576040517f08c379a0000000000000000000000000000000000000000000000000000000008152600401610c6c906128f5565b60405180910390fd5b60008160a0015111610cbc576040517f08c379a0000000000000000000000000000000000000000000000000000000008152600401610cb390612987565b60405180910390fd5b60026000815480929190610ccf906129d6565b91905055506040518061010001604052806002548152602001600081526020016000815260200142815260200160035442610d0a9190612a1e565b815260200160006003811115610d2357610d22611b78565b5b815260200160001515815260200182815250600460006002548152602001908152602001600020600082015181600001556020820151816001015560408201518160020155606082015181600301556080820151816004015560a08201518160050160006101000a81548160ff02191690836003811115610da757610da6611b78565b5b021790555060c08201518160050160016101000a81548160ff02191690831515021790555060e08201518160060160008201518160000160006101000a81548173ffffffffffffffffffffffffffffffffffffffff021916908373ffffffffffffffffffffffffffffffffffffffff16021790555060208201518160000160146101000a81548160ff02191690836003811115610e4757610e46611b78565b5b0217905550604082015181600101556060820151816002019081610e6b9190612bf4565b506080820151816003015560a08201518160040155505090505060066002549080600181540180825580915050600190039060005260206000200160009091909190915055806000015173ffffffffffffffffffffffffffffffffffffffff166002547f46b0c19f3bb130a0d6b56daca2a88a6b26094fb630786130084dc69e99692295836060015184602001518560a001516000604051610f109493929190612d0e565b60405180910390a350565b610f23611890565b60008111610f66576040517f08c379a0000000000000000000000000000000000000000000000000000000008152600401610f5d90612dcc565b60405180910390fd5b8060038190555050565b610f78611890565b610f826000611967565b565b600860009054906101000a900473ffffffffffffffffffffffffffffffffffffffff1681565b6000600160009054906101000a900473ffffffffffffffffffffffffffffffffffffffff16905090565b60068181548110610fe457600080fd5b906000526020600020016000915090505481565b6005602052816000526040600020602052806000526040600020600091509150508060000160009054906101000a900460ff16908060000160019054906101000a900460ff16908060010154905083565b600060046000848152602001908152602001600020905080600401544211156110a7576040517f08c379a000000000000000000000000000000000000000000000000000000000815260040161109e90612e38565b60405180910390fd5b6005600084815260200190815260200160002060003373ffffffffffffffffffffffffffffffffffffffff1673ffffffffffffffffffffffffffffffffffffffff16815260200190815260200160002060000160009054906101000a900460ff1615611148576040517f08c379a000000000000000000000000000000000000000000000000000000000815260040161113f90612ea4565b60405180910390fd5b6000600760009054906101000a900473ffffffffffffffffffffffffffffffffffffffff1673ffffffffffffffffffffffffffffffffffffffff166370a08231336040518263ffffffff1660e01b81526004016111a5919061232e565b602060405180830381865afa1580156111c2573d6000803e3d6000fd5b505050506040513d601f19601f820116820180604052508101906111e69190612ed9565b90506000811161122b576040517f08c379a000000000000000000000000000000000000000000000000000000000815260040161122290612f52565b60405180910390fd5b6000600381111561123f5761123e611b78565b5b8260050160009054906101000a900460ff16600381111561126357611262611b78565b5b036112a85760016004600086815260200190815260200160002060050160006101000a81548160ff021916908360038111156112a2576112a1611b78565b5b02179055505b60405180606001604052806001151581526020018415158152602001828152506005600086815260200190815260200160002060003373ffffffffffffffffffffffffffffffffffffffff1673ffffffffffffffffffffffffffffffffffffffff16815260200190815260200160002060008201518160000160006101000a81548160ff02191690831515021790555060208201518160000160016101000a81548160ff02191690831515021790555060408201518160010155905050821561138b578082600101600082825461137f9190612a1e565b925050819055506113a7565b8082600201600082825461139f9190612a1e565b925050819055505b833373ffffffffffffffffffffffffffffffffffffffff167f877856338e13f63d0c36822ff0ef736b80934cd90574a3a5bc9262c39d217c4685846040516113f0929190612f72565b60405180910390a350505050565b6060600060068054905067ffffffffffffffff81111561142157611420612053565b5b60405190808252806020026020018201604052801561145a57816020015b611447611a35565b81526020019060019003908161143f5790505b50905060005b6006805490508110156116b257600460006006838154811061148557611484612f9b565b5b906000526020600020015481526020019081526020016000206040518061010001604052908160008201548152602001600182015481526020016002820154815260200160038201548152602001600482015481526020016005820160009054906101000a900460ff16600381111561150157611500611b78565b5b600381111561151357611512611b78565b5b81526020016005820160019054906101000a900460ff16151515158152602001600682016040518060c00160405290816000820160009054906101000a900473ffffffffffffffffffffffffffffffffffffffff1673ffffffffffffffffffffffffffffffffffffffff1673ffffffffffffffffffffffffffffffffffffffff1681526020016000820160149054906101000a900460ff1660038111156115bd576115bc611b78565b5b60038111156115cf576115ce611b78565b5b8152602001600182015481526020016002820180546115ed90612658565b80601f016020809104026020016040519081016040528092919081815260200182805461161990612658565b80156116665780601f1061163b57610100808354040283529160200191611666565b820191906000526020600020905b81548152906001019060200180831161164957829003601f168201915b50505050508152602001600382015481526020016004820154815250508152505082828151811061169a57611699612f9b565b5b60200260200101819052508080600101915050611460565b508091505090565b6116c2611890565b600073ffffffffffffffffffffffffffffffffffffffff168173ffffffffffffffffffffffffffffffffffffffff1614611731576040517f08c379a000000000000000000000000000000000000000000000000000000000815260040161172890613016565b60405180910390fd5b600073ffffffffffffffffffffffffffffffffffffffff168173ffffffffffffffffffffffffffffffffffffffff16036117a0576040517f08c379a0000000000000000000000000000000000000000000000000000000008152600401611797906130a8565b60405180910390fd5b80600960006101000a81548173ffffffffffffffffffffffffffffffffffffffff021916908373ffffffffffffffffffffffffffffffffffffffff16021790555050565b6117ec611890565b600073ffffffffffffffffffffffffffffffffffffffff168173ffffffffffffffffffffffffffffffffffffffff160361185e5760006040517f1e4fbdf7000000000000000000000000000000000000000000000000000000008152600401611855919061232e565b60405180910390fd5b61186781611967565b50565b600760009054906101000a900473ffffffffffffffffffffffffffffffffffffffff1681565b611898611a2d565b73ffffffffffffffffffffffffffffffffffffffff166118b6610faa565b73ffffffffffffffffffffffffffffffffffffffff1614611915576118d9611a2d565b6040517f118cdaa700000000000000000000000000000000000000000000000000000000815260040161190c919061232e565b60405180910390fd5b565b600260005403611953576040517f3ee5aeb500000000000000000000000000000000000000000000000000000000815260040160405180910390fd5b6002600081905550565b6001600081905550565b6000600160009054906101000a900473ffffffffffffffffffffffffffffffffffffffff16905081600160006101000a81548173ffffffffffffffffffffffffffffffffffffffff021916908373ffffffffffffffffffffffffffffffffffffffff1602179055508173ffffffffffffffffffffffffffffffffffffffff168173ffffffffffffffffffffffffffffffffffffffff167f8be0079c531659141344cd1fd0a4f28419497f9722a3daafe3b4186f6b6457e060405160405180910390a35050565b600033905090565b604051806101000160405280600081526020016000815260200160008152602001600081526020016000815260200160006003811115611a7857611a77611b78565b5b8152602001600015158152602001611a8e611a94565b81525090565b6040518060c00160405280600073ffffffffffffffffffffffffffffffffffffffff16815260200160006003811115611ad057611acf611b78565b5b8152602001600081526020016060815260200160008152602001600081525090565b6000604051905090565b600080fd5b600080fd5b6000819050919050565b611b1981611b06565b8114611b2457600080fd5b50565b600081359050611b3681611b10565b92915050565b600060208284031215611b5257611b51611afc565b5b6000611b6084828501611b27565b91505092915050565b611b7281611b06565b82525050565b7f4e487b7100000000000000000000000000000000000000000000000000000000600052602160045260246000fd5b60048110611bb857611bb7611b78565b5b50565b6000819050611bc982611ba7565b919050565b6000611bd982611bbb565b9050919050565b611be981611bce565b82525050565b60008115159050919050565b611c0481611bef565b82525050565b600073ffffffffffffffffffffffffffffffffffffffff82169050919050565b6000611c3582611c0a565b9050919050565b611c4581611c2a565b82525050565b60048110611c5c57611c5b611b78565b5b50565b6000819050611c6d82611c4b565b919050565b6000611c7d82611c5f565b9050919050565b611c8d81611c72565b82525050565b611c9c81611b06565b82525050565b600081519050919050565b600082825260208201905092915050565b60005b83811015611cdc578082015181840152602081019050611cc1565b60008484015250505050565b6000601f19601f8301169050919050565b6000611d0482611ca2565b611d0e8185611cad565b9350611d1e818560208601611cbe565b611d2781611ce8565b840191505092915050565b600060c083016000830151611d4a6000860182611c3c565b506020830151611d5d6020860182611c84565b506040830151611d706040860182611c93565b5060608301518482036060860152611d888282611cf9565b9150506080830151611d9d6080860182611c93565b5060a0830151611db060a0860182611c93565b508091505092915050565b600061010082019050611dd1600083018b611b69565b611dde602083018a611b69565b611deb6040830189611b69565b611df86060830188611b69565b611e056080830187611b69565b611e1260a0830186611be0565b611e1f60c0830185611bfb565b81810360e0830152611e318184611d32565b90509998505050505050505050565b6000602082019050611e556000830184611b69565b92915050565b6000819050919050565b6000611e80611e7b611e7684611c0a565b611e5b565b611c0a565b9050919050565b6000611e9282611e65565b9050919050565b6000611ea482611e87565b9050919050565b611eb481611e99565b82525050565b6000602082019050611ecf6000830184611eab565b92915050565b611ede81611bce565b82525050565b611eed81611bef565b82525050565b600060c083016000830151611f0b6000860182611c3c565b506020830151611f1e6020860182611c84565b506040830151611f316040860182611c93565b5060608301518482036060860152611f498282611cf9565b9150506080830151611f5e6080860182611c93565b5060a0830151611f7160a0860182611c93565b508091505092915050565b600061010083016000830151611f956000860182611c93565b506020830151611fa86020860182611c93565b506040830151611fbb6040860182611c93565b506060830151611fce6060860182611c93565b506080830151611fe16080860182611c93565b5060a0830151611ff460a0860182611ed5565b5060c083015161200760c0860182611ee4565b5060e083015184820360e086015261201f8282611ef3565b9150508091505092915050565b600060208201905081810360008301526120468184611f7c565b905092915050565b600080fd5b7f4e487b7100000000000000000000000000000000000000000000000000000000600052604160045260246000fd5b61208b82611ce8565b810181811067ffffffffffffffff821117156120aa576120a9612053565b5b80604052505050565b60006120bd611af2565b90506120c98282612082565b919050565b600080fd5b6120dc81611c2a565b81146120e757600080fd5b50565b6000813590506120f9816120d3565b92915050565b6004811061210c57600080fd5b50565b60008135905061211e816120ff565b92915050565b600080fd5b600080fd5b600067ffffffffffffffff82111561214957612148612053565b5b61215282611ce8565b9050602081019050919050565b82818337600083830152505050565b600061218161217c8461212e565b6120b3565b90508281526020810184848401111561219d5761219c612129565b5b6121a884828561215f565b509392505050565b600082601f8301126121c5576121c4612124565b5b81356121d584826020860161216e565b91505092915050565b600060c082840312156121f4576121f361204e565b5b6121fe60c06120b3565b9050600061220e848285016120ea565b60008301525060206122228482850161210f565b602083015250604061223684828501611b27565b604083015250606082013567ffffffffffffffff81111561225a576122596120ce565b5b612266848285016121b0565b606083015250608061227a84828501611b27565b60808301525060a061228e84828501611b27565b60a08301525092915050565b6000602082840312156122b0576122af611afc565b5b600082013567ffffffffffffffff8111156122ce576122cd611b01565b5b6122da848285016121de565b91505092915050565b60006122ee82611e87565b9050919050565b6122fe816122e3565b82525050565b600060208201905061231960008301846122f5565b92915050565b61232881611c2a565b82525050565b6000602082019050612343600083018461231f565b92915050565b600080604083850312156123605761235f611afc565b5b600061236e85828601611b27565b925050602061237f858286016120ea565b9150509250929050565b600060608201905061239e6000830186611bfb565b6123ab6020830185611bfb565b6123b86040830184611b69565b949350505050565b6123c981611bef565b81146123d457600080fd5b50565b6000813590506123e6816123c0565b92915050565b6000806040838503121561240357612402611afc565b5b600061241185828601611b27565b9250506020612422858286016123d7565b9150509250929050565b600081519050919050565b600082825260208201905092915050565b6000819050602082019050919050565b6000610100830160008301516124716000860182611c93565b5060208301516124846020860182611c93565b5060408301516124976040860182611c93565b5060608301516124aa6060860182611c93565b5060808301516124bd6080860182611c93565b5060a08301516124d060a0860182611ed5565b5060c08301516124e360c0860182611ee4565b5060e083015184820360e08601526124fb8282611ef3565b9150508091505092915050565b60006125148383612458565b905092915050565b6000602082019050919050565b60006125348261242c565b61253e8185612437565b93508360208202850161255085612448565b8060005b8581101561258c578484038952815161256d8582612508565b94506125788361251c565b925060208a01995050600181019050612554565b50829750879550505050505092915050565b600060208201905081810360008301526125b88184612529565b905092915050565b6000602082840312156125d6576125d5611afc565b5b60006125e4848285016120ea565b91505092915050565b60006125f882611e87565b9050919050565b612608816125ed565b82525050565b600060208201905061262360008301846125ff565b92915050565b7f4e487b7100000000000000000000000000000000000000000000000000000000600052602260045260246000fd5b6000600282049050600182168061267057607f821691505b60208210810361268357612682612629565b5b50919050565b600082825260208201905092915050565b7f566f74696e6720706572696f64206973207374696c6c20616374697665000000600082015250565b60006126d0601d83612689565b91506126db8261269a565b602082019050919050565b600060208201905081810360008301526126ff816126c3565b9050919050565b7f50726f706f73616c20616c726561647920657865637574656400000000000000600082015250565b600061273c601983612689565b915061274782612706565b602082019050919050565b6000602082019050818103600083015261276b8161272f565b9050919050565b60006060820190506127876000830186611b69565b6127946020830185611b69565b6127a1604083018461231f565b949350505050565b6000815190506127b8816123c0565b92915050565b6000602082840312156127d4576127d3611afc565b5b60006127e2848285016127a9565b91505092915050565b7f4572726f7220436c61696d696e67207061790000000000000000000000000000600082015250565b6000612821601283612689565b915061282c826127eb565b602082019050919050565b6000602082019050818103600083015261285081612814565b9050919050565b600060608201905061286c600083018661231f565b6128796020830185611b69565b6128866040830184611b69565b949350505050565b60006020820190506128a36000830184611bfb565b92915050565b7f506f6f6c20646f6573206e6f7420657869737400000000000000000000000000600082015250565b60006128df601383612689565b91506128ea826128a9565b602082019050919050565b6000602082019050818103600083015261290e816128d2565b9050919050565b7f436c61696d20616d6f756e74206d75737420626520677265617465722074686160008201527f6e20300000000000000000000000000000000000000000000000000000000000602082015250565b6000612971602383612689565b915061297c82612915565b604082019050919050565b600060208201905081810360008301526129a081612964565b9050919050565b7f4e487b7100000000000000000000000000000000000000000000000000000000600052601160045260246000fd5b60006129e182611b06565b91507fffffffffffffffffffffffffffffffffffffffffffffffffffffffffffffffff8203612a1357612a126129a7565b5b600182019050919050565b6000612a2982611b06565b9150612a3483611b06565b9250828201905080821115612a4c57612a4b6129a7565b5b92915050565b60008190508160005260206000209050919050565b60006020601f8301049050919050565b600082821b905092915050565b600060088302612ab47fffffffffffffffffffffffffffffffffffffffffffffffffffffffffffffffff82612a77565b612abe8683612a77565b95508019841693508086168417925050509392505050565b6000612af1612aec612ae784611b06565b611e5b565b611b06565b9050919050565b6000819050919050565b612b0b83612ad6565b612b1f612b1782612af8565b848454612a84565b825550505050565b600090565b612b34612b27565b612b3f818484612b02565b505050565b5b81811015612b6357612b58600082612b2c565b600181019050612b45565b5050565b601f821115612ba857612b7981612a52565b612b8284612a67565b81016020851015612b91578190505b612ba5612b9d85612a67565b830182612b44565b50505b505050565b600082821c905092915050565b6000612bcb60001984600802612bad565b1980831691505092915050565b6000612be48383612bba565b9150826002028217905092915050565b612bfd82611ca2565b67ffffffffffffffff811115612c1657612c15612053565b5b612c208254612658565b612c2b828285612b67565b600060209050601f831160018114612c5e5760008415612c4c578287015190505b612c568582612bd8565b865550612cbe565b601f198416612c6c86612a52565b60005b82811015612c9457848901518255600182019150602085019450602081019050612c6f565b86831015612cb15784890151612cad601f891682612bba565b8355505b6001600288020188555050505b505050505050565b6000612cd182611ca2565b612cdb8185612689565b9350612ceb818560208601611cbe565b612cf481611ce8565b840191505092915050565b612d0881611c72565b82525050565b60006080820190508181036000830152612d288187612cc6565b9050612d376020830186612cff565b612d446040830185611b69565b612d516060830184611be0565b95945050505050565b7f566f74696e67206475726174696f6e206d75737420626520677265617465722060008201527f7468616e20300000000000000000000000000000000000000000000000000000602082015250565b6000612db6602683612689565b9150612dc182612d5a565b604082019050919050565b60006020820190508181036000830152612de581612da9565b9050919050565b7f566f74696e6720706572696f642068617320656e646564000000000000000000600082015250565b6000612e22601783612689565b9150612e2d82612dec565b602082019050919050565b60006020820190508181036000830152612e5181612e15565b9050919050565b7f416c726561647920766f74656400000000000000000000000000000000000000600082015250565b6000612e8e600d83612689565b9150612e9982612e58565b602082019050919050565b60006020820190508181036000830152612ebd81612e81565b9050919050565b600081519050612ed381611b10565b92915050565b600060208284031215612eef57612eee611afc565b5b6000612efd84828501612ec4565b91505092915050565b7f4e6f20766f74696e672077656967687400000000000000000000000000000000600082015250565b6000612f3c601083612689565b9150612f4782612f06565b602082019050919050565b60006020820190508181036000830152612f6b81612f2f565b9050919050565b6000604082019050612f876000830185611bfb565b612f946020830184611b69565b9392505050565b7f4e487b7100000000000000000000000000000000000000000000000000000000600052603260045260246000fd5b7f476f7665726e616e636520616c72656164792073657400000000000000000000600082015250565b6000613000601683612689565b915061300b82612fca565b602082019050919050565b6000602082019050818103600083015261302f81612ff3565b9050919050565b7f476f7665726e616e636520616464726573732063616e6e6f74206265207a657260008201527f6f00000000000000000000000000000000000000000000000000000000000000602082015250565b6000613092602183612689565b915061309d82613036565b604082019050919050565b600060208201905081810360008301526130c181613085565b905091905056fea26469706673582212200488d81c0d446a5cd154dce3a50a416a75b7f354dba2036c54a079a20fd5e93c64736f6c63430008180033",
  "linkReferences": {},
  "deployedLinkReferences": {}
}