{
  "_format": "hh-sol-artifact-1",
  "contractName": "InsuranceCover",
  "sourceName": "contracts/InsuranceCover.sol",
  "abi": [
    {
      "inputs": [
        {
          "internalType": "address",
          "name": "_lpContract",
          "type": "address"
        },
        {
          "internalType": "address",
          "name": "_initialOwner",
          "type": "address"
        },
        {
          "internalType": "address",
          "name": "_governance",
          "type": "address"
        }
      ],
      "stateMutability": "nonpayable",
      "type": "constructor"
    },
    {
      "inputs": [],
      "name": "CoverNotAvailable",
      "type": "error"
    },
    {
      "inputs": [],
      "name": "InsufficientPoolBalance",
      "type": "error"
    },
    {
      "inputs": [],
      "name": "InvalidAmount",
      "type": "error"
    },
    {
      "inputs": [],
      "name": "InvalidCoverDuration",
      "type": "error"
    },
    {
      "inputs": [],
      "name": "LpNotActive",
      "type": "error"
    },
    {
      "inputs": [],
      "name": "NameAlreadyExists",
      "type": "error"
    },
    {
      "inputs": [],
      "name": "NoClaimableReward",
      "type": "error"
    },
    {
      "inputs": [
        {
          "internalType": "address",
          "name": "owner",
          "type": "address"
        }
      ],
      "name": "OwnableInvalidOwner",
      "type": "error"
    },
    {
      "inputs": [
        {
          "internalType": "address",
          "name": "account",
          "type": "address"
        }
      ],
      "name": "OwnableUnauthorizedAccount",
      "type": "error"
    },
    {
      "inputs": [],
      "name": "ReentrancyGuardReentrantCall",
      "type": "error"
    },
    {
      "inputs": [],
      "name": "UnsupportedCoverType",
      "type": "error"
    },
    {
      "inputs": [],
      "name": "WrongPool",
      "type": "error"
    },
    {
      "anonymous": false,
      "inputs": [
        {
          "indexed": false,
          "internalType": "string",
          "name": "name",
          "type": "string"
        },
        {
          "indexed": false,
          "internalType": "enum CoverLib.RiskType",
          "name": "riskType",
          "type": "uint8"
        }
      ],
      "name": "CoverCreated",
      "type": "event"
    },
    {
      "anonymous": false,
      "inputs": [
        {
          "indexed": true,
          "internalType": "address",
          "name": "user",
          "type": "address"
        },
        {
          "indexed": false,
          "internalType": "uint256",
          "name": "coverValue",
          "type": "uint256"
        },
        {
          "indexed": false,
          "internalType": "uint256",
          "name": "coverFee",
          "type": "uint256"
        },
        {
          "indexed": false,
          "internalType": "enum CoverLib.RiskType",
          "name": "riskType",
          "type": "uint8"
        }
      ],
      "name": "CoverPurchased",
      "type": "event"
    },
    {
      "anonymous": false,
      "inputs": [
        {
          "indexed": true,
          "internalType": "uint256",
          "name": "coverId",
          "type": "uint256"
        },
        {
          "indexed": false,
          "internalType": "string",
          "name": "coverName",
          "type": "string"
        },
        {
          "indexed": false,
          "internalType": "enum CoverLib.RiskType",
          "name": "riskType",
          "type": "uint8"
        }
      ],
      "name": "CoverUpdated",
      "type": "event"
    },
    {
      "anonymous": false,
      "inputs": [
        {
          "indexed": true,
          "internalType": "address",
          "name": "previousOwner",
          "type": "address"
        },
        {
          "indexed": true,
          "internalType": "address",
          "name": "newOwner",
          "type": "address"
        }
      ],
      "name": "OwnershipTransferred",
      "type": "event"
    },
    {
      "anonymous": false,
      "inputs": [
        {
          "indexed": true,
          "internalType": "address",
          "name": "user",
          "type": "address"
        },
        {
          "indexed": true,
          "internalType": "uint256",
          "name": "poolId",
          "type": "uint256"
        },
        {
          "indexed": false,
          "internalType": "uint256",
          "name": "amount",
          "type": "uint256"
        }
      ],
      "name": "PayoutClaimed",
      "type": "event"
    },
    {
      "inputs": [
        {
          "internalType": "address",
          "name": "",
          "type": "address"
        },
        {
          "internalType": "uint256",
          "name": "",
          "type": "uint256"
        }
      ],
      "name": "NextLpClaimTime",
      "outputs": [
        {
          "internalType": "uint256",
          "name": "",
          "type": "uint256"
        }
      ],
      "stateMutability": "view",
      "type": "function"
    },
    {
      "inputs": [
        {
          "internalType": "uint256",
          "name": "_poolId",
          "type": "uint256"
        }
      ],
      "name": "claimPayoutForLP",
      "outputs": [],
      "stateMutability": "nonpayable",
      "type": "function"
    },
    {
      "inputs": [],
      "name": "coverCount",
      "outputs": [
        {
          "internalType": "uint256",
          "name": "",
          "type": "uint256"
        }
      ],
      "stateMutability": "view",
      "type": "function"
    },
    {
      "inputs": [
        {
          "internalType": "uint256",
          "name": "",
          "type": "uint256"
        }
      ],
      "name": "coverExists",
      "outputs": [
        {
          "internalType": "bool",
          "name": "",
          "type": "bool"
        }
      ],
      "stateMutability": "view",
      "type": "function"
    },
    {
      "inputs": [],
      "name": "coverFeeBalance",
      "outputs": [
        {
          "internalType": "uint256",
          "name": "",
          "type": "uint256"
        }
      ],
      "stateMutability": "view",
      "type": "function"
    },
    {
      "inputs": [
        {
          "internalType": "uint256",
          "name": "",
          "type": "uint256"
        }
      ],
      "name": "covers",
      "outputs": [
        {
          "internalType": "uint256",
          "name": "id",
          "type": "uint256"
        },
        {
          "internalType": "string",
          "name": "coverName",
          "type": "string"
        },
        {
          "internalType": "enum CoverLib.RiskType",
          "name": "riskType",
          "type": "uint8"
        },
        {
          "internalType": "string",
          "name": "chains",
          "type": "string"
        },
        {
          "internalType": "uint256",
          "name": "capacity",
          "type": "uint256"
        },
        {
          "internalType": "uint256",
          "name": "cost",
          "type": "uint256"
        },
        {
          "internalType": "uint256",
          "name": "capacityAmount",
          "type": "uint256"
        },
        {
          "internalType": "uint256",
          "name": "coverValues",
          "type": "uint256"
        },
        {
          "internalType": "uint256",
          "name": "maxAmount",
          "type": "uint256"
        },
        {
          "internalType": "uint256",
          "name": "poolId",
          "type": "uint256"
        },
        {
          "internalType": "string",
          "name": "CID",
          "type": "string"
        }
      ],
      "stateMutability": "view",
      "type": "function"
    },
    {
      "inputs": [
        {
          "internalType": "string",
          "name": "_cid",
          "type": "string"
        },
        {
          "internalType": "enum CoverLib.RiskType",
          "name": "_riskType",
          "type": "uint8"
        },
        {
          "internalType": "string",
          "name": "_coverName",
          "type": "string"
        },
        {
          "internalType": "string",
          "name": "_chains",
          "type": "string"
        },
        {
          "internalType": "uint256",
          "name": "_capacity",
          "type": "uint256"
        },
        {
          "internalType": "uint256",
          "name": "_cost",
          "type": "uint256"
        },
        {
          "internalType": "uint256",
          "name": "_poolId",
          "type": "uint256"
        }
      ],
      "name": "createCover",
      "outputs": [],
      "stateMutability": "nonpayable",
      "type": "function"
    },
    {
      "inputs": [
        {
          "internalType": "address",
          "name": "_user",
          "type": "address"
        }
      ],
      "name": "deleteExpiredUserCovers",
      "outputs": [],
      "stateMutability": "nonpayable",
      "type": "function"
    },
    {
      "inputs": [],
      "name": "getAllAvailableCovers",
      "outputs": [
        {
          "components": [
            {
              "internalType": "uint256",
              "name": "id",
              "type": "uint256"
            },
            {
              "internalType": "string",
              "name": "coverName",
              "type": "string"
            },
            {
              "internalType": "enum CoverLib.RiskType",
              "name": "riskType",
              "type": "uint8"
            },
            {
              "internalType": "string",
              "name": "chains",
              "type": "string"
            },
            {
              "internalType": "uint256",
              "name": "capacity",
              "type": "uint256"
            },
            {
              "internalType": "uint256",
              "name": "cost",
              "type": "uint256"
            },
            {
              "internalType": "uint256",
              "name": "capacityAmount",
              "type": "uint256"
            },
            {
              "internalType": "uint256",
              "name": "coverValues",
              "type": "uint256"
            },
            {
              "internalType": "uint256",
              "name": "maxAmount",
              "type": "uint256"
            },
            {
              "internalType": "uint256",
              "name": "poolId",
              "type": "uint256"
            },
            {
              "internalType": "string",
              "name": "CID",
              "type": "string"
            }
          ],
          "internalType": "struct CoverLib.Cover[]",
          "name": "",
          "type": "tuple[]"
        }
      ],
      "stateMutability": "view",
      "type": "function"
    },
    {
      "inputs": [
        {
          "internalType": "address",
          "name": "user",
          "type": "address"
        }
      ],
      "name": "getAllUserCovers",
      "outputs": [
        {
          "components": [
            {
              "internalType": "address",
              "name": "user",
              "type": "address"
            },
            {
              "internalType": "uint256",
              "name": "coverId",
              "type": "uint256"
            },
            {
              "internalType": "enum CoverLib.RiskType",
              "name": "riskType",
              "type": "uint8"
            },
            {
              "internalType": "string",
              "name": "coverName",
              "type": "string"
            },
            {
              "internalType": "uint256",
              "name": "coverValue",
              "type": "uint256"
            },
            {
              "internalType": "uint256",
              "name": "claimPaid",
              "type": "uint256"
            },
            {
              "internalType": "uint256",
              "name": "coverPeriod",
              "type": "uint256"
            },
            {
              "internalType": "uint256",
              "name": "endDay",
              "type": "uint256"
            },
            {
              "internalType": "bool",
              "name": "isActive",
              "type": "bool"
            }
          ],
          "internalType": "struct CoverLib.GenericCoverInfo[]",
          "name": "",
          "type": "tuple[]"
        }
      ],
      "stateMutability": "view",
      "type": "function"
    },
    {
      "inputs": [],
      "name": "getCoverFeeBalance",
      "outputs": [
        {
          "internalType": "uint256",
          "name": "",
          "type": "uint256"
        }
      ],
      "stateMutability": "view",
      "type": "function"
    },
    {
      "inputs": [
        {
          "internalType": "address",
          "name": "user",
          "type": "address"
        },
        {
          "internalType": "uint256",
          "name": "_coverId",
          "type": "uint256"
        }
      ],
      "name": "getUserCoverInfo",
      "outputs": [
        {
          "components": [
            {
              "internalType": "address",
              "name": "user",
              "type": "address"
            },
            {
              "internalType": "uint256",
              "name": "coverId",
              "type": "uint256"
            },
            {
              "internalType": "enum CoverLib.RiskType",
              "name": "riskType",
              "type": "uint8"
            },
            {
              "internalType": "string",
              "name": "coverName",
              "type": "string"
            },
            {
              "internalType": "uint256",
              "name": "coverValue",
              "type": "uint256"
            },
            {
              "internalType": "uint256",
              "name": "claimPaid",
              "type": "uint256"
            },
            {
              "internalType": "uint256",
              "name": "coverPeriod",
              "type": "uint256"
            },
            {
              "internalType": "uint256",
              "name": "endDay",
              "type": "uint256"
            },
            {
              "internalType": "bool",
              "name": "isActive",
              "type": "bool"
            }
          ],
          "internalType": "struct CoverLib.GenericCoverInfo",
          "name": "",
          "type": "tuple"
        }
      ],
      "stateMutability": "view",
      "type": "function"
    },
    {
      "inputs": [],
      "name": "governance",
      "outputs": [
        {
          "internalType": "address",
          "name": "",
          "type": "address"
        }
      ],
      "stateMutability": "view",
      "type": "function"
    },
    {
      "inputs": [],
      "name": "lpAddress",
      "outputs": [
        {
          "internalType": "address",
          "name": "",
          "type": "address"
        }
      ],
      "stateMutability": "view",
      "type": "function"
    },
    {
      "inputs": [],
      "name": "lpContract",
      "outputs": [
        {
          "internalType": "contract ILP",
          "name": "",
          "type": "address"
        }
      ],
      "stateMutability": "view",
      "type": "function"
    },
    {
      "inputs": [],
      "name": "owner",
      "outputs": [
        {
          "internalType": "address",
          "name": "",
          "type": "address"
        }
      ],
      "stateMutability": "view",
      "type": "function"
    },
    {
      "inputs": [
        {
          "internalType": "uint256",
          "name": "_coverId",
          "type": "uint256"
        },
        {
          "internalType": "uint256",
          "name": "_coverValue",
          "type": "uint256"
        },
        {
          "internalType": "uint256",
          "name": "_coverPeriod",
          "type": "uint256"
        }
      ],
      "name": "purchaseCover",
      "outputs": [],
      "stateMutability": "payable",
      "type": "function"
    },
    {
      "inputs": [],
      "name": "renounceOwnership",
      "outputs": [],
      "stateMutability": "nonpayable",
      "type": "function"
    },
    {
      "inputs": [
        {
          "internalType": "address",
          "name": "newOwner",
          "type": "address"
        }
      ],
      "name": "transferOwnership",
      "outputs": [],
      "stateMutability": "nonpayable",
      "type": "function"
    },
    {
      "inputs": [
        {
          "internalType": "uint256",
          "name": "_coverId",
          "type": "uint256"
        },
        {
          "internalType": "string",
          "name": "_coverName",
          "type": "string"
        },
        {
          "internalType": "enum CoverLib.RiskType",
          "name": "_riskType",
          "type": "uint8"
        },
        {
          "internalType": "string",
          "name": "_cid",
          "type": "string"
        },
        {
          "internalType": "string",
          "name": "_chains",
          "type": "string"
        },
        {
          "internalType": "uint256",
          "name": "_capacity",
          "type": "uint256"
        },
        {
          "internalType": "uint256",
          "name": "_cost",
          "type": "uint256"
        },
        {
          "internalType": "uint256",
          "name": "_poolId",
          "type": "uint256"
        }
      ],
      "name": "updateCover",
      "outputs": [],
      "stateMutability": "nonpayable",
      "type": "function"
    },
    {
      "inputs": [
        {
          "internalType": "uint256",
          "name": "_coverId",
          "type": "uint256"
        }
      ],
      "name": "updateMaxAmount",
      "outputs": [],
      "stateMutability": "nonpayable",
      "type": "function"
    },
    {
      "inputs": [
        {
          "internalType": "address",
          "name": "user",
          "type": "address"
        },
        {
          "internalType": "uint256",
          "name": "_coverId",
          "type": "uint256"
        },
        {
          "internalType": "uint256",
          "name": "_claimPaid",
          "type": "uint256"
        }
      ],
      "name": "updateUserCoverValue",
      "outputs": [],
      "stateMutability": "nonpayable",
      "type": "function"
    },
    {
      "inputs": [
        {
          "internalType": "address",
          "name": "",
          "type": "address"
        },
        {
          "internalType": "uint256",
          "name": "",
          "type": "uint256"
        }
      ],
      "name": "userCovers",
      "outputs": [
        {
          "internalType": "address",
          "name": "user",
          "type": "address"
        },
        {
          "internalType": "uint256",
          "name": "coverId",
          "type": "uint256"
        },
        {
          "internalType": "enum CoverLib.RiskType",
          "name": "riskType",
          "type": "uint8"
        },
        {
          "internalType": "string",
          "name": "coverName",
          "type": "string"
        },
        {
          "internalType": "uint256",
          "name": "coverValue",
          "type": "uint256"
        },
        {
          "internalType": "uint256",
          "name": "claimPaid",
          "type": "uint256"
        },
        {
          "internalType": "uint256",
          "name": "coverPeriod",
          "type": "uint256"
        },
        {
          "internalType": "uint256",
          "name": "endDay",
          "type": "uint256"
        },
        {
          "internalType": "bool",
          "name": "isActive",
          "type": "bool"
        }
      ],
      "stateMutability": "view",
      "type": "function"
    }
  ],
  "bytecode": "0x60806040523480156200001157600080fd5b506040516200523b3803806200523b8339818101604052810190620000379190620002c3565b816001600081905550600073ffffffffffffffffffffffffffffffffffffffff168173ffffffffffffffffffffffffffffffffffffffff1603620000b55760006040517f1e4fbdf7000000000000000000000000000000000000000000000000000000008152600401620000ac919062000330565b60405180910390fd5b620000c6816200019360201b60201c565b5082600360006101000a81548173ffffffffffffffffffffffffffffffffffffffff021916908373ffffffffffffffffffffffffffffffffffffffff16021790555082600460006101000a81548173ffffffffffffffffffffffffffffffffffffffff021916908373ffffffffffffffffffffffffffffffffffffffff16021790555080600560006101000a81548173ffffffffffffffffffffffffffffffffffffffff021916908373ffffffffffffffffffffffffffffffffffffffff1602179055505050506200034d565b6000600160009054906101000a900473ffffffffffffffffffffffffffffffffffffffff16905081600160006101000a81548173ffffffffffffffffffffffffffffffffffffffff021916908373ffffffffffffffffffffffffffffffffffffffff1602179055508173ffffffffffffffffffffffffffffffffffffffff168173ffffffffffffffffffffffffffffffffffffffff167f8be0079c531659141344cd1fd0a4f28419497f9722a3daafe3b4186f6b6457e060405160405180910390a35050565b600080fd5b600073ffffffffffffffffffffffffffffffffffffffff82169050919050565b60006200028b826200025e565b9050919050565b6200029d816200027e565b8114620002a957600080fd5b50565b600081519050620002bd8162000292565b92915050565b600080600060608486031215620002df57620002de62000259565b5b6000620002ef86828701620002ac565b93505060206200030286828701620002ac565b92505060406200031586828701620002ac565b9150509250925092565b6200032a816200027e565b82525050565b60006020820190506200034760008301846200031f565b92915050565b614ede806200035d6000396000f3fe6080604052600436106101405760003560e01c80637ceb4a69116100b65780639e7b399e1161006f5780639e7b399e14610447578063be45dbb61461048c578063bfc664f3146104b5578063cadcb471146104de578063f2fde38b1461051b578063feb0b8f51461054457610140565b80637ceb4a69146103495780638acee3cf146103725780638da5cb5b1461039d5780638de4d101146103c857806393b1ad38146103f15780639b4dc8cc1461041c57610140565b8063609c760411610108578063609c7604146102095780636299df6c14610234578063649718b21461027b578063715018a6146102b8578063782ea619146102cf5780637a728e7f1461030c57610140565b8063051b1b8614610145578063106b5da1146101615780632d8a340c1461018a578063357917b7146101b35780635aa6e675146101de575b600080fd5b61015f600480360381019061015a9190613069565b61056f565b005b34801561016d57600080fd5b50610188600480360381019061018391906130bc565b610b32565b005b34801561019657600080fd5b506101b160048036038101906101ac91906130bc565b610ddb565b005b3480156101bf57600080fd5b506101c86111dc565b6040516101d591906130f8565b60405180910390f35b3480156101ea57600080fd5b506101f36111e2565b6040516102009190613154565b60405180910390f35b34801561021557600080fd5b5061021e611208565b60405161022b91906130f8565b60405180910390f35b34801561024057600080fd5b5061025b600480360381019061025691906130bc565b611212565b6040516102729b9a99989796959493929190613276565b60405180910390f35b34801561028757600080fd5b506102a2600480360381019061029d9190613362565b611411565b6040516102af91906135a8565b60405180910390f35b3480156102c457600080fd5b506102cd6116f4565b005b3480156102db57600080fd5b506102f660048036038101906102f191906130bc565b611708565b60405161030391906135d9565b60405180910390f35b34801561031857600080fd5b50610333600480360381019061032e91906135f4565b611728565b60405161034091906130f8565b60405180910390f35b34801561035557600080fd5b50610370600480360381019061036b9190613634565b61174d565b005b34801561037e57600080fd5b506103876118c6565b60405161039491906136e6565b60405180910390f35b3480156103a957600080fd5b506103b26118ec565b6040516103bf9190613154565b60405180910390f35b3480156103d457600080fd5b506103ef60048036038101906103ea919061385b565b611916565b005b3480156103fd57600080fd5b50610406611f07565b6040516104139190613b24565b60405180910390f35b34801561042857600080fd5b5061043161223c565b60405161043e9190613154565b60405180910390f35b34801561045357600080fd5b5061046e600480360381019061046991906135f4565b612262565b60405161048399989796959493929190613b46565b60405180910390f35b34801561049857600080fd5b506104b360048036038101906104ae9190613bda565b61237f565b005b3480156104c157600080fd5b506104dc60048036038101906104d79190613362565b612929565b005b3480156104ea57600080fd5b50610505600480360381019061050091906135f4565b612ad3565b6040516105129190613d95565b60405180910390f35b34801561052757600080fd5b50610542600480360381019061053d9190613362565b612caf565b005b34801561055057600080fd5b50610559612d35565b60405161056691906130f8565b60405180910390f35b610577612d3b565b600034116105b1576040517f2c5211c600000000000000000000000000000000000000000000000000000000815260040160405180910390fd5b601b811115806105c3575061016e8110155b156105fa576040517f3f132b1200000000000000000000000000000000000000000000000000000000815260040160405180910390fd5b6006600084815260200190815260200160002060009054906101000a900460ff16610651576040517fbccd404300000000000000000000000000000000000000000000000000000000815260040160405180910390fd5b600060096000858152602001908152602001600020905080600801548311156106a6576040517fbc6072f100000000000000000000000000000000000000000000000000000000815260040160405180910390fd5b60008382600701546106b89190613de6565b905081600601548111156106f8576040517fbc6072f100000000000000000000000000000000000000000000000000000000815260040160405180910390fd5b8082600701819055508082600601546107119190613e1a565b82600801819055508160070154826006015461072d9190613e1a565b82600801819055506000600860003373ffffffffffffffffffffffffffffffffffffffff1673ffffffffffffffffffffffffffffffffffffffff1681526020019081526020016000206000878152602001908152602001600020905060008160040154036109ef576040518061012001604052803373ffffffffffffffffffffffffffffffffffffffff1681526020018781526020018460020160009054906101000a900460ff1660038111156107e7576107e66131ff565b5b81526020018460010180546107fb90613e7d565b80601f016020809104026020016040519081016040528092919081815260200182805461082790613e7d565b80156108745780601f1061084957610100808354040283529160200191610874565b820191906000526020600020905b81548152906001019060200180831161085757829003601f168201915b505050505081526020018681526020016000815260200185815260200162015180866108a09190613eae565b426108ab9190613de6565b815260200160011515815250600860003373ffffffffffffffffffffffffffffffffffffffff1673ffffffffffffffffffffffffffffffffffffffff168152602001908152602001600020600088815260200190815260200160002060008201518160000160006101000a81548173ffffffffffffffffffffffffffffffffffffffff021916908373ffffffffffffffffffffffffffffffffffffffff1602179055506020820151816001015560408201518160020160006101000a81548160ff02191690836003811115610983576109826131ff565b5b0217905550606082015181600301908161099d9190614092565b506080820151816004015560a0820151816005015560c0820151816006015560e082015181600701556101008201518160080160006101000a81548160ff021916908315150217905550905050610aa6565b61016e848260060154610a029190613de6565b10610a42576040517f08c379a0000000000000000000000000000000000000000000000000000000008152600401610a39906141d6565b60405180910390fd5b84816004016000828254610a569190613de6565b9250508190555083816006016000828254610a719190613de6565b92505081905550620151808160060154610a8b9190613eae565b816007016000828254610a9e9190613de6565b925050819055505b3460026000828254610ab89190613de6565b925050819055503373ffffffffffffffffffffffffffffffffffffffff167f23b0f39e0762759ffb18632a1a2b79c9eb58571454e5f7c36e0a2f81759e0a3486348660020160009054906101000a900460ff16604051610b1a939291906141f6565b60405180910390a2505050610b2d612d81565b505050565b600460009054906101000a900473ffffffffffffffffffffffffffffffffffffffff1673ffffffffffffffffffffffffffffffffffffffff163373ffffffffffffffffffffffffffffffffffffffff1614610bc2576040517f08c379a0000000000000000000000000000000000000000000000000000000008152600401610bb990614279565b60405180910390fd5b610bca612d3b565b60006009600083815260200190815260200160002090506000600360009054906101000a900473ffffffffffffffffffffffffffffffffffffffff1673ffffffffffffffffffffffffffffffffffffffff1663068bcd8d83600901546040518263ffffffff1660e01b8152600401610c4291906130f8565b600060405180830381865afa158015610c5f573d6000803e3d6000fd5b505050506040513d6000823e3d601f19601f82011682018060405250810190610c88919061435f565b505094505050505060008111610cd3576040517f08c379a0000000000000000000000000000000000000000000000000000000008152600401610cca90614469565b60405180910390fd5b6000826004015411610d1a576040517f08c379a0000000000000000000000000000000000000000000000000000000008152600401610d11906144d5565b60405180910390fd5b6000670de0b6b3a76400006064670de0b6b3a76400008560040154610d3f9190613eae565b610d499190614524565b83610d549190613eae565b610d5e9190614524565b905080600960008681526020019081526020016000206006018190555060096000858152602001908152602001600020600701546009600086815260200190815260200160002060060154610db39190613e1a565b6009600086815260200190815260200160002060080181905550505050610dd8612d81565b50565b610de3612d3b565b6000600360009054906101000a900473ffffffffffffffffffffffffffffffffffffffff1673ffffffffffffffffffffffffffffffffffffffff16634e05524483336040518363ffffffff1660e01b8152600401610e42929190614555565b61010060405180830381865afa158015610e60573d6000803e3d6000fd5b505050506040513d601f19601f82011682018060405250810190610e84919061468c565b905060006001811115610e9a57610e996131ff565b5b81608001516001811115610eb157610eb06131ff565b5b14610ee8576040517fe067835f00000000000000000000000000000000000000000000000000000000815260040160405180910390fd5b600080600760003373ffffffffffffffffffffffffffffffffffffffff1673ffffffffffffffffffffffffffffffffffffffff16815260200190815260200160002060008581526020019081526020016000205403610f4d578160c001519050610fa1565b600760003373ffffffffffffffffffffffffffffffffffffffff1673ffffffffffffffffffffffffffffffffffffffff16815260200190815260200160002060008481526020019081526020016000205490505b60004290508260e00151811115610fba578260e0015190505b6000620151808383610fcc9190613e1a565b610fd69190614524565b905060008111611012576040517fed700a6700000000000000000000000000000000000000000000000000000000815260040160405180910390fd5b60008185606001516110249190613eae565b9050600254811115611062576040517fbc6072f100000000000000000000000000000000000000000000000000000000815260040160405180910390fd5b42600760003373ffffffffffffffffffffffffffffffffffffffff1673ffffffffffffffffffffffffffffffffffffffff16815260200190815260200160002060008881526020019081526020016000208190555060003373ffffffffffffffffffffffffffffffffffffffff16826040516110dd906146eb565b60006040518083038185875af1925050503d806000811461111a576040519150601f19603f3d011682016040523d82523d6000602084013e61111f565b606091505b5050905080611163576040517f08c379a000000000000000000000000000000000000000000000000000000000815260040161115a9061474c565b60405180910390fd5b81600260008282546111759190613e1a565b92505081905550863373ffffffffffffffffffffffffffffffffffffffff167f0408e6e0b73daf4c873106e95fd067260fbff8bf9d1b499cad563d4480d45bac846040516111c391906130f8565b60405180910390a35050505050506111d9612d81565b50565b60025481565b600560009054906101000a900473ffffffffffffffffffffffffffffffffffffffff1681565b6000600254905090565b600960205280600052604060002060009150905080600001549080600101805461123b90613e7d565b80601f016020809104026020016040519081016040528092919081815260200182805461126790613e7d565b80156112b45780601f10611289576101008083540402835291602001916112b4565b820191906000526020600020905b81548152906001019060200180831161129757829003601f168201915b5050505050908060020160009054906101000a900460ff16908060030180546112dc90613e7d565b80601f016020809104026020016040519081016040528092919081815260200182805461130890613e7d565b80156113555780601f1061132a57610100808354040283529160200191611355565b820191906000526020600020905b81548152906001019060200180831161133857829003601f168201915b50505050509080600401549080600501549080600601549080600701549080600801549080600901549080600a01805461138e90613e7d565b80601f01602080910402602001604051908101604052809291908181526020018280546113ba90613e7d565b80156114075780601f106113dc57610100808354040283529160200191611407565b820191906000526020600020905b8154815290600101906020018083116113ea57829003601f168201915b505050505090508b565b60606000600a5467ffffffffffffffff8111156114315761143061370b565b5b60405190808252806020026020018201604052801561146a57816020015b611457612ee0565b81526020019060019003908161144f5790505b509050600080600190505b600a5481116116e6576000600860008773ffffffffffffffffffffffffffffffffffffffff1673ffffffffffffffffffffffffffffffffffffffff16815260200190815260200160002060008381526020019081526020016000206004015411156116d357600860008673ffffffffffffffffffffffffffffffffffffffff1673ffffffffffffffffffffffffffffffffffffffff1681526020019081526020016000206000828152602001908152602001600020604051806101200160405290816000820160009054906101000a900473ffffffffffffffffffffffffffffffffffffffff1673ffffffffffffffffffffffffffffffffffffffff1673ffffffffffffffffffffffffffffffffffffffff168152602001600182015481526020016002820160009054906101000a900460ff1660038111156115bb576115ba6131ff565b5b60038111156115cd576115cc6131ff565b5b81526020016003820180546115e190613e7d565b80601f016020809104026020016040519081016040528092919081815260200182805461160d90613e7d565b801561165a5780601f1061162f5761010080835404028352916020019161165a565b820191906000526020600020905b81548152906001019060200180831161163d57829003601f168201915b50505050508152602001600482015481526020016005820154815260200160068201548152602001600782015481526020016008820160009054906101000a900460ff1615151515815250508383815181106116b9576116b861476c565b5b602002602001018190525081806116cf9061479b565b9250505b80806116de9061479b565b915050611475565b508082528192505050919050565b6116fc612d8b565b6117066000612e12565b565b60066020528060005260406000206000915054906101000a900460ff1681565b6007602052816000526040600020602052806000526040600020600091509150505481565b600560009054906101000a900473ffffffffffffffffffffffffffffffffffffffff1673ffffffffffffffffffffffffffffffffffffffff163373ffffffffffffffffffffffffffffffffffffffff16146117dd576040517f08c379a00000000000000000000000000000000000000000000000000000000081526004016117d490614279565b60405180910390fd5b6117e5612d3b565b80600860008573ffffffffffffffffffffffffffffffffffffffff1673ffffffffffffffffffffffffffffffffffffffff168152602001908152602001600020600084815260200190815260200160002060040160008282546118489190613e1a565b9250508190555080600860008573ffffffffffffffffffffffffffffffffffffffff1673ffffffffffffffffffffffffffffffffffffffff168152602001908152602001600020600084815260200190815260200160002060050160008282546118b29190613de6565b925050819055506118c1612d81565b505050565b600360009054906101000a900473ffffffffffffffffffffffffffffffffffffffff1681565b6000600160009054906101000a900473ffffffffffffffffffffffffffffffffffffffff16905090565b61191e612d8b565b6000806000600360009054906101000a900473ffffffffffffffffffffffffffffffffffffffff1673ffffffffffffffffffffffffffffffffffffffff1663068bcd8d856040518263ffffffff1660e01b815260040161197e91906130f8565b600060405180830381865afa15801561199b573d6000803e3d6000fd5b505050506040513d6000823e3d601f19601f820116820180604052508101906119c4919061435f565b965050955050509350508860038111156119e1576119e06131ff565b5b8360038111156119f4576119f36131ff565b5b141580611a0057508086115b15611a37576040517fd3c913ea00000000000000000000000000000000000000000000000000000000815260040160405180910390fd5b6000600960008d815260200190815260200160002090506000670de0b6b3a76400006064670de0b6b3a76400008a611a6f9190613eae565b611a799190614524565b85611a849190613eae565b611a8e9190614524565b90508082600701541115611ace576040517fd3c913ea00000000000000000000000000000000000000000000000000000000815260040160405180910390fd5b6000600360009054906101000a900473ffffffffffffffffffffffffffffffffffffffff1673ffffffffffffffffffffffffffffffffffffffff16637eb111f0886040518263ffffffff1660e01b8152600401611b2b91906130f8565b600060405180830381865afa158015611b48573d6000803e3d6000fd5b505050506040513d6000823e3d601f19601f82011682018060405250810190611b719190614a29565b905060005b8151811015611c5a578d604051602001611b909190614aae565b60405160208183030381529060405280519060200120828281518110611bb957611bb861476c565b5b602002602001015160200151604051602001611bd59190614aae565b60405160208183030381529060405280519060200120148015611c1657508e828281518110611c0757611c0661476c565b5b60200260200101516000015114155b15611c4d576040517fd202940c00000000000000000000000000000000000000000000000000000000815260040160405180910390fd5b8080600101915050611b76565b506000836004015490508d846001019081611c759190614092565b508a846003019081611c879190614092565b508984600401819055508884600501819055508b84600a019081611cab9190614092565b50828460060181905550878460090181905550836007015483611cce9190613e1a565b846008018190555089811115611d835760008a82611cec9190613e1a565b9050600360009054906101000a900473ffffffffffffffffffffffffffffffffffffffff1673ffffffffffffffffffffffffffffffffffffffff16639fd36b158a836040518363ffffffff1660e01b8152600401611d4b929190614ac5565b600060405180830381600087803b158015611d6557600080fd5b505af1158015611d79573d6000803e3d6000fd5b5050505050611e2d565b89811015611e2c576000818b611d999190613e1a565b9050600360009054906101000a900473ffffffffffffffffffffffffffffffffffffffff1673ffffffffffffffffffffffffffffffffffffffff1663a4948d858a836040518363ffffffff1660e01b8152600401611df8929190614ac5565b600060405180830381600087803b158015611e1257600080fd5b505af1158015611e26573d6000803e3d6000fd5b50505050505b5b600360009054906101000a900473ffffffffffffffffffffffffffffffffffffffff1673ffffffffffffffffffffffffffffffffffffffff1663a14764d089866040518363ffffffff1660e01b8152600401611e8a929190614d1b565b600060405180830381600087803b158015611ea457600080fd5b505af1158015611eb8573d6000803e3d6000fd5b505050508e7f758a67328ba53c1867c0272bbd2ca10d6fe71d37120188c523fe7ae7bdbbe4698f8f604051611eee929190614d4b565b60405180910390a2505050505050505050505050505050565b60606000600a5467ffffffffffffffff811115611f2757611f2661370b565b5b604051908082528060200260200182016040528015611f6057816020015b611f4d612f56565b815260200190600190039081611f455790505b509050600080600190505b600a548111612230576006600082815260200190815260200160002060009054906101000a900460ff161561221d57600960008281526020019081526020016000206040518061016001604052908160008201548152602001600182018054611fd390613e7d565b80601f0160208091040260200160405190810160405280929190818152602001828054611fff90613e7d565b801561204c5780601f106120215761010080835404028352916020019161204c565b820191906000526020600020905b81548152906001019060200180831161202f57829003601f168201915b505050505081526020016002820160009054906101000a900460ff16600381111561207a576120796131ff565b5b600381111561208c5761208b6131ff565b5b81526020016003820180546120a090613e7d565b80601f01602080910402602001604051908101604052809291908181526020018280546120cc90613e7d565b80156121195780601f106120ee57610100808354040283529160200191612119565b820191906000526020600020905b8154815290600101906020018083116120fc57829003601f168201915b50505050508152602001600482015481526020016005820154815260200160068201548152602001600782015481526020016008820154815260200160098201548152602001600a8201805461216e90613e7d565b80601f016020809104026020016040519081016040528092919081815260200182805461219a90613e7d565b80156121e75780601f106121bc576101008083540402835291602001916121e7565b820191906000526020600020905b8154815290600101906020018083116121ca57829003601f168201915b5050505050815250508383815181106122035761220261476c565b5b602002602001018190525081806122199061479b565b9250505b80806122289061479b565b915050611f6b565b50808252819250505090565b600460009054906101000a900473ffffffffffffffffffffffffffffffffffffffff1681565b6008602052816000526040600020602052806000526040600020600091509150508060000160009054906101000a900473ffffffffffffffffffffffffffffffffffffffff16908060010154908060020160009054906101000a900460ff16908060030180546122d190613e7d565b80601f01602080910402602001604051908101604052809291908181526020018280546122fd90613e7d565b801561234a5780601f1061231f5761010080835404028352916020019161234a565b820191906000526020600020905b81548152906001019060200180831161232d57829003601f168201915b5050505050908060040154908060050154908060060154908060070154908060080160009054906101000a900460ff16905089565b612387612d8b565b6000600360009054906101000a900473ffffffffffffffffffffffffffffffffffffffff1673ffffffffffffffffffffffffffffffffffffffff16637eb111f0836040518263ffffffff1660e01b81526004016123e491906130f8565b600060405180830381865afa158015612401573d6000803e3d6000fd5b505050506040513d6000823e3d601f19601f8201168201806040525081019061242a9190614a29565b905060005b81518110156124e857866040516020016124499190614aae565b604051602081830303815290604052805190602001208282815181106124725761247161476c565b5b60200260200101516020015160405160200161248e9190614aae565b60405160208183030381529060405280519060200120036124db576040517fd202940c00000000000000000000000000000000000000000000000000000000815260040160405180910390fd5b808060010191505061242f565b506000806000600360009054906101000a900473ffffffffffffffffffffffffffffffffffffffff1673ffffffffffffffffffffffffffffffffffffffff1663068bcd8d866040518263ffffffff1660e01b815260040161254991906130f8565b600060405180830381865afa158015612566573d6000803e3d6000fd5b505050506040513d6000823e3d601f19601f8201168201806040525081019061258f919061435f565b965050955050509350508960038111156125ac576125ab6131ff565b5b8360038111156125bf576125be6131ff565b5b1415806125cb57508087115b15612602576040517fd3c913ea00000000000000000000000000000000000000000000000000000000815260040160405180910390fd5b6000670de0b6b3a76400006064670de0b6b3a76400008a6126239190613eae565b61262d9190614524565b846126389190613eae565b6126429190614524565b9050600360009054906101000a900473ffffffffffffffffffffffffffffffffffffffff1673ffffffffffffffffffffffffffffffffffffffff1663a4948d85878a6040518363ffffffff1660e01b81526004016126a1929190614ac5565b600060405180830381600087803b1580156126bb57600080fd5b505af11580156126cf573d6000803e3d6000fd5b50505050600a60008154809291906126e69061479b565b91905055506000604051806101600160405280600a5481526020018c81526020018d600381111561271a576127196131ff565b5b81526020018b81526020018a8152602001898152602001838152602001600081526020018381526020018881526020018e81525090508060096000600a5481526020019081526020016000206000820151816000015560208201518160010190816127859190614092565b5060408201518160020160006101000a81548160ff021916908360038111156127b1576127b06131ff565b5b021790555060608201518160030190816127cb9190614092565b506080820151816004015560a0820151816005015560c0820151816006015560e082015181600701556101008201518160080155610120820151816009015561014082015181600a0190816128209190614092565b50905050600360009054906101000a900473ffffffffffffffffffffffffffffffffffffffff1673ffffffffffffffffffffffffffffffffffffffff1663c7aa987488836040518363ffffffff1660e01b8152600401612881929190614e78565b600060405180830381600087803b15801561289b57600080fd5b505af11580156128af573d6000803e3d6000fd5b50505050600160066000600a54815260200190815260200160002060006101000a81548160ff0219169083151502179055507f036ea185d659d311308d48f377a57d1954df7161b963d5d0c9054f87c438b0298b8d604051612912929190614d4b565b60405180910390a150505050505050505050505050565b612931612d3b565b6000600190505b600a548111612ac7576000600860008473ffffffffffffffffffffffffffffffffffffffff1673ffffffffffffffffffffffffffffffffffffffff168152602001908152602001600020600083815260200190815260200160002090508060080160009054906101000a900460ff1680156129b65750806007015442115b15612ab35760008160080160006101000a81548160ff021916908315150217905550600860008473ffffffffffffffffffffffffffffffffffffffff1673ffffffffffffffffffffffffffffffffffffffff1681526020019081526020016000206000838152602001908152602001600020600080820160006101000a81549073ffffffffffffffffffffffffffffffffffffffff021916905560018201600090556002820160006101000a81549060ff0219169055600382016000612a7c9190612fc2565b60048201600090556005820160009055600682016000905560078201600090556008820160006101000a81549060ff021916905550505b508080612abf9061479b565b915050612938565b50612ad0612d81565b50565b612adb612ee0565b600860008473ffffffffffffffffffffffffffffffffffffffff1673ffffffffffffffffffffffffffffffffffffffff1681526020019081526020016000206000838152602001908152602001600020604051806101200160405290816000820160009054906101000a900473ffffffffffffffffffffffffffffffffffffffff1673ffffffffffffffffffffffffffffffffffffffff1673ffffffffffffffffffffffffffffffffffffffff168152602001600182015481526020016002820160009054906101000a900460ff166003811115612bbc57612bbb6131ff565b5b6003811115612bce57612bcd6131ff565b5b8152602001600382018054612be290613e7d565b80601f0160208091040260200160405190810160405280929190818152602001828054612c0e90613e7d565b8015612c5b5780601f10612c3057610100808354040283529160200191612c5b565b820191906000526020600020905b815481529060010190602001808311612c3e57829003601f168201915b50505050508152602001600482015481526020016005820154815260200160068201548152602001600782015481526020016008820160009054906101000a900460ff161515151581525050905092915050565b612cb7612d8b565b600073ffffffffffffffffffffffffffffffffffffffff168173ffffffffffffffffffffffffffffffffffffffff1603612d295760006040517f1e4fbdf7000000000000000000000000000000000000000000000000000000008152600401612d209190613154565b60405180910390fd5b612d3281612e12565b50565b600a5481565b600260005403612d77576040517f3ee5aeb500000000000000000000000000000000000000000000000000000000815260040160405180910390fd5b6002600081905550565b6001600081905550565b612d93612ed8565b73ffffffffffffffffffffffffffffffffffffffff16612db16118ec565b73ffffffffffffffffffffffffffffffffffffffff1614612e1057612dd4612ed8565b6040517f118cdaa7000000000000000000000000000000000000000000000000000000008152600401612e079190613154565b60405180910390fd5b565b6000600160009054906101000a900473ffffffffffffffffffffffffffffffffffffffff16905081600160006101000a81548173ffffffffffffffffffffffffffffffffffffffff021916908373ffffffffffffffffffffffffffffffffffffffff1602179055508173ffffffffffffffffffffffffffffffffffffffff168173ffffffffffffffffffffffffffffffffffffffff167f8be0079c531659141344cd1fd0a4f28419497f9722a3daafe3b4186f6b6457e060405160405180910390a35050565b600033905090565b604051806101200160405280600073ffffffffffffffffffffffffffffffffffffffff1681526020016000815260200160006003811115612f2457612f236131ff565b5b815260200160608152602001600081526020016000815260200160008152602001600081526020016000151581525090565b604051806101600160405280600081526020016060815260200160006003811115612f8457612f836131ff565b5b815260200160608152602001600081526020016000815260200160008152602001600081526020016000815260200160008152602001606081525090565b508054612fce90613e7d565b6000825580601f10612fe05750612fff565b601f016020900490600052602060002090810190612ffe9190613002565b5b50565b5b8082111561301b576000816000905550600101613003565b5090565b6000604051905090565b600080fd5b600080fd5b6000819050919050565b61304681613033565b811461305157600080fd5b50565b6000813590506130638161303d565b92915050565b60008060006060848603121561308257613081613029565b5b600061309086828701613054565b93505060206130a186828701613054565b92505060406130b286828701613054565b9150509250925092565b6000602082840312156130d2576130d1613029565b5b60006130e084828501613054565b91505092915050565b6130f281613033565b82525050565b600060208201905061310d60008301846130e9565b92915050565b600073ffffffffffffffffffffffffffffffffffffffff82169050919050565b600061313e82613113565b9050919050565b61314e81613133565b82525050565b60006020820190506131696000830184613145565b92915050565b600081519050919050565b600082825260208201905092915050565b60005b838110156131a957808201518184015260208101905061318e565b60008484015250505050565b6000601f19601f8301169050919050565b60006131d18261316f565b6131db818561317a565b93506131eb81856020860161318b565b6131f4816131b5565b840191505092915050565b7f4e487b7100000000000000000000000000000000000000000000000000000000600052602160045260246000fd5b6004811061323f5761323e6131ff565b5b50565b60008190506132508261322e565b919050565b600061326082613242565b9050919050565b61327081613255565b82525050565b60006101608201905061328c600083018e6130e9565b818103602083015261329e818d6131c6565b90506132ad604083018c613267565b81810360608301526132bf818b6131c6565b90506132ce608083018a6130e9565b6132db60a08301896130e9565b6132e860c08301886130e9565b6132f560e08301876130e9565b6133036101008301866130e9565b6133116101208301856130e9565b81810361014083015261332481846131c6565b90509c9b505050505050505050505050565b61333f81613133565b811461334a57600080fd5b50565b60008135905061335c81613336565b92915050565b60006020828403121561337857613377613029565b5b60006133868482850161334d565b91505092915050565b600081519050919050565b600082825260208201905092915050565b6000819050602082019050919050565b6133c481613133565b82525050565b6133d381613033565b82525050565b6133e281613255565b82525050565b600082825260208201905092915050565b60006134048261316f565b61340e81856133e8565b935061341e81856020860161318b565b613427816131b5565b840191505092915050565b60008115159050919050565b61344781613432565b82525050565b60006101208301600083015161346660008601826133bb565b50602083015161347960208601826133ca565b50604083015161348c60408601826133d9565b50606083015184820360608601526134a482826133f9565b91505060808301516134b960808601826133ca565b5060a08301516134cc60a08601826133ca565b5060c08301516134df60c08601826133ca565b5060e08301516134f260e08601826133ca565b5061010083015161350761010086018261343e565b508091505092915050565b600061351e838361344d565b905092915050565b6000602082019050919050565b600061353e8261338f565b613548818561339a565b93508360208202850161355a856133ab565b8060005b8581101561359657848403895281516135778582613512565b945061358283613526565b925060208a0199505060018101905061355e565b50829750879550505050505092915050565b600060208201905081810360008301526135c28184613533565b905092915050565b6135d381613432565b82525050565b60006020820190506135ee60008301846135ca565b92915050565b6000806040838503121561360b5761360a613029565b5b60006136198582860161334d565b925050602061362a85828601613054565b9150509250929050565b60008060006060848603121561364d5761364c613029565b5b600061365b8682870161334d565b935050602061366c86828701613054565b925050604061367d86828701613054565b9150509250925092565b6000819050919050565b60006136ac6136a76136a284613113565b613687565b613113565b9050919050565b60006136be82613691565b9050919050565b60006136d0826136b3565b9050919050565b6136e0816136c5565b82525050565b60006020820190506136fb60008301846136d7565b92915050565b600080fd5b600080fd5b7f4e487b7100000000000000000000000000000000000000000000000000000000600052604160045260246000fd5b613743826131b5565b810181811067ffffffffffffffff821117156137625761376161370b565b5b80604052505050565b600061377561301f565b9050613781828261373a565b919050565b600067ffffffffffffffff8211156137a1576137a061370b565b5b6137aa826131b5565b9050602081019050919050565b82818337600083830152505050565b60006137d96137d484613786565b61376b565b9050828152602081018484840111156137f5576137f4613706565b5b6138008482856137b7565b509392505050565b600082601f83011261381d5761381c613701565b5b813561382d8482602086016137c6565b91505092915050565b6004811061384357600080fd5b50565b60008135905061385581613836565b92915050565b600080600080600080600080610100898b03121561387c5761387b613029565b5b600061388a8b828c01613054565b985050602089013567ffffffffffffffff8111156138ab576138aa61302e565b5b6138b78b828c01613808565b97505060406138c88b828c01613846565b965050606089013567ffffffffffffffff8111156138e9576138e861302e565b5b6138f58b828c01613808565b955050608089013567ffffffffffffffff8111156139165761391561302e565b5b6139228b828c01613808565b94505060a06139338b828c01613054565b93505060c06139448b828c01613054565b92505060e06139558b828c01613054565b9150509295985092959890939650565b600081519050919050565b600082825260208201905092915050565b6000819050602082019050919050565b6000610160830160008301516139aa60008601826133ca565b50602083015184820360208601526139c282826133f9565b91505060408301516139d760408601826133d9565b50606083015184820360608601526139ef82826133f9565b9150506080830151613a0460808601826133ca565b5060a0830151613a1760a08601826133ca565b5060c0830151613a2a60c08601826133ca565b5060e0830151613a3d60e08601826133ca565b50610100830151613a526101008601826133ca565b50610120830151613a676101208601826133ca565b50610140830151848203610140860152613a8182826133f9565b9150508091505092915050565b6000613a9a8383613991565b905092915050565b6000602082019050919050565b6000613aba82613965565b613ac48185613970565b935083602082028501613ad685613981565b8060005b85811015613b125784840389528151613af38582613a8e565b9450613afe83613aa2565b925060208a01995050600181019050613ada565b50829750879550505050505092915050565b60006020820190508181036000830152613b3e8184613aaf565b905092915050565b600061012082019050613b5c600083018c613145565b613b69602083018b6130e9565b613b76604083018a613267565b8181036060830152613b8881896131c6565b9050613b9760808301886130e9565b613ba460a08301876130e9565b613bb160c08301866130e9565b613bbe60e08301856130e9565b613bcc6101008301846135ca565b9a9950505050505050505050565b600080600080600080600060e0888a031215613bf957613bf8613029565b5b600088013567ffffffffffffffff811115613c1757613c1661302e565b5b613c238a828b01613808565b9750506020613c348a828b01613846565b965050604088013567ffffffffffffffff811115613c5557613c5461302e565b5b613c618a828b01613808565b955050606088013567ffffffffffffffff811115613c8257613c8161302e565b5b613c8e8a828b01613808565b9450506080613c9f8a828b01613054565b93505060a0613cb08a828b01613054565b92505060c0613cc18a828b01613054565b91505092959891949750929550565b600061012083016000830151613ce960008601826133bb565b506020830151613cfc60208601826133ca565b506040830151613d0f60408601826133d9565b5060608301518482036060860152613d2782826133f9565b9150506080830151613d3c60808601826133ca565b5060a0830151613d4f60a08601826133ca565b5060c0830151613d6260c08601826133ca565b5060e0830151613d7560e08601826133ca565b50610100830151613d8a61010086018261343e565b508091505092915050565b60006020820190508181036000830152613daf8184613cd0565b905092915050565b7f4e487b7100000000000000000000000000000000000000000000000000000000600052601160045260246000fd5b6000613df182613033565b9150613dfc83613033565b9250828201905080821115613e1457613e13613db7565b5b92915050565b6000613e2582613033565b9150613e3083613033565b9250828203905081811115613e4857613e47613db7565b5b92915050565b7f4e487b7100000000000000000000000000000000000000000000000000000000600052602260045260246000fd5b60006002820490506001821680613e9557607f821691505b602082108103613ea857613ea7613e4e565b5b50919050565b6000613eb982613033565b9150613ec483613033565b9250828202613ed281613033565b91508282048414831517613ee957613ee8613db7565b5b5092915050565b60008190508160005260206000209050919050565b60006020601f8301049050919050565b600082821b905092915050565b600060088302613f527fffffffffffffffffffffffffffffffffffffffffffffffffffffffffffffffff82613f15565b613f5c8683613f15565b95508019841693508086168417925050509392505050565b6000613f8f613f8a613f8584613033565b613687565b613033565b9050919050565b6000819050919050565b613fa983613f74565b613fbd613fb582613f96565b848454613f22565b825550505050565b600090565b613fd2613fc5565b613fdd818484613fa0565b505050565b5b8181101561400157613ff6600082613fca565b600181019050613fe3565b5050565b601f8211156140465761401781613ef0565b61402084613f05565b8101602085101561402f578190505b61404361403b85613f05565b830182613fe2565b50505b505050565b600082821c905092915050565b60006140696000198460080261404b565b1980831691505092915050565b60006140828383614058565b9150826002028217905092915050565b61409b8261316f565b67ffffffffffffffff8111156140b4576140b361370b565b5b6140be8254613e7d565b6140c9828285614005565b600060209050601f8311600181146140fc57600084156140ea578287015190505b6140f48582614076565b86555061415c565b601f19841661410a86613ef0565b60005b828110156141325784890151825560018201915060208501945060208101905061410d565b8683101561414f578489015161414b601f891682614058565b8355505b6001600288020188555050505b505050505050565b7f546f74616c20636f76657220706572696f64206d757374206265206c6573732060008201527f7468616e20333635000000000000000000000000000000000000000000000000602082015250565b60006141c060288361317a565b91506141cb82614164565b604082019050919050565b600060208201905081810360008301526141ef816141b3565b9050919050565b600060608201905061420b60008301866130e9565b61421860208301856130e9565b6142256040830184613267565b949350505050565b7f4e6f7420617574686f72697a6564000000000000000000000000000000000000600082015250565b6000614263600e8361317a565b915061426e8261422d565b602082019050919050565b6000602082019050818103600083015261429281614256565b9050919050565b60006142ac6142a784613786565b61376b565b9050828152602081018484840111156142c8576142c7613706565b5b6142d384828561318b565b509392505050565b600082601f8301126142f0576142ef613701565b5b8151614300848260208601614299565b91505092915050565b60008151905061431881613836565b92915050565b60008151905061432d8161303d565b92915050565b61433c81613432565b811461434757600080fd5b50565b60008151905061435981614333565b92915050565b600080600080600080600060e0888a03121561437e5761437d613029565b5b600088015167ffffffffffffffff81111561439c5761439b61302e565b5b6143a88a828b016142db565b97505060206143b98a828b01614309565b96505060406143ca8a828b0161431e565b95505060606143db8a828b0161431e565b94505060806143ec8a828b0161431e565b93505060a06143fd8a828b0161434a565b92505060c061440e8a828b0161431e565b91505092959891949750929550565b7f54564c206973207a65726f000000000000000000000000000000000000000000600082015250565b6000614453600b8361317a565b915061445e8261441d565b602082019050919050565b6000602082019050818103600083015261448281614446565b9050919050565b7f496e76616c696420636f76657220636170616369747900000000000000000000600082015250565b60006144bf60168361317a565b91506144ca82614489565b602082019050919050565b600060208201905081810360008301526144ee816144b2565b9050919050565b7f4e487b7100000000000000000000000000000000000000000000000000000000600052601260045260246000fd5b600061452f82613033565b915061453a83613033565b92508261454a576145496144f5565b5b828204905092915050565b600060408201905061456a60008301856130e9565b6145776020830184613145565b9392505050565b600080fd5b600080fd5b60008151905061459781613336565b92915050565b600281106145aa57600080fd5b50565b6000815190506145bc8161459d565b92915050565b600061010082840312156145d9576145d861457e565b5b6145e461010061376b565b905060006145f484828501614588565b60008301525060206146088482850161431e565b602083015250604061461c8482850161431e565b60408301525060606146308482850161431e565b6060830152506080614644848285016145ad565b60808301525060a06146588482850161431e565b60a08301525060c061466c8482850161431e565b60c08301525060e06146808482850161431e565b60e08301525092915050565b600061010082840312156146a3576146a2613029565b5b60006146b1848285016145c2565b91505092915050565b600081905092915050565b50565b60006146d56000836146ba565b91506146e0826146c5565b600082019050919050565b60006146f6826146c8565b9150819050919050565b7f5472616e73666572206661696c65640000000000000000000000000000000000600082015250565b6000614736600f8361317a565b915061474182614700565b602082019050919050565b6000602082019050818103600083015261476581614729565b9050919050565b7f4e487b7100000000000000000000000000000000000000000000000000000000600052603260045260246000fd5b60006147a682613033565b91507fffffffffffffffffffffffffffffffffffffffffffffffffffffffffffffffff82036147d8576147d7613db7565b5b600182019050919050565b600067ffffffffffffffff8211156147fe576147fd61370b565b5b602082029050602081019050919050565b600080fd5b6000610160828403121561482b5761482a61457e565b5b61483661016061376b565b905060006148468482850161431e565b600083015250602082015167ffffffffffffffff81111561486a57614869614583565b5b614876848285016142db565b602083015250604061488a84828501614309565b604083015250606082015167ffffffffffffffff8111156148ae576148ad614583565b5b6148ba848285016142db565b60608301525060806148ce8482850161431e565b60808301525060a06148e28482850161431e565b60a08301525060c06148f68482850161431e565b60c08301525060e061490a8482850161431e565b60e08301525061010061491f8482850161431e565b610100830152506101206149358482850161431e565b6101208301525061014082015167ffffffffffffffff81111561495b5761495a614583565b5b614967848285016142db565b6101408301525092915050565b6000614987614982846147e3565b61376b565b905080838252602082019050602084028301858111156149aa576149a961480f565b5b835b818110156149f157805167ffffffffffffffff8111156149cf576149ce613701565b5b8086016149dc8982614814565b855260208501945050506020810190506149ac565b5050509392505050565b600082601f830112614a1057614a0f613701565b5b8151614a20848260208601614974565b91505092915050565b600060208284031215614a3f57614a3e613029565b5b600082015167ffffffffffffffff811115614a5d57614a5c61302e565b5b614a69848285016149fb565b91505092915050565b600081905092915050565b6000614a888261316f565b614a928185614a72565b9350614aa281856020860161318b565b80840191505092915050565b6000614aba8284614a7d565b915081905092915050565b6000604082019050614ada60008301856130e9565b614ae760208301846130e9565b9392505050565b60008160001c9050919050565b6000819050919050565b6000614b18614b1383614aee565b614afb565b9050919050565b60008154614b2c81613e7d565b614b3681866133e8565b94506001821660008114614b515760018114614b6757614b9a565b60ff198316865281151560200286019350614b9a565b614b7085613ef0565b60005b83811015614b9257815481890152600182019150602081019050614b73565b808801955050505b50505092915050565b600060ff82169050919050565b6000614bc3614bbe83614aee565b614ba3565b9050919050565b600061016083016000808401549050614be281614b05565b614bef60008701826133ca565b50600184018583036020870152614c068382614b1f565b92505060028401549050614c1981614bb0565b614c2660408701826133d9565b50600384018583036060870152614c3d8382614b1f565b92505060048401549050614c5081614b05565b614c5d60808701826133ca565b5060058401549050614c6e81614b05565b614c7b60a08701826133ca565b5060068401549050614c8c81614b05565b614c9960c08701826133ca565b5060078401549050614caa81614b05565b614cb760e08701826133ca565b5060088401549050614cc881614b05565b614cd66101008701826133ca565b5060098401549050614ce781614b05565b614cf56101208701826133ca565b50600a8401858303610140870152614d0d8382614b1f565b925050819250505092915050565b6000604082019050614d3060008301856130e9565b8181036020830152614d428184614bca565b90509392505050565b60006040820190508181036000830152614d6581856131c6565b9050614d746020830184613267565b9392505050565b600061016083016000830151614d9460008601826133ca565b5060208301518482036020860152614dac82826133f9565b9150506040830151614dc160408601826133d9565b5060608301518482036060860152614dd982826133f9565b9150506080830151614dee60808601826133ca565b5060a0830151614e0160a08601826133ca565b5060c0830151614e1460c08601826133ca565b5060e0830151614e2760e08601826133ca565b50610100830151614e3c6101008601826133ca565b50610120830151614e516101208601826133ca565b50610140830151848203610140860152614e6b82826133f9565b9150508091505092915050565b6000604082019050614e8d60008301856130e9565b8181036020830152614e9f8184614d7b565b9050939250505056fea26469706673582212207274696d6b91f59164ef1a41a04cb7960add5f04daae1ae23843ab92f6acddc864736f6c63430008180033",
  "linkReferences": {},
  "deployedLinkReferences": {}
}