{
  "_format": "hh-sol-artifact-1",
  "contractName": "InsurancePool",
  "sourceName": "contracts/InsurancePool.sol",
  "abi": [
    {
      "inputs": [
        {
          "internalType": "address",
          "name": "_initialOwner",
          "type": "address"
        }
      ],
      "stateMutability": "nonpayable",
      "type": "constructor"
    },
    {
      "inputs": [],
      "name": "LpNotActive",
      "type": "error"
    },
    {
      "inputs": [
        {
          "internalType": "address",
          "name": "owner",
          "type": "address"
        }
      ],
      "name": "OwnableInvalidOwner",
      "type": "error"
    },
    {
      "inputs": [
        {
          "internalType": "address",
          "name": "account",
          "type": "address"
        }
      ],
      "name": "OwnableUnauthorizedAccount",
      "type": "error"
    },
    {
      "inputs": [],
      "name": "ReentrancyGuardReentrantCall",
      "type": "error"
    },
    {
      "anonymous": false,
      "inputs": [
        {
          "indexed": false,
          "internalType": "uint256",
          "name": "",
          "type": "uint256"
        },
        {
          "indexed": false,
          "internalType": "uint256",
          "name": "",
          "type": "uint256"
        },
        {
          "indexed": false,
          "internalType": "address",
          "name": "",
          "type": "address"
        }
      ],
      "name": "ClaimAttempt",
      "type": "event"
    },
    {
      "anonymous": false,
      "inputs": [
        {
          "indexed": true,
          "internalType": "address",
          "name": "recipient",
          "type": "address"
        },
        {
          "indexed": false,
          "internalType": "string",
          "name": "pool",
          "type": "string"
        },
        {
          "indexed": false,
          "internalType": "uint256",
          "name": "amount",
          "type": "uint256"
        }
      ],
      "name": "ClaimPaid",
      "type": "event"
    },
    {
      "anonymous": false,
      "inputs": [
        {
          "indexed": true,
          "internalType": "address",
          "name": "user",
          "type": "address"
        },
        {
          "indexed": false,
          "internalType": "uint256",
          "name": "amount",
          "type": "uint256"
        },
        {
          "indexed": false,
          "internalType": "string",
          "name": "pool",
          "type": "string"
        }
      ],
      "name": "Deposited",
      "type": "event"
    },
    {
      "anonymous": false,
      "inputs": [
        {
          "indexed": true,
          "internalType": "address",
          "name": "previousOwner",
          "type": "address"
        },
        {
          "indexed": true,
          "internalType": "address",
          "name": "newOwner",
          "type": "address"
        }
      ],
      "name": "OwnershipTransferred",
      "type": "event"
    },
    {
      "anonymous": false,
      "inputs": [
        {
          "indexed": true,
          "internalType": "uint256",
          "name": "id",
          "type": "uint256"
        },
        {
          "indexed": false,
          "internalType": "string",
          "name": "poolName",
          "type": "string"
        }
      ],
      "name": "PoolCreated",
      "type": "event"
    },
    {
      "anonymous": false,
      "inputs": [
        {
          "indexed": true,
          "internalType": "uint256",
          "name": "poolId",
          "type": "uint256"
        },
        {
          "indexed": false,
          "internalType": "uint256",
          "name": "apy",
          "type": "uint256"
        },
        {
          "indexed": false,
          "internalType": "uint256",
          "name": "_minPeriod",
          "type": "uint256"
        }
      ],
      "name": "PoolUpdated",
      "type": "event"
    },
    {
      "anonymous": false,
      "inputs": [
        {
          "indexed": true,
          "internalType": "address",
          "name": "user",
          "type": "address"
        },
        {
          "indexed": false,
          "internalType": "uint256",
          "name": "amount",
          "type": "uint256"
        },
        {
          "indexed": false,
          "internalType": "string",
          "name": "pool",
          "type": "string"
        }
      ],
      "name": "Withdraw",
      "type": "event"
    },
    {
      "inputs": [],
      "name": "ICoverContract",
      "outputs": [
        {
          "internalType": "contract ICover",
          "name": "",
          "type": "address"
        }
      ],
      "stateMutability": "view",
      "type": "function"
    },
    {
      "inputs": [],
      "name": "IGovernanceContract",
      "outputs": [
        {
          "internalType": "contract IGov",
          "name": "",
          "type": "address"
        }
      ],
      "stateMutability": "view",
      "type": "function"
    },
    {
      "inputs": [
        {
          "internalType": "uint256",
          "name": "_poolId",
          "type": "uint256"
        },
        {
          "components": [
            {
              "internalType": "uint256",
              "name": "id",
              "type": "uint256"
            },
            {
              "internalType": "string",
              "name": "coverName",
              "type": "string"
            },
            {
              "internalType": "enum CoverLib.RiskType",
              "name": "riskType",
              "type": "uint8"
            },
            {
              "internalType": "string",
              "name": "chains",
              "type": "string"
            },
            {
              "internalType": "uint256",
              "name": "capacity",
              "type": "uint256"
            },
            {
              "internalType": "uint256",
              "name": "cost",
              "type": "uint256"
            },
            {
              "internalType": "uint256",
              "name": "capacityAmount",
              "type": "uint256"
            },
            {
              "internalType": "uint256",
              "name": "coverValues",
              "type": "uint256"
            },
            {
              "internalType": "uint256",
              "name": "maxAmount",
              "type": "uint256"
            },
            {
              "internalType": "uint256",
              "name": "poolId",
              "type": "uint256"
            },
            {
              "internalType": "string",
              "name": "CID",
              "type": "string"
            }
          ],
          "internalType": "struct CoverLib.Cover",
          "name": "_cover",
          "type": "tuple"
        }
      ],
      "name": "addPoolCover",
      "outputs": [],
      "stateMutability": "nonpayable",
      "type": "function"
    },
    {
      "inputs": [
        {
          "internalType": "uint256",
          "name": "_proposalId",
          "type": "uint256"
        }
      ],
      "name": "claimProposalFunds",
      "outputs": [],
      "stateMutability": "nonpayable",
      "type": "function"
    },
    {
      "inputs": [],
      "name": "coverContract",
      "outputs": [
        {
          "internalType": "address",
          "name": "",
          "type": "address"
        }
      ],
      "stateMutability": "view",
      "type": "function"
    },
    {
      "inputs": [
        {
          "internalType": "enum CoverLib.RiskType",
          "name": "_riskType",
          "type": "uint8"
        },
        {
          "internalType": "string",
          "name": "_poolName",
          "type": "string"
        },
        {
          "internalType": "uint256",
          "name": "_apy",
          "type": "uint256"
        },
        {
          "internalType": "uint256",
          "name": "_minPeriod",
          "type": "uint256"
        }
      ],
      "name": "createPool",
      "outputs": [],
      "stateMutability": "nonpayable",
      "type": "function"
    },
    {
      "inputs": [
        {
          "internalType": "uint256",
          "name": "_poolId",
          "type": "uint256"
        }
      ],
      "name": "deactivatePool",
      "outputs": [],
      "stateMutability": "nonpayable",
      "type": "function"
    },
    {
      "inputs": [
        {
          "internalType": "uint256",
          "name": "_poolId",
          "type": "uint256"
        }
      ],
      "name": "deposit",
      "outputs": [],
      "stateMutability": "payable",
      "type": "function"
    },
    {
      "inputs": [],
      "name": "getAllPools",
      "outputs": [
        {
          "components": [
            {
              "internalType": "string",
              "name": "poolName",
              "type": "string"
            },
            {
              "internalType": "uint256",
              "name": "poolId",
              "type": "uint256"
            },
            {
              "internalType": "uint256",
              "name": "dailyPayout",
              "type": "uint256"
            },
            {
              "internalType": "uint256",
              "name": "depositAmount",
              "type": "uint256"
            },
            {
              "internalType": "uint256",
              "name": "apy",
              "type": "uint256"
            },
            {
              "internalType": "uint256",
              "name": "minPeriod",
              "type": "uint256"
            },
            {
              "internalType": "uint256",
              "name": "tvl",
              "type": "uint256"
            },
            {
              "internalType": "uint256",
              "name": "tcp",
              "type": "uint256"
            },
            {
              "internalType": "bool",
              "name": "isActive",
              "type": "bool"
            }
          ],
          "internalType": "struct InsurancePool.PoolInfo[]",
          "name": "",
          "type": "tuple[]"
        }
      ],
      "stateMutability": "view",
      "type": "function"
    },
    {
      "inputs": [
        {
          "internalType": "uint256",
          "name": "_proposalId",
          "type": "uint256"
        }
      ],
      "name": "getDetails",
      "outputs": [
        {
          "internalType": "address",
          "name": "",
          "type": "address"
        },
        {
          "internalType": "address",
          "name": "",
          "type": "address"
        }
      ],
      "stateMutability": "view",
      "type": "function"
    },
    {
      "inputs": [
        {
          "internalType": "uint256",
          "name": "_poolId",
          "type": "uint256"
        }
      ],
      "name": "getPool",
      "outputs": [
        {
          "internalType": "string",
          "name": "name",
          "type": "string"
        },
        {
          "internalType": "enum CoverLib.RiskType",
          "name": "riskType",
          "type": "uint8"
        },
        {
          "internalType": "uint256",
          "name": "apy",
          "type": "uint256"
        },
        {
          "internalType": "uint256",
          "name": "minPeriod",
          "type": "uint256"
        },
        {
          "internalType": "uint256",
          "name": "tvl",
          "type": "uint256"
        },
        {
          "internalType": "bool",
          "name": "isActive",
          "type": "bool"
        },
        {
          "internalType": "uint256",
          "name": "percentageSplitBalance",
          "type": "uint256"
        }
      ],
      "stateMutability": "view",
      "type": "function"
    },
    {
      "inputs": [
        {
          "internalType": "uint256",
          "name": "_poolId",
          "type": "uint256"
        }
      ],
      "name": "getPoolCovers",
      "outputs": [
        {
          "components": [
            {
              "internalType": "uint256",
              "name": "id",
              "type": "uint256"
            },
            {
              "internalType": "string",
              "name": "coverName",
              "type": "string"
            },
            {
              "internalType": "enum CoverLib.RiskType",
              "name": "riskType",
              "type": "uint8"
            },
            {
              "internalType": "string",
              "name": "chains",
              "type": "string"
            },
            {
              "internalType": "uint256",
              "name": "capacity",
              "type": "uint256"
            },
            {
              "internalType": "uint256",
              "name": "cost",
              "type": "uint256"
            },
            {
              "internalType": "uint256",
              "name": "capacityAmount",
              "type": "uint256"
            },
            {
              "internalType": "uint256",
              "name": "coverValues",
              "type": "uint256"
            },
            {
              "internalType": "uint256",
              "name": "maxAmount",
              "type": "uint256"
            },
            {
              "internalType": "uint256",
              "name": "poolId",
              "type": "uint256"
            },
            {
              "internalType": "string",
              "name": "CID",
              "type": "string"
            }
          ],
          "internalType": "struct CoverLib.Cover[]",
          "name": "",
          "type": "tuple[]"
        }
      ],
      "stateMutability": "view",
      "type": "function"
    },
    {
      "inputs": [
        {
          "internalType": "uint256",
          "name": "_poolId",
          "type": "uint256"
        }
      ],
      "name": "getPoolTVL",
      "outputs": [
        {
          "internalType": "uint256",
          "name": "",
          "type": "uint256"
        }
      ],
      "stateMutability": "view",
      "type": "function"
    },
    {
      "inputs": [
        {
          "internalType": "address",
          "name": "_userAddress",
          "type": "address"
        }
      ],
      "name": "getPoolsByAddress",
      "outputs": [
        {
          "components": [
            {
              "internalType": "string",
              "name": "poolName",
              "type": "string"
            },
            {
              "internalType": "uint256",
              "name": "poolId",
              "type": "uint256"
            },
            {
              "internalType": "uint256",
              "name": "dailyPayout",
              "type": "uint256"
            },
            {
              "internalType": "uint256",
              "name": "depositAmount",
              "type": "uint256"
            },
            {
              "internalType": "uint256",
              "name": "apy",
              "type": "uint256"
            },
            {
              "internalType": "uint256",
              "name": "minPeriod",
              "type": "uint256"
            },
            {
              "internalType": "uint256",
              "name": "tvl",
              "type": "uint256"
            },
            {
              "internalType": "uint256",
              "name": "tcp",
              "type": "uint256"
            },
            {
              "internalType": "bool",
              "name": "isActive",
              "type": "bool"
            }
          ],
          "internalType": "struct InsurancePool.PoolInfo[]",
          "name": "",
          "type": "tuple[]"
        }
      ],
      "stateMutability": "view",
      "type": "function"
    },
    {
      "inputs": [
        {
          "internalType": "uint256",
          "name": "_poolId",
          "type": "uint256"
        },
        {
          "internalType": "address",
          "name": "_user",
          "type": "address"
        }
      ],
      "name": "getUserDeposit",
      "outputs": [
        {
          "components": [
            {
              "internalType": "address",
              "name": "lp",
              "type": "address"
            },
            {
              "internalType": "uint256",
              "name": "amount",
              "type": "uint256"
            },
            {
              "internalType": "uint256",
              "name": "poolId",
              "type": "uint256"
            },
            {
              "internalType": "uint256",
              "name": "dailyPayout",
              "type": "uint256"
            },
            {
              "internalType": "enum InsurancePool.Status",
              "name": "status",
              "type": "uint8"
            },
            {
              "internalType": "uint256",
              "name": "daysLeft",
              "type": "uint256"
            },
            {
              "internalType": "uint256",
              "name": "startDate",
              "type": "uint256"
            },
            {
              "internalType": "uint256",
              "name": "expiryDate",
              "type": "uint256"
            }
          ],
          "internalType": "struct InsurancePool.Deposits",
          "name": "",
          "type": "tuple"
        }
      ],
      "stateMutability": "view",
      "type": "function"
    },
    {
      "inputs": [],
      "name": "governance",
      "outputs": [
        {
          "internalType": "address",
          "name": "",
          "type": "address"
        }
      ],
      "stateMutability": "view",
      "type": "function"
    },
    {
      "inputs": [
        {
          "internalType": "uint256",
          "name": "_poolId",
          "type": "uint256"
        },
        {
          "internalType": "uint256",
          "name": "__poolPercentageSplit",
          "type": "uint256"
        }
      ],
      "name": "increasePercentageSplit",
      "outputs": [],
      "stateMutability": "nonpayable",
      "type": "function"
    },
    {
      "inputs": [],
      "name": "initialOwner",
      "outputs": [
        {
          "internalType": "address",
          "name": "",
          "type": "address"
        }
      ],
      "stateMutability": "view",
      "type": "function"
    },
    {
      "inputs": [],
      "name": "owner",
      "outputs": [
        {
          "internalType": "address",
          "name": "",
          "type": "address"
        }
      ],
      "stateMutability": "view",
      "type": "function"
    },
    {
      "inputs": [
        {
          "internalType": "uint256",
          "name": "poolId",
          "type": "uint256"
        }
      ],
      "name": "poolActive",
      "outputs": [
        {
          "internalType": "bool",
          "name": "",
          "type": "bool"
        }
      ],
      "stateMutability": "view",
      "type": "function"
    },
    {
      "inputs": [],
      "name": "poolCount",
      "outputs": [
        {
          "internalType": "uint256",
          "name": "",
          "type": "uint256"
        }
      ],
      "stateMutability": "view",
      "type": "function"
    },
    {
      "inputs": [
        {
          "internalType": "uint256",
          "name": "",
          "type": "uint256"
        }
      ],
      "name": "pools",
      "outputs": [
        {
          "internalType": "string",
          "name": "poolName",
          "type": "string"
        },
        {
          "internalType": "enum CoverLib.RiskType",
          "name": "riskType",
          "type": "uint8"
        },
        {
          "internalType": "uint256",
          "name": "apy",
          "type": "uint256"
        },
        {
          "internalType": "uint256",
          "name": "minPeriod",
          "type": "uint256"
        },
        {
          "internalType": "uint256",
          "name": "tvl",
          "type": "uint256"
        },
        {
          "internalType": "uint256",
          "name": "tcp",
          "type": "uint256"
        },
        {
          "internalType": "bool",
          "name": "isActive",
          "type": "bool"
        },
        {
          "internalType": "uint256",
          "name": "percentageSplitBalance",
          "type": "uint256"
        }
      ],
      "stateMutability": "view",
      "type": "function"
    },
    {
      "inputs": [
        {
          "internalType": "uint256",
          "name": "_poolId",
          "type": "uint256"
        },
        {
          "internalType": "uint256",
          "name": "__poolPercentageSplit",
          "type": "uint256"
        }
      ],
      "name": "reducePercentageSplit",
      "outputs": [],
      "stateMutability": "nonpayable",
      "type": "function"
    },
    {
      "inputs": [],
      "name": "renounceOwnership",
      "outputs": [],
      "stateMutability": "nonpayable",
      "type": "function"
    },
    {
      "inputs": [
        {
          "internalType": "address",
          "name": "_coverContract",
          "type": "address"
        }
      ],
      "name": "setCover",
      "outputs": [],
      "stateMutability": "nonpayable",
      "type": "function"
    },
    {
      "inputs": [
        {
          "internalType": "address",
          "name": "_governance",
          "type": "address"
        }
      ],
      "name": "setGovernance",
      "outputs": [],
      "stateMutability": "nonpayable",
      "type": "function"
    },
    {
      "inputs": [
        {
          "internalType": "address",
          "name": "newOwner",
          "type": "address"
        }
      ],
      "name": "transferOwnership",
      "outputs": [],
      "stateMutability": "nonpayable",
      "type": "function"
    },
    {
      "inputs": [
        {
          "internalType": "uint256",
          "name": "_poolId",
          "type": "uint256"
        },
        {
          "internalType": "uint256",
          "name": "_apy",
          "type": "uint256"
        },
        {
          "internalType": "uint256",
          "name": "_minPeriod",
          "type": "uint256"
        }
      ],
      "name": "updatePool",
      "outputs": [],
      "stateMutability": "nonpayable",
      "type": "function"
    },
    {
      "inputs": [
        {
          "internalType": "uint256",
          "name": "_poolId",
          "type": "uint256"
        },
        {
          "components": [
            {
              "internalType": "uint256",
              "name": "id",
              "type": "uint256"
            },
            {
              "internalType": "string",
              "name": "coverName",
              "type": "string"
            },
            {
              "internalType": "enum CoverLib.RiskType",
              "name": "riskType",
              "type": "uint8"
            },
            {
              "internalType": "string",
              "name": "chains",
              "type": "string"
            },
            {
              "internalType": "uint256",
              "name": "capacity",
              "type": "uint256"
            },
            {
              "internalType": "uint256",
              "name": "cost",
              "type": "uint256"
            },
            {
              "internalType": "uint256",
              "name": "capacityAmount",
              "type": "uint256"
            },
            {
              "internalType": "uint256",
              "name": "coverValues",
              "type": "uint256"
            },
            {
              "internalType": "uint256",
              "name": "maxAmount",
              "type": "uint256"
            },
            {
              "internalType": "uint256",
              "name": "poolId",
              "type": "uint256"
            },
            {
              "internalType": "string",
              "name": "CID",
              "type": "string"
            }
          ],
          "internalType": "struct CoverLib.Cover",
          "name": "_cover",
          "type": "tuple"
        }
      ],
      "name": "updatePoolCovers",
      "outputs": [],
      "stateMutability": "nonpayable",
      "type": "function"
    },
    {
      "inputs": [
        {
          "internalType": "uint256",
          "name": "_poolId",
          "type": "uint256"
        }
      ],
      "name": "withdraw",
      "outputs": [],
      "stateMutability": "nonpayable",
      "type": "function"
    }
  ],
  "bytecode": "0x60806040523480156200001157600080fd5b50604051620055013803806200550183398181016040528101906200003791906200023f565b806001600081905550600073ffffffffffffffffffffffffffffffffffffffff168173ffffffffffffffffffffffffffffffffffffffff1603620000b55760006040517f1e4fbdf7000000000000000000000000000000000000000000000000000000008152600401620000ac919062000282565b60405180910390fd5b620000c6816200010f60201b60201c565b5080600960006101000a81548173ffffffffffffffffffffffffffffffffffffffff021916908373ffffffffffffffffffffffffffffffffffffffff160217905550506200029f565b6000600160009054906101000a900473ffffffffffffffffffffffffffffffffffffffff16905081600160006101000a81548173ffffffffffffffffffffffffffffffffffffffff021916908373ffffffffffffffffffffffffffffffffffffffff1602179055508173ffffffffffffffffffffffffffffffffffffffff168173ffffffffffffffffffffffffffffffffffffffff167f8be0079c531659141344cd1fd0a4f28419497f9722a3daafe3b4186f6b6457e060405160405180910390a35050565b600080fd5b600073ffffffffffffffffffffffffffffffffffffffff82169050919050565b60006200020782620001da565b9050919050565b6200021981620001fa565b81146200022557600080fd5b50565b60008151905062000239816200020e565b92915050565b600060208284031215620002585762000257620001d5565b5b6000620002688482850162000228565b91505092915050565b6200027c81620001fa565b82525050565b600060208201905062000299600083018462000271565b92915050565b61525280620002af6000396000f3fe6080604052600436106101cd5760003560e01c8063a14764d0116100f7578063c7aa987411610095578063e35f812911610064578063e35f812914610697578063f2fde38b146106c0578063f525cb68146106e9578063f6e8055814610714576101cd565b8063c7aa9874146105f1578063d86c04441461061a578063d88ff1f414610643578063da533fd31461066e576101cd565b8063ac4afa38116100d1578063ac4afa3814610528578063b5d90c281461056c578063b6b55f2514610597578063b93a89f7146105b3576101cd565b8063a14764d0146104ad578063a4948d85146104d6578063ab033ea9146104ff576101cd565b80635aa6e6751161016f5780638da5cb5b1161013e5780638da5cb5b146103f35780638f2446301461041e5780639abd9b051461045b5780639fd36b1514610484576101cd565b80635aa6e6751461034b578063715018a6146103765780637c366cc61461038d5780637eb111f0146103b6576101cd565b806329ba7bb2116101ab57806329ba7bb21461027d5780632e1a7d4d146102a857806331866763146102d15780634e0552441461030e576101cd565b8063068bcd8d146101d2578063248a75b71461021557806325f11e8d14610240575b600080fd5b3480156101de57600080fd5b506101f960048036038101906101f49190613368565b61073f565b60405161020c97969594939291906134c6565b60405180910390f35b34801561022157600080fd5b5061022a610843565b604051610237919061357d565b60405180910390f35b34801561024c57600080fd5b5061026760048036038101906102629190613368565b610869565b6040516102749190613598565b60405180910390f35b34801561028957600080fd5b5061029261089b565b60405161029f919061357d565b60405180910390f35b3480156102b457600080fd5b506102cf60048036038101906102ca9190613368565b6108c1565b005b3480156102dd57600080fd5b506102f860048036038101906102f391906135df565b610c5f565b60405161030591906137fb565b60405180910390f35b34801561031a57600080fd5b506103356004803603810190610330919061381d565b610f89565b6040516103429190613956565b60405180910390f35b34801561035757600080fd5b5061036061112e565b60405161036d919061357d565b60405180910390f35b34801561038257600080fd5b5061038b611154565b005b34801561039957600080fd5b506103b460048036038101906103af91906135df565b611168565b005b3480156103c257600080fd5b506103dd60048036038101906103d89190613368565b6112f5565b6040516103ea9190613b40565b60405180910390f35b3480156103ff57600080fd5b5061040861159f565b604051610415919061357d565b60405180910390f35b34801561042a57600080fd5b5061044560048036038101906104409190613368565b6115c9565b6040516104529190613b62565b60405180910390f35b34801561046757600080fd5b50610482600480360381019061047d9190613368565b6115e9565b005b34801561049057600080fd5b506104ab60048036038101906104a69190613b7d565b61167d565b005b3480156104b957600080fd5b506104d460048036038101906104cf9190613e81565b611796565b005b3480156104e257600080fd5b506104fd60048036038101906104f89190613b7d565b6119e9565b005b34801561050b57600080fd5b50610526600480360381019061052191906135df565b611b02565b005b34801561053457600080fd5b5061054f600480360381019061054a9190613368565b611c8f565b604051610563989796959493929190613edd565b60405180910390f35b34801561057857600080fd5b50610581611d79565b60405161058e9190613fc1565b60405180910390f35b6105b160048036038101906105ac9190613368565b611d9f565b005b3480156105bf57600080fd5b506105da60048036038101906105d59190613368565b61236b565b6040516105e8929190613fdc565b60405180910390f35b3480156105fd57600080fd5b5061061860048036038101906106139190613e81565b61242d565b005b34801561062657600080fd5b50610641600480360381019061063c9190614005565b612613565b005b34801561064f57600080fd5b50610658612779565b60405161066591906137fb565b60405180910390f35b34801561067a57600080fd5b5061069560048036038101906106909190614058565b6129b9565b005b3480156106a357600080fd5b506106be60048036038101906106b99190613368565b612ab6565b005b3480156106cc57600080fd5b506106e760048036038101906106e291906135df565b61300c565b005b3480156106f557600080fd5b506106fe613092565b60405161070b9190613b62565b60405180910390f35b34801561072057600080fd5b50610729613098565b60405161073691906140fc565b60405180910390f35b60606000806000806000806000600360008a81526020019081526020016000209050806000018160010160009054906101000a900460ff168260020154836003015484600401548560060160009054906101000a900460ff1686600701548680546107a990614146565b80601f01602080910402602001604051908101604052809291908181526020018280546107d590614146565b80156108225780601f106107f757610100808354040283529160200191610822565b820191906000526020600020905b81548152906001019060200180831161080557829003601f168201915b50505050509650975097509750975097509750975050919395979092949650565b600860009054906101000a900473ffffffffffffffffffffffffffffffffffffffff1681565b6000806003600084815260200190815260200160002090508060060160009054906101000a900460ff16915050919050565b600960009054906101000a900473ffffffffffffffffffffffffffffffffffffffff1681565b6108c96130be565b600060036000838152602001908152602001600020905060008160080160003373ffffffffffffffffffffffffffffffffffffffff1673ffffffffffffffffffffffffffffffffffffffff1681526020019081526020016000209050600081600101541161096c576040517f08c379a0000000000000000000000000000000000000000000000000000000008152600401610963906141e9565b60405180910390fd5b600060018111156109805761097f613425565b5b8160040160009054906101000a900460ff1660018111156109a4576109a3613425565b5b146109e4576040517f08c379a00000000000000000000000000000000000000000000000000000000081526004016109db90614255565b60405180910390fd5b8060070154421015610a2b576040517f08c379a0000000000000000000000000000000000000000000000000000000008152600401610a22906142c1565b60405180910390fd5b60018160040160006101000a81548160ff02191690836001811115610a5357610a52613425565b5b02179055508060010154826004016000828254610a709190614310565b925050819055506000610a82846112f5565b905060005b8151811015610b4857600660009054906101000a900473ffffffffffffffffffffffffffffffffffffffff1673ffffffffffffffffffffffffffffffffffffffff1663106b5da1838381518110610ae157610ae0614344565b5b6020026020010151600001516040518263ffffffff1660e01b8152600401610b099190613b62565b600060405180830381600087803b158015610b2357600080fd5b505af1158015610b37573d6000803e3d6000fd5b505050508080600101915050610a87565b5060003373ffffffffffffffffffffffffffffffffffffffff168360010154604051610b73906143a4565b60006040518083038185875af1925050503d8060008114610bb0576040519150601f19603f3d011682016040523d82523d6000602084013e610bb5565b606091505b5050905080610bf9576040517f08c379a0000000000000000000000000000000000000000000000000000000008152600401610bf090614405565b60405180910390fd5b3373ffffffffffffffffffffffffffffffffffffffff167f485f1bb6524c663555797e00171a10f341656e59b02d6b557a0a38ba7d5d9751846001015486600001604051610c489291906144be565b60405180910390a250505050610c5c613104565b50565b6060600080600190505b6004548111610cf957600060036000838152602001908152602001600020905060008160080160008773ffffffffffffffffffffffffffffffffffffffff1673ffffffffffffffffffffffffffffffffffffffff168152602001908152602001600020600101541115610ce5578280610ce1906144ee565b9350505b508080610cf1906144ee565b915050610c69565b5060008167ffffffffffffffff811115610d1657610d15613bc2565b5b604051908082528060200260200182016040528015610d4f57816020015b610d3c613263565b815260200190600190039081610d345790505b509050600080600190505b6004548111610f7d57600060036000838152602001908152602001600020905060008160080160008973ffffffffffffffffffffffffffffffffffffffff1673ffffffffffffffffffffffffffffffffffffffff168152602001908152602001600020600101541115610f6957604051806101200160405280826000018054610de290614146565b80601f0160208091040260200160405190810160405280929190818152602001828054610e0e90614146565b8015610e5b5780601f10610e3057610100808354040283529160200191610e5b565b820191906000526020600020905b815481529060010190602001808311610e3e57829003601f168201915b505050505081526020018381526020018260080160008a73ffffffffffffffffffffffffffffffffffffffff1673ffffffffffffffffffffffffffffffffffffffff1681526020019081526020016000206003015481526020018260080160008a73ffffffffffffffffffffffffffffffffffffffff1673ffffffffffffffffffffffffffffffffffffffff168152602001908152602001600020600101548152602001826002015481526020018260030154815260200182600401548152602001826005015481526020018260060160009054906101000a900460ff161515815250848480610f4a906144ee565b955081518110610f5d57610f5c614344565b5b60200260200101819052505b508080610f75906144ee565b915050610d5a565b50819350505050919050565b610f916132b1565b60006003600085815260200190815260200160002060080160008473ffffffffffffffffffffffffffffffffffffffff1673ffffffffffffffffffffffffffffffffffffffff168152602001908152602001600020604051806101000160405290816000820160009054906101000a900473ffffffffffffffffffffffffffffffffffffffff1673ffffffffffffffffffffffffffffffffffffffff1673ffffffffffffffffffffffffffffffffffffffff1681526020016001820154815260200160028201548152602001600382015481526020016004820160009054906101000a900460ff16600181111561108b5761108a613425565b5b600181111561109d5761109c613425565b5b815260200160058201548152602001600682015481526020016007820154815250509050428160e00151116110dc5760008160a0018181525050611124565b6000428260e001516110ee9190614310565b905062015180600162015180836111059190614536565b61110f9190614310565b6111199190614599565b8260a0018181525050505b8091505092915050565b600560009054906101000a900473ffffffffffffffffffffffffffffffffffffffff1681565b61115c61310e565b6111666000613195565b565b61117061310e565b600073ffffffffffffffffffffffffffffffffffffffff16600860009054906101000a900473ffffffffffffffffffffffffffffffffffffffff1673ffffffffffffffffffffffffffffffffffffffff1614611201576040517f08c379a00000000000000000000000000000000000000000000000000000000081526004016111f890614616565b60405180910390fd5b600073ffffffffffffffffffffffffffffffffffffffff168173ffffffffffffffffffffffffffffffffffffffff1603611270576040517f08c379a0000000000000000000000000000000000000000000000000000000008152600401611267906146a8565b60405180910390fd5b80600660006101000a81548173ffffffffffffffffffffffffffffffffffffffff021916908373ffffffffffffffffffffffffffffffffffffffff16021790555080600860006101000a81548173ffffffffffffffffffffffffffffffffffffffff021916908373ffffffffffffffffffffffffffffffffffffffff16021790555050565b606060026000838152602001908152602001600020805480602002602001604051908101604052809291908181526020016000905b8282101561159457838290600052602060002090600b0201604051806101600160405290816000820154815260200160018201805461136890614146565b80601f016020809104026020016040519081016040528092919081815260200182805461139490614146565b80156113e15780601f106113b6576101008083540402835291602001916113e1565b820191906000526020600020905b8154815290600101906020018083116113c457829003601f168201915b505050505081526020016002820160009054906101000a900460ff16600381111561140f5761140e613425565b5b600381111561142157611420613425565b5b815260200160038201805461143590614146565b80601f016020809104026020016040519081016040528092919081815260200182805461146190614146565b80156114ae5780601f10611483576101008083540402835291602001916114ae565b820191906000526020600020905b81548152906001019060200180831161149157829003601f168201915b50505050508152602001600482015481526020016005820154815260200160068201548152602001600782015481526020016008820154815260200160098201548152602001600a8201805461150390614146565b80601f016020809104026020016040519081016040528092919081815260200182805461152f90614146565b801561157c5780601f106115515761010080835404028352916020019161157c565b820191906000526020600020905b81548152906001019060200180831161155f57829003601f168201915b5050505050815250508152602001906001019061132a565b505050509050919050565b6000600160009054906101000a900473ffffffffffffffffffffffffffffffffffffffff16905090565b600060036000838152602001908152602001600020600401549050919050565b6115f161310e565b6003600082815260200190815260200160002060060160009054906101000a900460ff1661164b576040517fe067835f00000000000000000000000000000000000000000000000000000000815260040160405180910390fd5b60006003600083815260200190815260200160002060060160006101000a81548160ff02191690831515021790555050565b600860009054906101000a900473ffffffffffffffffffffffffffffffffffffffff1673ffffffffffffffffffffffffffffffffffffffff163373ffffffffffffffffffffffffffffffffffffffff1614806117265750600960009054906101000a900473ffffffffffffffffffffffffffffffffffffffff1673ffffffffffffffffffffffffffffffffffffffff163373ffffffffffffffffffffffffffffffffffffffff16145b611765576040517f08c379a000000000000000000000000000000000000000000000000000000000815260040161175c9061473a565b60405180910390fd5b8060036000848152602001908152602001600020600701600082825461178b9190614536565b925050819055505050565b600860009054906101000a900473ffffffffffffffffffffffffffffffffffffffff1673ffffffffffffffffffffffffffffffffffffffff163373ffffffffffffffffffffffffffffffffffffffff16148061183f5750600960009054906101000a900473ffffffffffffffffffffffffffffffffffffffff1673ffffffffffffffffffffffffffffffffffffffff163373ffffffffffffffffffffffffffffffffffffffff16145b61187e576040517f08c379a00000000000000000000000000000000000000000000000000000000081526004016118759061473a565b60405180910390fd5b60005b60026000848152602001908152602001600020805490508110156119e45781600001516002600085815260200190815260200160002082815481106118c9576118c8614344565b5b90600052602060002090600b020160000154036119d7578160026000858152602001908152602001600020828154811061190657611905614344565b5b90600052602060002090600b020160008201518160000155602082015181600101908161193391906148e7565b5060408201518160020160006101000a81548160ff0219169083600381111561195f5761195e613425565b5b0217905550606082015181600301908161197991906148e7565b506080820151816004015560a0820151816005015560c0820151816006015560e082015181600701556101008201518160080155610120820151816009015561014082015181600a0190816119ce91906148e7565b509050506119e4565b8080600101915050611881565b505050565b600860009054906101000a900473ffffffffffffffffffffffffffffffffffffffff1673ffffffffffffffffffffffffffffffffffffffff163373ffffffffffffffffffffffffffffffffffffffff161480611a925750600960009054906101000a900473ffffffffffffffffffffffffffffffffffffffff1673ffffffffffffffffffffffffffffffffffffffff163373ffffffffffffffffffffffffffffffffffffffff16145b611ad1576040517f08c379a0000000000000000000000000000000000000000000000000000000008152600401611ac89061473a565b60405180910390fd5b80600360008481526020019081526020016000206007016000828254611af79190614310565b925050819055505050565b611b0a61310e565b600073ffffffffffffffffffffffffffffffffffffffff16600560009054906101000a900473ffffffffffffffffffffffffffffffffffffffff1673ffffffffffffffffffffffffffffffffffffffff1614611b9b576040517f08c379a0000000000000000000000000000000000000000000000000000000008152600401611b9290614616565b60405180910390fd5b600073ffffffffffffffffffffffffffffffffffffffff168173ffffffffffffffffffffffffffffffffffffffff1603611c0a576040517f08c379a0000000000000000000000000000000000000000000000000000000008152600401611c01906146a8565b60405180910390fd5b80600560006101000a81548173ffffffffffffffffffffffffffffffffffffffff021916908373ffffffffffffffffffffffffffffffffffffffff16021790555080600760006101000a81548173ffffffffffffffffffffffffffffffffffffffff021916908373ffffffffffffffffffffffffffffffffffffffff16021790555050565b6003602052806000526040600020600091509050806000018054611cb290614146565b80601f0160208091040260200160405190810160405280929190818152602001828054611cde90614146565b8015611d2b5780601f10611d0057610100808354040283529160200191611d2b565b820191906000526020600020905b815481529060010190602001808311611d0e57829003601f168201915b5050505050908060010160009054906101000a900460ff16908060020154908060030154908060040154908060050154908060060160009054906101000a900460ff16908060070154905088565b600760009054906101000a900473ffffffffffffffffffffffffffffffffffffffff1681565b611da76130be565b600060036000838152602001908152602001600020905060003411611e01576040517f08c379a0000000000000000000000000000000000000000000000000000000008152600401611df890614a05565b60405180910390fd5b8060060160009054906101000a900460ff16611e52576040517f08c379a0000000000000000000000000000000000000000000000000000000008152600401611e4990614a97565b60405180910390fd5b60008160080160003373ffffffffffffffffffffffffffffffffffffffff1673ffffffffffffffffffffffffffffffffffffffff168152602001908152602001600020600101541115612074576000348260080160003373ffffffffffffffffffffffffffffffffffffffff1673ffffffffffffffffffffffffffffffffffffffff16815260200190815260200160002060010154611ef19190614536565b9050808260080160003373ffffffffffffffffffffffffffffffffffffffff1673ffffffffffffffffffffffffffffffffffffffff16815260200190815260200160002060010181905550620151808260030154611f4f9190614ab7565b42611f5a9190614536565b8260080160003373ffffffffffffffffffffffffffffffffffffffff1673ffffffffffffffffffffffffffffffffffffffff1681526020019081526020016000206007018190555061016d6064836002015483611fb79190614ab7565b611fc19190614599565b611fcb9190614599565b8260080160003373ffffffffffffffffffffffffffffffffffffffff1673ffffffffffffffffffffffffffffffffffffffff168152602001908152602001600020600301819055506201518082600301546120269190614ab7565b8260080160003373ffffffffffffffffffffffffffffffffffffffff1673ffffffffffffffffffffffffffffffffffffffff168152602001908152602001600020600501819055505061221e565b600061016d606483600201543461208b9190614ab7565b6120959190614599565b61209f9190614599565b90506040518061010001604052803373ffffffffffffffffffffffffffffffffffffffff168152602001348152602001848152602001828152602001600060018111156120ef576120ee613425565b5b8152602001836003015481526020014281526020016201518084600301546121179190614ab7565b426121229190614536565b8152508260080160003373ffffffffffffffffffffffffffffffffffffffff1673ffffffffffffffffffffffffffffffffffffffff16815260200190815260200160002060008201518160000160006101000a81548173ffffffffffffffffffffffffffffffffffffffff021916908373ffffffffffffffffffffffffffffffffffffffff16021790555060208201518160010155604082015181600201556060820151816003015560808201518160040160006101000a81548160ff021916908360018111156121f6576121f5613425565b5b021790555060a0820151816005015560c0820151816006015560e08201518160070155905050505b348160040160008282546122329190614536565b925050819055506000612244836112f5565b905060005b815181101561230a57600660009054906101000a900473ffffffffffffffffffffffffffffffffffffffff1673ffffffffffffffffffffffffffffffffffffffff1663106b5da18383815181106122a3576122a2614344565b5b6020026020010151600001516040518263ffffffff1660e01b81526004016122cb9190613b62565b600060405180830381600087803b1580156122e557600080fd5b505af11580156122f9573d6000803e3d6000fd5b505050508080600101915050612249565b503373ffffffffffffffffffffffffffffffffffffffff167f6f85d9948d6ca3dd6ce6ce7d175da22b4e865827ae6fcd530ec7edac1240f92834846000016040516123569291906144be565b60405180910390a25050612368613104565b50565b6000806000600760009054906101000a900473ffffffffffffffffffffffffffffffffffffffff1673ffffffffffffffffffffffffffffffffffffffff16633b4d01a7856040518263ffffffff1660e01b81526004016123cb9190613b62565b600060405180830381865afa1580156123e8573d6000803e3d6000fd5b505050506040513d6000823e3d601f19601f820116820180604052508101906124119190614d9b565b905060008160e001519050338160000151935093505050915091565b600860009054906101000a900473ffffffffffffffffffffffffffffffffffffffff1673ffffffffffffffffffffffffffffffffffffffff163373ffffffffffffffffffffffffffffffffffffffff1614806124d65750600960009054906101000a900473ffffffffffffffffffffffffffffffffffffffff1673ffffffffffffffffffffffffffffffffffffffff163373ffffffffffffffffffffffffffffffffffffffff16145b612515576040517f08c379a000000000000000000000000000000000000000000000000000000000815260040161250c9061473a565b60405180910390fd5b600260008381526020019081526020016000208190806001815401808255809150506001900390600052602060002090600b020160009091909190915060008201518160000155602082015181600101908161257191906148e7565b5060408201518160020160006101000a81548160ff0219169083600381111561259d5761259c613425565b5b021790555060608201518160030190816125b791906148e7565b506080820151816004015560a0820151816005015560c0820151816006015560e082015181600701556101008201518160080155610120820151816009015561014082015181600a01908161260c91906148e7565b5050505050565b61261b61310e565b6003600084815260200190815260200160002060060160009054906101000a900460ff1661267e576040517f08c379a000000000000000000000000000000000000000000000000000000000815260040161267590614e56565b60405180910390fd5b600082116126c1576040517f08c379a00000000000000000000000000000000000000000000000000000000081526004016126b890614ec2565b60405180910390fd5b60008111612704576040517f08c379a00000000000000000000000000000000000000000000000000000000081526004016126fb90614f2e565b60405180910390fd5b816003600085815260200190815260200160002060020181905550806003600085815260200190815260200160002060030181905550827f17b8644f386d1c7c7138ef98b3c8035622bbe94d7be9b26f71d2654a547c2943838360405161276c929190614f4e565b60405180910390a2505050565b6060600060045467ffffffffffffffff81111561279957612798613bc2565b5b6040519080825280602002602001820160405280156127d257816020015b6127bf613263565b8152602001906001900390816127b75790505b5090506000600190505b60045481116129b157600060036000838152602001908152602001600020905060405180610120016040528082600001805461281790614146565b80601f016020809104026020016040519081016040528092919081815260200182805461284390614146565b80156128905780601f1061286557610100808354040283529160200191612890565b820191906000526020600020905b81548152906001019060200180831161287357829003601f168201915b505050505081526020018381526020018260080160003373ffffffffffffffffffffffffffffffffffffffff1673ffffffffffffffffffffffffffffffffffffffff1681526020019081526020016000206003015481526020018260080160003373ffffffffffffffffffffffffffffffffffffffff1673ffffffffffffffffffffffffffffffffffffffff168152602001908152602001600020600101548152602001826002015481526020018260030154815260200182600401548152602001826005015481526020018260060160009054906101000a900460ff161515815250836001846129819190614310565b8151811061299257612991614344565b5b60200260200101819052505080806129a9906144ee565b9150506127dc565b508091505090565b6129c161310e565b6001600460008282546129d49190614536565b925050819055506000600360006004548152602001908152602001600020905083816000019081612a0591906148e7565b508281600201819055508181600301819055506000816004018190555060018160060160006101000a81548160ff021916908315150217905550848160010160006101000a81548160ff02191690836003811115612a6657612a65613425565b5b0217905550606481600701819055506004547ff01906dc0ac306fa816e50166a7ed46af1f05721cb90cea30beebdd8dede3a6d85604051612aa79190614f77565b60405180910390a25050505050565b612abe6130be565b6000600760009054906101000a900473ffffffffffffffffffffffffffffffffffffffff1673ffffffffffffffffffffffffffffffffffffffff16633b4d01a7836040518263ffffffff1660e01b8152600401612b1b9190613b62565b600060405180830381865afa158015612b38573d6000803e3d6000fd5b505050506040513d6000823e3d601f19601f82011682018060405250810190612b619190614d9b565b905060008160e00151905060026004811115612b8057612b7f613425565b5b8260a001516004811115612b9757612b96613425565b5b148015612ba557508160c001515b612be4576040517f08c379a0000000000000000000000000000000000000000000000000000000008152600401612bdb90614fe5565b60405180910390fd5b600060036000836080015181526020019081526020016000209050816000015173ffffffffffffffffffffffffffffffffffffffff163373ffffffffffffffffffffffffffffffffffffffff1614612c71576040517f08c379a0000000000000000000000000000000000000000000000000000000008152600401612c6890615051565b60405180910390fd5b8060060160009054906101000a900460ff16612cc2576040517f08c379a0000000000000000000000000000000000000000000000000000000008152600401612cb9906150bd565b60405180910390fd5b8160a0015181600401541015612d0d576040517f08c379a0000000000000000000000000000000000000000000000000000000008152600401612d0490615129565b60405180910390fd5b8160a00151816005016000828254612d259190614536565b925050819055508160a00151816004016000828254612d449190614310565b925050819055506000612d5a83608001516112f5565b905060005b8151811015612e2057600660009054906101000a900473ffffffffffffffffffffffffffffffffffffffff1673ffffffffffffffffffffffffffffffffffffffff1663106b5da1838381518110612db957612db8614344565b5b6020026020010151600001516040518263ffffffff1660e01b8152600401612de19190613b62565b600060405180830381600087803b158015612dfb57600080fd5b505af1158015612e0f573d6000803e3d6000fd5b505050508080600101915050612d5f565b50600760009054906101000a900473ffffffffffffffffffffffffffffffffffffffff1673ffffffffffffffffffffffffffffffffffffffff1663f1b4bf9d866040518263ffffffff1660e01b8152600401612e7c9190613b62565b600060405180830381600087803b158015612e9657600080fd5b505af1158015612eaa573d6000803e3d6000fd5b505050507feef4955e8b18dcb6d1c19905b7b86e5fe56138ad1ce2c5e540ce4e959312f51183608001518460a001518560000151604051612eed93929190615149565b60405180910390a160003373ffffffffffffffffffffffffffffffffffffffff168460a00151604051612f1f906143a4565b60006040518083038185875af1925050503d8060008114612f5c576040519150601f19603f3d011682016040523d82523d6000602084013e612f61565b606091505b5050905080612fa5576040517f08c379a0000000000000000000000000000000000000000000000000000000008152600401612f9c906151cc565b60405180910390fd5b3373ffffffffffffffffffffffffffffffffffffffff167f415071086c9ea63f7f39884c21a8af430af53bfd511a362dff69cabcb1b8bcc1846000018660a00151604051612ff49291906151ec565b60405180910390a25050505050613009613104565b50565b61301461310e565b600073ffffffffffffffffffffffffffffffffffffffff168173ffffffffffffffffffffffffffffffffffffffff16036130865760006040517f1e4fbdf700000000000000000000000000000000000000000000000000000000815260040161307d919061357d565b60405180910390fd5b61308f81613195565b50565b60045481565b600660009054906101000a900473ffffffffffffffffffffffffffffffffffffffff1681565b6002600054036130fa576040517f3ee5aeb500000000000000000000000000000000000000000000000000000000815260040160405180910390fd5b6002600081905550565b6001600081905550565b61311661325b565b73ffffffffffffffffffffffffffffffffffffffff1661313461159f565b73ffffffffffffffffffffffffffffffffffffffff16146131935761315761325b565b6040517f118cdaa700000000000000000000000000000000000000000000000000000000815260040161318a919061357d565b60405180910390fd5b565b6000600160009054906101000a900473ffffffffffffffffffffffffffffffffffffffff16905081600160006101000a81548173ffffffffffffffffffffffffffffffffffffffff021916908373ffffffffffffffffffffffffffffffffffffffff1602179055508173ffffffffffffffffffffffffffffffffffffffff168173ffffffffffffffffffffffffffffffffffffffff167f8be0079c531659141344cd1fd0a4f28419497f9722a3daafe3b4186f6b6457e060405160405180910390a35050565b600033905090565b60405180610120016040528060608152602001600081526020016000815260200160008152602001600081526020016000815260200160008152602001600081526020016000151581525090565b604051806101000160405280600073ffffffffffffffffffffffffffffffffffffffff1681526020016000815260200160008152602001600081526020016000600181111561330357613302613425565b5b81526020016000815260200160008152602001600081525090565b6000604051905090565b600080fd5b600080fd5b6000819050919050565b61334581613332565b811461335057600080fd5b50565b6000813590506133628161333c565b92915050565b60006020828403121561337e5761337d613328565b5b600061338c84828501613353565b91505092915050565b600081519050919050565b600082825260208201905092915050565b60005b838110156133cf5780820151818401526020810190506133b4565b60008484015250505050565b6000601f19601f8301169050919050565b60006133f782613395565b61340181856133a0565b93506134118185602086016133b1565b61341a816133db565b840191505092915050565b7f4e487b7100000000000000000000000000000000000000000000000000000000600052602160045260246000fd5b6004811061346557613464613425565b5b50565b600081905061347682613454565b919050565b600061348682613468565b9050919050565b6134968161347b565b82525050565b6134a581613332565b82525050565b60008115159050919050565b6134c0816134ab565b82525050565b600060e08201905081810360008301526134e0818a6133ec565b90506134ef602083018961348d565b6134fc604083018861349c565b613509606083018761349c565b613516608083018661349c565b61352360a08301856134b7565b61353060c083018461349c565b98975050505050505050565b600073ffffffffffffffffffffffffffffffffffffffff82169050919050565b60006135678261353c565b9050919050565b6135778161355c565b82525050565b6000602082019050613592600083018461356e565b92915050565b60006020820190506135ad60008301846134b7565b92915050565b6135bc8161355c565b81146135c757600080fd5b50565b6000813590506135d9816135b3565b92915050565b6000602082840312156135f5576135f4613328565b5b6000613603848285016135ca565b91505092915050565b600081519050919050565b600082825260208201905092915050565b6000819050602082019050919050565b600082825260208201905092915050565b600061365482613395565b61365e8185613638565b935061366e8185602086016133b1565b613677816133db565b840191505092915050565b61368b81613332565b82525050565b61369a816134ab565b82525050565b60006101208301600083015184820360008601526136be8282613649565b91505060208301516136d36020860182613682565b5060408301516136e66040860182613682565b5060608301516136f96060860182613682565b50608083015161370c6080860182613682565b5060a083015161371f60a0860182613682565b5060c083015161373260c0860182613682565b5060e083015161374560e0860182613682565b5061010083015161375a610100860182613691565b508091505092915050565b600061377183836136a0565b905092915050565b6000602082019050919050565b60006137918261360c565b61379b8185613617565b9350836020820285016137ad85613628565b8060005b858110156137e957848403895281516137ca8582613765565b94506137d583613779565b925060208a019950506001810190506137b1565b50829750879550505050505092915050565b600060208201905081810360008301526138158184613786565b905092915050565b6000806040838503121561383457613833613328565b5b600061384285828601613353565b9250506020613853858286016135ca565b9150509250929050565b6138668161355c565b82525050565b6002811061387d5761387c613425565b5b50565b600081905061388e8261386c565b919050565b600061389e82613880565b9050919050565b6138ae81613893565b82525050565b610100820160008201516138cb600085018261385d565b5060208201516138de6020850182613682565b5060408201516138f16040850182613682565b5060608201516139046060850182613682565b50608082015161391760808501826138a5565b5060a082015161392a60a0850182613682565b5060c082015161393d60c0850182613682565b5060e082015161395060e0850182613682565b50505050565b60006101008201905061396c60008301846138b4565b92915050565b600081519050919050565b600082825260208201905092915050565b6000819050602082019050919050565b6139a78161347b565b82525050565b6000610160830160008301516139c66000860182613682565b50602083015184820360208601526139de8282613649565b91505060408301516139f3604086018261399e565b5060608301518482036060860152613a0b8282613649565b9150506080830151613a206080860182613682565b5060a0830151613a3360a0860182613682565b5060c0830151613a4660c0860182613682565b5060e0830151613a5960e0860182613682565b50610100830151613a6e610100860182613682565b50610120830151613a83610120860182613682565b50610140830151848203610140860152613a9d8282613649565b9150508091505092915050565b6000613ab683836139ad565b905092915050565b6000602082019050919050565b6000613ad682613972565b613ae0818561397d565b935083602082028501613af28561398e565b8060005b85811015613b2e5784840389528151613b0f8582613aaa565b9450613b1a83613abe565b925060208a01995050600181019050613af6565b50829750879550505050505092915050565b60006020820190508181036000830152613b5a8184613acb565b905092915050565b6000602082019050613b77600083018461349c565b92915050565b60008060408385031215613b9457613b93613328565b5b6000613ba285828601613353565b9250506020613bb385828601613353565b9150509250929050565b600080fd5b7f4e487b7100000000000000000000000000000000000000000000000000000000600052604160045260246000fd5b613bfa826133db565b810181811067ffffffffffffffff82111715613c1957613c18613bc2565b5b80604052505050565b6000613c2c61331e565b9050613c388282613bf1565b919050565b600080fd5b600080fd5b600080fd5b600067ffffffffffffffff821115613c6757613c66613bc2565b5b613c70826133db565b9050602081019050919050565b82818337600083830152505050565b6000613c9f613c9a84613c4c565b613c22565b905082815260208101848484011115613cbb57613cba613c47565b5b613cc6848285613c7d565b509392505050565b600082601f830112613ce357613ce2613c42565b5b8135613cf3848260208601613c8c565b91505092915050565b60048110613d0957600080fd5b50565b600081359050613d1b81613cfc565b92915050565b60006101608284031215613d3857613d37613bbd565b5b613d43610160613c22565b90506000613d5384828501613353565b600083015250602082013567ffffffffffffffff811115613d7757613d76613c3d565b5b613d8384828501613cce565b6020830152506040613d9784828501613d0c565b604083015250606082013567ffffffffffffffff811115613dbb57613dba613c3d565b5b613dc784828501613cce565b6060830152506080613ddb84828501613353565b60808301525060a0613def84828501613353565b60a08301525060c0613e0384828501613353565b60c08301525060e0613e1784828501613353565b60e083015250610100613e2c84828501613353565b61010083015250610120613e4284828501613353565b6101208301525061014082013567ffffffffffffffff811115613e6857613e67613c3d565b5b613e7484828501613cce565b6101408301525092915050565b60008060408385031215613e9857613e97613328565b5b6000613ea685828601613353565b925050602083013567ffffffffffffffff811115613ec757613ec661332d565b5b613ed385828601613d21565b9150509250929050565b6000610100820190508181036000830152613ef8818b6133ec565b9050613f07602083018a61348d565b613f14604083018961349c565b613f21606083018861349c565b613f2e608083018761349c565b613f3b60a083018661349c565b613f4860c08301856134b7565b613f5560e083018461349c565b9998505050505050505050565b6000819050919050565b6000613f87613f82613f7d8461353c565b613f62565b61353c565b9050919050565b6000613f9982613f6c565b9050919050565b6000613fab82613f8e565b9050919050565b613fbb81613fa0565b82525050565b6000602082019050613fd66000830184613fb2565b92915050565b6000604082019050613ff1600083018561356e565b613ffe602083018461356e565b9392505050565b60008060006060848603121561401e5761401d613328565b5b600061402c86828701613353565b935050602061403d86828701613353565b925050604061404e86828701613353565b9150509250925092565b6000806000806080858703121561407257614071613328565b5b600061408087828801613d0c565b945050602085013567ffffffffffffffff8111156140a1576140a061332d565b5b6140ad87828801613cce565b93505060406140be87828801613353565b92505060606140cf87828801613353565b91505092959194509250565b60006140e682613f8e565b9050919050565b6140f6816140db565b82525050565b600060208201905061411160008301846140ed565b92915050565b7f4e487b7100000000000000000000000000000000000000000000000000000000600052602260045260246000fd5b6000600282049050600182168061415e57607f821691505b60208210810361417157614170614117565b5b50919050565b7f4e6f206465706f73697420666f756e6420666f7220746869732061646472657360008201527f7300000000000000000000000000000000000000000000000000000000000000602082015250565b60006141d36021836133a0565b91506141de82614177565b604082019050919050565b60006020820190508181036000830152614202816141c6565b9050919050565b7f4465706f736974206973206e6f74206163746976650000000000000000000000600082015250565b600061423f6015836133a0565b915061424a82614209565b602082019050919050565b6000602082019050818103600083015261426e81614232565b9050919050565b7f4465706f73697420706572696f6420686173206e6f7420656e64656400000000600082015250565b60006142ab601c836133a0565b91506142b682614275565b602082019050919050565b600060208201905081810360008301526142da8161429e565b9050919050565b7f4e487b7100000000000000000000000000000000000000000000000000000000600052601160045260246000fd5b600061431b82613332565b915061432683613332565b925082820390508181111561433e5761433d6142e1565b5b92915050565b7f4e487b7100000000000000000000000000000000000000000000000000000000600052603260045260246000fd5b600081905092915050565b50565b600061438e600083614373565b91506143998261437e565b600082019050919050565b60006143af82614381565b9150819050919050565b7f5769746864726177616c206661696c6564000000000000000000000000000000600082015250565b60006143ef6011836133a0565b91506143fa826143b9565b602082019050919050565b6000602082019050818103600083015261441e816143e2565b9050919050565b60008190508160005260206000209050919050565b6000815461444781614146565b61445181866133a0565b9450600182166000811461446c5760018114614482576144b5565b60ff1983168652811515602002860193506144b5565b61448b85614425565b60005b838110156144ad5781548189015260018201915060208101905061448e565b808801955050505b50505092915050565b60006040820190506144d3600083018561349c565b81810360208301526144e5818461443a565b90509392505050565b60006144f982613332565b91507fffffffffffffffffffffffffffffffffffffffffffffffffffffffffffffffff820361452b5761452a6142e1565b5b600182019050919050565b600061454182613332565b915061454c83613332565b9250828201905080821115614564576145636142e1565b5b92915050565b7f4e487b7100000000000000000000000000000000000000000000000000000000600052601260045260246000fd5b60006145a482613332565b91506145af83613332565b9250826145bf576145be61456a565b5b828204905092915050565b7f476f7665726e616e636520616c72656164792073657400000000000000000000600082015250565b60006146006016836133a0565b915061460b826145ca565b602082019050919050565b6000602082019050818103600083015261462f816145f3565b9050919050565b7f476f7665726e616e636520616464726573732063616e6e6f74206265207a657260008201527f6f00000000000000000000000000000000000000000000000000000000000000602082015250565b60006146926021836133a0565b915061469d82614636565b604082019050919050565b600060208201905081810360008301526146c181614685565b9050919050565b7f43616c6c6572206973206e6f742074686520676f7665726e616e636520636f6e60008201527f7472616374000000000000000000000000000000000000000000000000000000602082015250565b60006147246025836133a0565b915061472f826146c8565b604082019050919050565b6000602082019050818103600083015261475381614717565b9050919050565b60006020601f8301049050919050565b600082821b905092915050565b6000600883026147a77fffffffffffffffffffffffffffffffffffffffffffffffffffffffffffffffff8261476a565b6147b1868361476a565b95508019841693508086168417925050509392505050565b60006147e46147df6147da84613332565b613f62565b613332565b9050919050565b6000819050919050565b6147fe836147c9565b61481261480a826147eb565b848454614777565b825550505050565b600090565b61482761481a565b6148328184846147f5565b505050565b5b818110156148565761484b60008261481f565b600181019050614838565b5050565b601f82111561489b5761486c81614425565b6148758461475a565b81016020851015614884578190505b6148986148908561475a565b830182614837565b50505b505050565b600082821c905092915050565b60006148be600019846008026148a0565b1980831691505092915050565b60006148d783836148ad565b9150826002028217905092915050565b6148f082613395565b67ffffffffffffffff81111561490957614908613bc2565b5b6149138254614146565b61491e82828561485a565b600060209050601f831160018114614951576000841561493f578287015190505b61494985826148cb565b8655506149b1565b601f19841661495f86614425565b60005b8281101561498757848901518255600182019150602085019450602081019050614962565b868310156149a457848901516149a0601f8916826148ad565b8355505b6001600288020188555050505b505050505050565b7f416d6f756e74206d7573742062652067726561746572207468616e2030000000600082015250565b60006149ef601d836133a0565b91506149fa826149b9565b602082019050919050565b60006020820190508181036000830152614a1e816149e2565b9050919050565b7f506f6f6c20697320696e616374697665206f7220646f6573206e6f742065786960008201527f7374000000000000000000000000000000000000000000000000000000000000602082015250565b6000614a816022836133a0565b9150614a8c82614a25565b604082019050919050565b60006020820190508181036000830152614ab081614a74565b9050919050565b6000614ac282613332565b9150614acd83613332565b9250828202614adb81613332565b91508282048414831517614af257614af16142e1565b5b5092915050565b600081519050614b088161333c565b92915050565b60058110614b1b57600080fd5b50565b600081519050614b2d81614b0e565b92915050565b614b3c816134ab565b8114614b4757600080fd5b50565b600081519050614b5981614b33565b92915050565b600081519050614b6e816135b3565b92915050565b600081519050614b8381613cfc565b92915050565b6000614b9c614b9784613c4c565b613c22565b905082815260208101848484011115614bb857614bb7613c47565b5b614bc38482856133b1565b509392505050565b600082601f830112614be057614bdf613c42565b5b8151614bf0848260208601614b89565b91505092915050565b600060c08284031215614c0f57614c0e613bbd565b5b614c1960c0613c22565b90506000614c2984828501614b5f565b6000830152506020614c3d84828501614b74565b6020830152506040614c5184828501614af9565b604083015250606082015167ffffffffffffffff811115614c7557614c74613c3d565b5b614c8184828501614bcb565b6060830152506080614c9584828501614af9565b60808301525060a0614ca984828501614af9565b60a08301525092915050565b60006101008284031215614ccc57614ccb613bbd565b5b614cd7610100613c22565b90506000614ce784828501614af9565b6000830152506020614cfb84828501614af9565b6020830152506040614d0f84828501614af9565b6040830152506060614d2384828501614af9565b6060830152506080614d3784828501614af9565b60808301525060a0614d4b84828501614b1e565b60a08301525060c0614d5f84828501614b4a565b60c08301525060e082015167ffffffffffffffff811115614d8357614d82613c3d565b5b614d8f84828501614bf9565b60e08301525092915050565b600060208284031215614db157614db0613328565b5b600082015167ffffffffffffffff811115614dcf57614dce61332d565b5b614ddb84828501614cb5565b91505092915050565b7f506f6f6c20646f6573206e6f74206578697374206f7220697320696e6163746960008201527f7665000000000000000000000000000000000000000000000000000000000000602082015250565b6000614e406022836133a0565b9150614e4b82614de4565b604082019050919050565b60006020820190508181036000830152614e6f81614e33565b9050919050565b7f496e76616c696420415059000000000000000000000000000000000000000000600082015250565b6000614eac600b836133a0565b9150614eb782614e76565b602082019050919050565b60006020820190508181036000830152614edb81614e9f565b9050919050565b7f496e76616c6964206d696e696d756d20706572696f6400000000000000000000600082015250565b6000614f186016836133a0565b9150614f2382614ee2565b602082019050919050565b60006020820190508181036000830152614f4781614f0b565b9050919050565b6000604082019050614f63600083018561349c565b614f70602083018461349c565b9392505050565b60006020820190508181036000830152614f9181846133ec565b905092915050565b7f50726f706f73616c206e6f7420617070726f7665640000000000000000000000600082015250565b6000614fcf6015836133a0565b9150614fda82614f99565b602082019050919050565b60006020820190508181036000830152614ffe81614fc2565b9050919050565b7f4e6f7420612076616c69642070726f706f73616c000000000000000000000000600082015250565b600061503b6014836133a0565b915061504682615005565b602082019050919050565b6000602082019050818103600083015261506a8161502e565b9050919050565b7f506f6f6c206973206e6f74206163746976650000000000000000000000000000600082015250565b60006150a76012836133a0565b91506150b282615071565b602082019050919050565b600060208201905081810360008301526150d68161509a565b9050919050565b7f4e6f7420656e6f7567682066756e647320696e2074686520706f6f6c00000000600082015250565b6000615113601c836133a0565b915061511e826150dd565b602082019050919050565b6000602082019050818103600083015261514281615106565b9050919050565b600060608201905061515e600083018661349c565b61516b602083018561349c565b615178604083018461356e565b949350505050565b7f5472616e73666572206661696c65640000000000000000000000000000000000600082015250565b60006151b6600f836133a0565b91506151c182615180565b602082019050919050565b600060208201905081810360008301526151e5816151a9565b9050919050565b60006040820190508181036000830152615206818561443a565b9050615215602083018461349c565b939250505056fea26469706673582212205a5dd04197a8c7160e6d2dfc437240ccf6b134013f8401a30c9c8a23c9a69e2764736f6c63430008180033",
  "linkReferences": {},
  "deployedLinkReferences": {}
}